{
	"StatusLahan.sol": {
		"StatusLahan": {
			"abi": [
				{
					"inputs": [],
					"stateMutability": "nonpayable",
					"type": "constructor"
				},
				{
					"anonymous": false,
					"inputs": [
						{
							"indexed": true,
							"internalType": "string",
							"name": "idLahan",
							"type": "string"
						},
						{
							"indexed": false,
							"internalType": "string",
							"name": "namaPemilik",
							"type": "string"
						},
						{
							"indexed": false,
							"internalType": "string",
							"name": "lokasi",
							"type": "string"
						},
						{
							"indexed": false,
							"internalType": "uint256",
							"name": "timestamp",
							"type": "uint256"
						}
					],
					"name": "LahanTerdaftar",
					"type": "event"
				},
				{
					"anonymous": false,
					"inputs": [
						{
							"indexed": true,
							"internalType": "address",
							"name": "petugas",
							"type": "address"
						},
						{
							"indexed": false,
							"internalType": "uint256",
							"name": "timestamp",
							"type": "uint256"
						}
					],
					"name": "PetugasDitambahkan",
					"type": "event"
				},
				{
					"anonymous": false,
					"inputs": [
						{
							"indexed": true,
							"internalType": "string",
							"name": "idLahan",
							"type": "string"
						},
						{
							"indexed": false,
							"internalType": "enum StatusLahan.StatusPenggunaan",
							"name": "statusLama",
							"type": "uint8"
						},
						{
							"indexed": false,
							"internalType": "enum StatusLahan.StatusPenggunaan",
							"name": "statusBaru",
							"type": "uint8"
						},
						{
							"indexed": false,
							"internalType": "address",
							"name": "petugas",
							"type": "address"
						},
						{
							"indexed": false,
							"internalType": "uint256",
							"name": "timestamp",
							"type": "uint256"
						}
					],
					"name": "StatusDiperbarui",
					"type": "event"
				},
				{
					"inputs": [
						{
							"internalType": "uint256",
							"name": "",
							"type": "uint256"
						}
					],
					"name": "daftarIdLahan",
					"outputs": [
						{
							"internalType": "string",
							"name": "",
							"type": "string"
						}
					],
					"stateMutability": "view",
					"type": "function"
				},
				{
					"inputs": [
						{
							"internalType": "string",
							"name": "_idLahan",
							"type": "string"
						},
						{
							"internalType": "string",
							"name": "_namaPemilik",
							"type": "string"
						},
						{
							"internalType": "string",
							"name": "_lokasi",
							"type": "string"
						},
						{
							"internalType": "uint256",
							"name": "_luasM2",
							"type": "uint256"
						},
						{
							"internalType": "enum StatusLahan.StatusPenggunaan",
							"name": "_statusAwal",
							"type": "uint8"
						}
					],
					"name": "daftarkanLahan",
					"outputs": [],
					"stateMutability": "nonpayable",
					"type": "function"
				},
				{
					"inputs": [
						{
							"internalType": "string",
							"name": "_idLahan",
							"type": "string"
						}
					],
					"name": "lihatDataLahan",
					"outputs": [
						{
							"internalType": "string",
							"name": "namaPemilik",
							"type": "string"
						},
						{
							"internalType": "string",
							"name": "lokasi",
							"type": "string"
						},
						{
							"internalType": "string",
							"name": "status",
							"type": "string"
						},
						{
							"internalType": "uint256",
							"name": "luasM2",
							"type": "uint256"
						},
						{
							"internalType": "uint256",
							"name": "tanggalUpdate",
							"type": "uint256"
						}
					],
					"stateMutability": "view",
					"type": "function"
				},
				{
					"inputs": [],
					"name": "owner",
					"outputs": [
						{
							"internalType": "address",
							"name": "",
							"type": "address"
						}
					],
					"stateMutability": "view",
					"type": "function"
				},
				{
					"inputs": [
						{
							"internalType": "string",
							"name": "_idLahan",
							"type": "string"
						},
						{
							"internalType": "enum StatusLahan.StatusPenggunaan",
							"name": "_statusBaru",
							"type": "uint8"
						}
					],
					"name": "perbaruiStatus",
					"outputs": [],
					"stateMutability": "nonpayable",
					"type": "function"
				},
				{
					"inputs": [
						{
							"internalType": "address",
							"name": "",
							"type": "address"
						}
					],
					"name": "petugasResmi",
					"outputs": [
						{
							"internalType": "bool",
							"name": "",
							"type": "bool"
						}
					],
					"stateMutability": "view",
					"type": "function"
				},
				{
					"inputs": [
						{
							"internalType": "address",
							"name": "_petugas",
							"type": "address"
						}
					],
					"name": "tambahPetugas",
					"outputs": [],
					"stateMutability": "nonpayable",
					"type": "function"
				},
				{
					"inputs": [
						{
							"internalType": "enum StatusLahan.StatusPenggunaan",
							"name": "_status",
							"type": "uint8"
						}
					],
					"name": "totalLahanPerStatus",
					"outputs": [
						{
							"internalType": "uint256",
							"name": "jumlahBidang",
							"type": "uint256"
						},
						{
							"internalType": "uint256",
							"name": "totalLuasM2",
							"type": "uint256"
						}
					],
					"stateMutability": "view",
					"type": "function"
				},
				{
					"inputs": [],
					"name": "totalLahanTerdaftar",
					"outputs": [
						{
							"internalType": "uint256",
							"name": "",
							"type": "uint256"
						}
					],
					"stateMutability": "view",
					"type": "function"
				}
			],
			"devdoc": {
				"kind": "dev",
				"methods": {},
				"version": 1
			},
			"evm": {
				"assembly": "    /* \"StatusLahan.sol\":60:5582  contract StatusLahan {\r... */\n  mstore(0x40, 0x80)\n    /* \"StatusLahan.sol\":2204:2255  constructor() {\r... */\n  callvalue\n  dup1\n  iszero\n  tag_1\n  jumpi\n  0x00\n  dup1\n  revert\ntag_1:\n  pop\n    /* \"StatusLahan.sol\":2237:2247  msg.sender */\n  caller\n    /* \"StatusLahan.sol\":2229:2234  owner */\n  0x00\n  dup1\n    /* \"StatusLahan.sol\":2229:2247  owner = msg.sender */\n  0x0100\n  exp\n  dup2\n  sload\n  dup2\n  0xffffffffffffffffffffffffffffffffffffffff\n  mul\n  not\n  and\n  swap1\n  dup4\n  0xffffffffffffffffffffffffffffffffffffffff\n  and\n  mul\n  or\n  swap1\n  sstore\n  pop\n    /* \"StatusLahan.sol\":60:5582  contract StatusLahan {\r... */\n  dataSize(sub_0)\n  dup1\n  dataOffset(sub_0)\n  0x00\n  codecopy\n  0x00\n  return\nstop\n\nsub_0: assembly {\n        /* \"StatusLahan.sol\":60:5582  contract StatusLahan {\r... */\n      mstore(0x40, 0x80)\n      callvalue\n      dup1\n      iszero\n      tag_1\n      jumpi\n      0x00\n      dup1\n      revert\n    tag_1:\n      pop\n      jumpi(tag_2, lt(calldatasize, 0x04))\n      shr(0xe0, calldataload(0x00))\n      dup1\n      0xda36344b\n      gt\n      tag_12\n      jumpi\n      dup1\n      0xda36344b\n      eq\n      tag_7\n      jumpi\n      dup1\n      0xdaaef101\n      eq\n      tag_8\n      jumpi\n      dup1\n      0xeeae0059\n      eq\n      tag_9\n      jumpi\n      dup1\n      0xf8dafb05\n      eq\n      tag_10\n      jumpi\n      dup1\n      0xf9284ba0\n      eq\n      tag_11\n      jumpi\n      jump(tag_2)\n    tag_12:\n      dup1\n      0x5d15da81\n      eq\n      tag_3\n      jumpi\n      dup1\n      0x64d1798b\n      eq\n      tag_4\n      jumpi\n      dup1\n      0x8da5cb5b\n      eq\n      tag_5\n      jumpi\n      dup1\n      0xd52cbf23\n      eq\n      tag_6\n      jumpi\n    tag_2:\n      0x00\n      dup1\n      revert\n        /* \"StatusLahan.sol\":5472:5579  function totalLahanTerdaftar() public view returns (uint256) {\r... */\n    tag_3:\n      tag_13\n      tag_14\n      jump\t// in\n    tag_13:\n      mload(0x40)\n      tag_15\n      swap2\n      swap1\n      tag_16\n      jump\t// in\n    tag_15:\n      mload(0x40)\n      dup1\n      swap2\n      sub\n      swap1\n      return\n        /* \"StatusLahan.sol\":4034:4910  function lihatDataLahan(string memory _idLahan)\r... */\n    tag_4:\n      tag_17\n      0x04\n      dup1\n      calldatasize\n      sub\n      dup2\n      add\n      swap1\n      tag_18\n      swap2\n      swap1\n      tag_19\n      jump\t// in\n    tag_18:\n      tag_20\n      jump\t// in\n    tag_17:\n      mload(0x40)\n      tag_21\n      swap6\n      swap5\n      swap4\n      swap3\n      swap2\n      swap1\n      tag_22\n      jump\t// in\n    tag_21:\n      mload(0x40)\n      dup1\n      swap2\n      sub\n      swap1\n      return\n        /* \"StatusLahan.sol\":759:779  address public owner */\n    tag_5:\n      tag_23\n      tag_24\n      jump\t// in\n    tag_23:\n      mload(0x40)\n      tag_25\n      swap2\n      swap1\n      tag_26\n      jump\t// in\n    tag_25:\n      mload(0x40)\n      dup1\n      swap2\n      sub\n      swap1\n      return\n        /* \"StatusLahan.sol\":2531:3394  function daftarkanLahan(\r... */\n    tag_6:\n      tag_27\n      0x04\n      dup1\n      calldatasize\n      sub\n      dup2\n      add\n      swap1\n      tag_28\n      swap2\n      swap1\n      tag_29\n      jump\t// in\n    tag_28:\n      tag_30\n      jump\t// in\n    tag_27:\n      stop\n        /* \"StatusLahan.sol\":2316:2484  function tambahPetugas(address _petugas) public hanyaOwner {\r... */\n    tag_7:\n      tag_31\n      0x04\n      dup1\n      calldatasize\n      sub\n      dup2\n      add\n      swap1\n      tag_32\n      swap2\n      swap1\n      tag_33\n      jump\t// in\n    tag_32:\n      tag_34\n      jump\t// in\n    tag_31:\n      stop\n        /* \"StatusLahan.sol\":940:984  mapping(address => bool) public petugasResmi */\n    tag_8:\n      tag_35\n      0x04\n      dup1\n      calldatasize\n      sub\n      dup2\n      add\n      swap1\n      tag_36\n      swap2\n      swap1\n      tag_33\n      jump\t// in\n    tag_36:\n      tag_37\n      jump\t// in\n    tag_35:\n      mload(0x40)\n      tag_38\n      swap2\n      swap1\n      tag_39\n      jump\t// in\n    tag_38:\n      mload(0x40)\n      dup1\n      swap2\n      sub\n      swap1\n      return\n        /* \"StatusLahan.sol\":3442:3959  function perbaruiStatus(\r... */\n    tag_9:\n      tag_40\n      0x04\n      dup1\n      calldatasize\n      sub\n      dup2\n      add\n      swap1\n      tag_41\n      swap2\n      swap1\n      tag_42\n      jump\t// in\n    tag_41:\n      tag_43\n      jump\t// in\n    tag_40:\n      stop\n        /* \"StatusLahan.sol\":4994:5408  function totalLahanPerStatus(StatusPenggunaan _status)\r... */\n    tag_10:\n      tag_44\n      0x04\n      dup1\n      calldatasize\n      sub\n      dup2\n      add\n      swap1\n      tag_45\n      swap2\n      swap1\n      tag_46\n      jump\t// in\n    tag_45:\n      tag_47\n      jump\t// in\n    tag_44:\n      mload(0x40)\n      tag_48\n      swap3\n      swap2\n      swap1\n      tag_49\n      jump\t// in\n    tag_48:\n      mload(0x40)\n      dup1\n      swap2\n      sub\n      swap1\n      return\n        /* \"StatusLahan.sol\":1038:1067  string[] public daftarIdLahan */\n    tag_11:\n      tag_50\n      0x04\n      dup1\n      calldatasize\n      sub\n      dup2\n      add\n      swap1\n      tag_51\n      swap2\n      swap1\n      tag_52\n      jump\t// in\n    tag_51:\n      tag_53\n      jump\t// in\n    tag_50:\n      mload(0x40)\n      tag_54\n      swap2\n      swap1\n      tag_55\n      jump\t// in\n    tag_54:\n      mload(0x40)\n      dup1\n      swap2\n      sub\n      swap1\n      return\n        /* \"StatusLahan.sol\":5472:5579  function totalLahanTerdaftar() public view returns (uint256) {\r... */\n    tag_14:\n        /* \"StatusLahan.sol\":5524:5531  uint256 */\n      0x00\n        /* \"StatusLahan.sol\":5551:5564  daftarIdLahan */\n      0x03\n        /* \"StatusLahan.sol\":5551:5571  daftarIdLahan.length */\n      dup1\n      sload\n      swap1\n      pop\n        /* \"StatusLahan.sol\":5544:5571  return daftarIdLahan.length */\n      swap1\n      pop\n        /* \"StatusLahan.sol\":5472:5579  function totalLahanTerdaftar() public view returns (uint256) {\r... */\n      swap1\n      jump\t// out\n        /* \"StatusLahan.sol\":4034:4910  function lihatDataLahan(string memory _idLahan)\r... */\n    tag_20:\n        /* \"StatusLahan.sol\":4183:4208  string memory namaPemilik */\n      0x60\n        /* \"StatusLahan.sol\":4223:4243  string memory lokasi */\n      dup1\n        /* \"StatusLahan.sol\":4258:4278  string memory status */\n      0x60\n        /* \"StatusLahan.sol\":4293:4307  uint256 luasM2 */\n      0x00\n        /* \"StatusLahan.sol\":4322:4343  uint256 tanggalUpdate */\n      dup1\n        /* \"StatusLahan.sol\":4141:4149  _idLahan */\n      dup6\n        /* \"StatusLahan.sol\":2071:2080  dataLahan */\n      0x01\n        /* \"StatusLahan.sol\":2081:2089  _idLahan */\n      dup2\n        /* \"StatusLahan.sol\":2071:2090  dataLahan[_idLahan] */\n      mload(0x40)\n      tag_58\n      swap2\n      swap1\n      tag_59\n      jump\t// in\n    tag_58:\n      swap1\n      dup2\n      mstore\n      0x20\n      add\n      mload(0x40)\n      dup1\n      swap2\n      sub\n      swap1\n      keccak256\n        /* \"StatusLahan.sol\":2071:2100  dataLahan[_idLahan].terdaftar */\n      0x06\n      add\n      0x00\n      swap1\n      sload\n      swap1\n      0x0100\n      exp\n      swap1\n      div\n      0xff\n      and\n        /* \"StatusLahan.sol\":2063:2126  require(dataLahan[_idLahan].terdaftar, \"Lahan belum terdaftar\") */\n      tag_60\n      jumpi\n      mload(0x40)\n      0x08c379a000000000000000000000000000000000000000000000000000000000\n      dup2\n      mstore\n      0x04\n      add\n      tag_61\n      swap1\n      tag_62\n      jump\t// in\n    tag_61:\n      mload(0x40)\n      dup1\n      swap2\n      sub\n      swap1\n      revert\n    tag_60:\n        /* \"StatusLahan.sol\":4371:4393  DataLahan memory lahan */\n      0x00\n        /* \"StatusLahan.sol\":4396:4405  dataLahan */\n      0x01\n        /* \"StatusLahan.sol\":4406:4414  _idLahan */\n      dup9\n        /* \"StatusLahan.sol\":4396:4415  dataLahan[_idLahan] */\n      mload(0x40)\n      tag_64\n      swap2\n      swap1\n      tag_59\n      jump\t// in\n    tag_64:\n      swap1\n      dup2\n      mstore\n      0x20\n      add\n      mload(0x40)\n      dup1\n      swap2\n      sub\n      swap1\n      keccak256\n        /* \"StatusLahan.sol\":4371:4415  DataLahan memory lahan = dataLahan[_idLahan] */\n      mload(0x40)\n      dup1\n      0xe0\n      add\n      0x40\n      mstore\n      swap1\n      dup2\n      0x00\n      dup3\n      add\n      dup1\n      sload\n      tag_65\n      swap1\n      tag_66\n      jump\t// in\n    tag_65:\n      dup1\n      0x1f\n      add\n      0x20\n      dup1\n      swap2\n      div\n      mul\n      0x20\n      add\n      mload(0x40)\n      swap1\n      dup2\n      add\n      0x40\n      mstore\n      dup1\n      swap3\n      swap2\n      swap1\n      dup2\n      dup2\n      mstore\n      0x20\n      add\n      dup3\n      dup1\n      sload\n      tag_67\n      swap1\n      tag_66\n      jump\t// in\n    tag_67:\n      dup1\n      iszero\n      tag_68\n      jumpi\n      dup1\n      0x1f\n      lt\n      tag_69\n      jumpi\n      0x0100\n      dup1\n      dup4\n      sload\n      div\n      mul\n      dup4\n      mstore\n      swap2\n      0x20\n      add\n      swap2\n      jump(tag_68)\n    tag_69:\n      dup3\n      add\n      swap2\n      swap1\n      0x00\n      mstore\n      keccak256(0x00, 0x20)\n      swap1\n    tag_70:\n      dup2\n      sload\n      dup2\n      mstore\n      swap1\n      0x01\n      add\n      swap1\n      0x20\n      add\n      dup1\n      dup4\n      gt\n      tag_70\n      jumpi\n      dup3\n      swap1\n      sub\n      0x1f\n      and\n      dup3\n      add\n      swap2\n    tag_68:\n      pop\n      pop\n      pop\n      pop\n      pop\n      dup2\n      mstore\n      0x20\n      add\n      0x01\n      dup3\n      add\n      dup1\n      sload\n      tag_71\n      swap1\n      tag_66\n      jump\t// in\n    tag_71:\n      dup1\n      0x1f\n      add\n      0x20\n      dup1\n      swap2\n      div\n      mul\n      0x20\n      add\n      mload(0x40)\n      swap1\n      dup2\n      add\n      0x40\n      mstore\n      dup1\n      swap3\n      swap2\n      swap1\n      dup2\n      dup2\n      mstore\n      0x20\n      add\n      dup3\n      dup1\n      sload\n      tag_72\n      swap1\n      tag_66\n      jump\t// in\n    tag_72:\n      dup1\n      iszero\n      tag_73\n      jumpi\n      dup1\n      0x1f\n      lt\n      tag_74\n      jumpi\n      0x0100\n      dup1\n      dup4\n      sload\n      div\n      mul\n      dup4\n      mstore\n      swap2\n      0x20\n      add\n      swap2\n      jump(tag_73)\n    tag_74:\n      dup3\n      add\n      swap2\n      swap1\n      0x00\n      mstore\n      keccak256(0x00, 0x20)\n      swap1\n    tag_75:\n      dup2\n      sload\n      dup2\n      mstore\n      swap1\n      0x01\n      add\n      swap1\n      0x20\n      add\n      dup1\n      dup4\n      gt\n      tag_75\n      jumpi\n      dup3\n      swap1\n      sub\n      0x1f\n      and\n      dup3\n      add\n      swap2\n    tag_73:\n      pop\n      pop\n      pop\n      pop\n      pop\n      dup2\n      mstore\n      0x20\n      add\n      0x02\n      dup3\n      add\n      dup1\n      sload\n      tag_76\n      swap1\n      tag_66\n      jump\t// in\n    tag_76:\n      dup1\n      0x1f\n      add\n      0x20\n      dup1\n      swap2\n      div\n      mul\n      0x20\n      add\n      mload(0x40)\n      swap1\n      dup2\n      add\n      0x40\n      mstore\n      dup1\n      swap3\n      swap2\n      swap1\n      dup2\n      dup2\n      mstore\n      0x20\n      add\n      dup3\n      dup1\n      sload\n      tag_77\n      swap1\n      tag_66\n      jump\t// in\n    tag_77:\n      dup1\n      iszero\n      tag_78\n      jumpi\n      dup1\n      0x1f\n      lt\n      tag_79\n      jumpi\n      0x0100\n      dup1\n      dup4\n      sload\n      div\n      mul\n      dup4\n      mstore\n      swap2\n      0x20\n      add\n      swap2\n      jump(tag_78)\n    tag_79:\n      dup3\n      add\n      swap2\n      swap1\n      0x00\n      mstore\n      keccak256(0x00, 0x20)\n      swap1\n    tag_80:\n      dup2\n      sload\n      dup2\n      mstore\n      swap1\n      0x01\n      add\n      swap1\n      0x20\n      add\n      dup1\n      dup4\n      gt\n      tag_80\n      jumpi\n      dup3\n      swap1\n      sub\n      0x1f\n      and\n      dup3\n      add\n      swap2\n    tag_78:\n      pop\n      pop\n      pop\n      pop\n      pop\n      dup2\n      mstore\n      0x20\n      add\n      0x03\n      dup3\n      add\n      0x00\n      swap1\n      sload\n      swap1\n      0x0100\n      exp\n      swap1\n      div\n      0xff\n      and\n      0x02\n      dup2\n      gt\n      iszero\n      tag_81\n      jumpi\n      mstore(0x00, 0x4e487b7100000000000000000000000000000000000000000000000000000000)\n      mstore(0x04, 0x21)\n      revert(0x00, 0x24)\n    tag_81:\n      0x02\n      dup2\n      gt\n      iszero\n      tag_82\n      jumpi\n      mstore(0x00, 0x4e487b7100000000000000000000000000000000000000000000000000000000)\n      mstore(0x04, 0x21)\n      revert(0x00, 0x24)\n    tag_82:\n      dup2\n      mstore\n      0x20\n      add\n      0x04\n      dup3\n      add\n      sload\n      dup2\n      mstore\n      0x20\n      add\n      0x05\n      dup3\n      add\n      sload\n      dup2\n      mstore\n      0x20\n      add\n      0x06\n      dup3\n      add\n      0x00\n      swap1\n      sload\n      swap1\n      0x0100\n      exp\n      swap1\n      div\n      0xff\n      and\n      iszero\n      iszero\n      iszero\n      iszero\n      dup2\n      mstore\n      pop\n      pop\n      swap1\n      pop\n        /* \"StatusLahan.sol\":4428:4452  string memory namaStatus */\n      0x60\n        /* \"StatusLahan.sol\":4483:4508  StatusPenggunaan.Ditanami */\n      0x00\n        /* \"StatusLahan.sol\":4467:4508  lahan.status == StatusPenggunaan.Ditanami */\n      0x02\n      dup2\n      gt\n      iszero\n      tag_83\n      jumpi\n      mstore(0x00, 0x4e487b7100000000000000000000000000000000000000000000000000000000)\n      mstore(0x04, 0x21)\n      revert(0x00, 0x24)\n    tag_83:\n        /* \"StatusLahan.sol\":4467:4472  lahan */\n      dup3\n        /* \"StatusLahan.sol\":4467:4479  lahan.status */\n      0x60\n      add\n      mload\n        /* \"StatusLahan.sol\":4467:4508  lahan.status == StatusPenggunaan.Ditanami */\n      0x02\n      dup2\n      gt\n      iszero\n      tag_84\n      jumpi\n      mstore(0x00, 0x4e487b7100000000000000000000000000000000000000000000000000000000)\n      mstore(0x04, 0x21)\n      revert(0x00, 0x24)\n    tag_84:\n      eq\n        /* \"StatusLahan.sol\":4463:4727  if (lahan.status == StatusPenggunaan.Ditanami) {\r... */\n      iszero\n      tag_85\n      jumpi\n        /* \"StatusLahan.sol\":4525:4548  namaStatus = \"Ditanami\" */\n      mload(0x40)\n      dup1\n      0x40\n      add\n      0x40\n      mstore\n      dup1\n      0x08\n      dup2\n      mstore\n      0x20\n      add\n      0x446974616e616d69000000000000000000000000000000000000000000000000\n      dup2\n      mstore\n      pop\n      swap1\n      pop\n        /* \"StatusLahan.sol\":4463:4727  if (lahan.status == StatusPenggunaan.Ditanami) {\r... */\n      jump(tag_86)\n    tag_85:\n        /* \"StatusLahan.sol\":4586:4616  StatusPenggunaan.MasaIstirahat */\n      0x01\n        /* \"StatusLahan.sol\":4570:4616  lahan.status == StatusPenggunaan.MasaIstirahat */\n      0x02\n      dup2\n      gt\n      iszero\n      tag_87\n      jumpi\n      mstore(0x00, 0x4e487b7100000000000000000000000000000000000000000000000000000000)\n      mstore(0x04, 0x21)\n      revert(0x00, 0x24)\n    tag_87:\n        /* \"StatusLahan.sol\":4570:4575  lahan */\n      dup3\n        /* \"StatusLahan.sol\":4570:4582  lahan.status */\n      0x60\n      add\n      mload\n        /* \"StatusLahan.sol\":4570:4616  lahan.status == StatusPenggunaan.MasaIstirahat */\n      0x02\n      dup2\n      gt\n      iszero\n      tag_88\n      jumpi\n      mstore(0x00, 0x4e487b7100000000000000000000000000000000000000000000000000000000)\n      mstore(0x04, 0x21)\n      revert(0x00, 0x24)\n    tag_88:\n      eq\n        /* \"StatusLahan.sol\":4566:4727  if (lahan.status == StatusPenggunaan.MasaIstirahat) {\r... */\n      iszero\n      tag_89\n      jumpi\n        /* \"StatusLahan.sol\":4633:4662  namaStatus = \"Masa Istirahat\" */\n      mload(0x40)\n      dup1\n      0x40\n      add\n      0x40\n      mstore\n      dup1\n      0x0e\n      dup2\n      mstore\n      0x20\n      add\n      0x4d61736120497374697261686174000000000000000000000000000000000000\n      dup2\n      mstore\n      pop\n      swap1\n      pop\n        /* \"StatusLahan.sol\":4566:4727  if (lahan.status == StatusPenggunaan.MasaIstirahat) {\r... */\n      jump(tag_90)\n    tag_89:\n        /* \"StatusLahan.sol\":4695:4715  namaStatus = \"Panen\" */\n      mload(0x40)\n      dup1\n      0x40\n      add\n      0x40\n      mstore\n      dup1\n      0x05\n      dup2\n      mstore\n      0x20\n      add\n      0x50616e656e000000000000000000000000000000000000000000000000000000\n      dup2\n      mstore\n      pop\n      swap1\n      pop\n        /* \"StatusLahan.sol\":4566:4727  if (lahan.status == StatusPenggunaan.MasaIstirahat) {\r... */\n    tag_90:\n        /* \"StatusLahan.sol\":4463:4727  if (lahan.status == StatusPenggunaan.Ditanami) {\r... */\n    tag_86:\n        /* \"StatusLahan.sol\":4761:4766  lahan */\n      dup2\n        /* \"StatusLahan.sol\":4761:4778  lahan.namaPemilik */\n      0x20\n      add\n      mload\n        /* \"StatusLahan.sol\":4793:4798  lahan */\n      dup3\n        /* \"StatusLahan.sol\":4793:4805  lahan.lokasi */\n      0x40\n      add\n      mload\n        /* \"StatusLahan.sol\":4820:4830  namaStatus */\n      dup3\n        /* \"StatusLahan.sol\":4845:4850  lahan */\n      dup5\n        /* \"StatusLahan.sol\":4845:4857  lahan.luasM2 */\n      0x80\n      add\n      mload\n        /* \"StatusLahan.sol\":4872:4877  lahan */\n      dup6\n        /* \"StatusLahan.sol\":4872:4891  lahan.tanggalUpdate */\n      0xa0\n      add\n      mload\n        /* \"StatusLahan.sol\":4739:4902  return (\r... */\n      swap8\n      pop\n      swap8\n      pop\n      swap8\n      pop\n      swap8\n      pop\n      swap8\n      pop\n      pop\n      pop\n        /* \"StatusLahan.sol\":4034:4910  function lihatDataLahan(string memory _idLahan)\r... */\n      pop\n      swap2\n      swap4\n      swap6\n      swap1\n      swap3\n      swap5\n      pop\n      jump\t// out\n        /* \"StatusLahan.sol\":759:779  address public owner */\n    tag_24:\n      0x00\n      dup1\n      sload\n      swap1\n      0x0100\n      exp\n      swap1\n      div\n      0xffffffffffffffffffffffffffffffffffffffff\n      and\n      dup2\n      jump\t// out\n        /* \"StatusLahan.sol\":2531:3394  function daftarkanLahan(\r... */\n    tag_30:\n        /* \"StatusLahan.sol\":1802:1814  petugasResmi */\n      0x02\n        /* \"StatusLahan.sol\":1802:1826  petugasResmi[msg.sender] */\n      0x00\n        /* \"StatusLahan.sol\":1815:1825  msg.sender */\n      caller\n        /* \"StatusLahan.sol\":1802:1826  petugasResmi[msg.sender] */\n      0xffffffffffffffffffffffffffffffffffffffff\n      and\n      0xffffffffffffffffffffffffffffffffffffffff\n      and\n      dup2\n      mstore\n      0x20\n      add\n      swap1\n      dup2\n      mstore\n      0x20\n      add\n      0x00\n      keccak256\n      0x00\n      swap1\n      sload\n      swap1\n      0x0100\n      exp\n      swap1\n      div\n      0xff\n      and\n        /* \"StatusLahan.sol\":1802:1849  petugasResmi[msg.sender] || msg.sender == owner */\n      dup1\n      tag_92\n      jumpi\n      pop\n        /* \"StatusLahan.sol\":1844:1849  owner */\n      0x00\n      dup1\n      sload\n      swap1\n      0x0100\n      exp\n      swap1\n      div\n      0xffffffffffffffffffffffffffffffffffffffff\n      and\n        /* \"StatusLahan.sol\":1830:1849  msg.sender == owner */\n      0xffffffffffffffffffffffffffffffffffffffff\n      and\n        /* \"StatusLahan.sol\":1830:1840  msg.sender */\n      caller\n        /* \"StatusLahan.sol\":1830:1849  msg.sender == owner */\n      0xffffffffffffffffffffffffffffffffffffffff\n      and\n      eq\n        /* \"StatusLahan.sol\":1802:1849  petugasResmi[msg.sender] || msg.sender == owner */\n    tag_92:\n        /* \"StatusLahan.sol\":1780:1925  require(\r... */\n      tag_93\n      jumpi\n      mload(0x40)\n      0x08c379a000000000000000000000000000000000000000000000000000000000\n      dup2\n      mstore\n      0x04\n      add\n      tag_94\n      swap1\n      tag_95\n      jump\t// in\n    tag_94:\n      mload(0x40)\n      dup1\n      swap2\n      sub\n      swap1\n      revert\n    tag_93:\n        /* \"StatusLahan.sol\":2769:2778  dataLahan */\n      0x01\n        /* \"StatusLahan.sol\":2779:2787  _idLahan */\n      dup6\n        /* \"StatusLahan.sol\":2769:2788  dataLahan[_idLahan] */\n      mload(0x40)\n      tag_97\n      swap2\n      swap1\n      tag_59\n      jump\t// in\n    tag_97:\n      swap1\n      dup2\n      mstore\n      0x20\n      add\n      mload(0x40)\n      dup1\n      swap2\n      sub\n      swap1\n      keccak256\n        /* \"StatusLahan.sol\":2769:2798  dataLahan[_idLahan].terdaftar */\n      0x06\n      add\n      0x00\n      swap1\n      sload\n      swap1\n      0x0100\n      exp\n      swap1\n      div\n      0xff\n      and\n        /* \"StatusLahan.sol\":2768:2798  !dataLahan[_idLahan].terdaftar */\n      iszero\n        /* \"StatusLahan.sol\":2760:2824  require(!dataLahan[_idLahan].terdaftar, \"Lahan sudah terdaftar\") */\n      tag_98\n      jumpi\n      mload(0x40)\n      0x08c379a000000000000000000000000000000000000000000000000000000000\n      dup2\n      mstore\n      0x04\n      add\n      tag_99\n      swap1\n      tag_100\n      jump\t// in\n    tag_99:\n      mload(0x40)\n      dup1\n      swap2\n      sub\n      swap1\n      revert\n    tag_98:\n        /* \"StatusLahan.sol\":2868:2869  0 */\n      0x00\n        /* \"StatusLahan.sol\":2849:2857  _idLahan */\n      dup6\n        /* \"StatusLahan.sol\":2843:2865  bytes(_idLahan).length */\n      mload\n        /* \"StatusLahan.sol\":2843:2869  bytes(_idLahan).length > 0 */\n      gt\n        /* \"StatusLahan.sol\":2835:2901  require(bytes(_idLahan).length > 0, \"ID lahan tidak boleh kosong\") */\n      tag_101\n      jumpi\n      mload(0x40)\n      0x08c379a000000000000000000000000000000000000000000000000000000000\n      dup2\n      mstore\n      0x04\n      add\n      tag_102\n      swap1\n      tag_103\n      jump\t// in\n    tag_102:\n      mload(0x40)\n      dup1\n      swap2\n      sub\n      swap1\n      revert\n    tag_101:\n        /* \"StatusLahan.sol\":2930:2931  0 */\n      0x00\n        /* \"StatusLahan.sol\":2920:2927  _luasM2 */\n      dup3\n        /* \"StatusLahan.sol\":2920:2931  _luasM2 > 0 */\n      gt\n        /* \"StatusLahan.sol\":2912:2965  require(_luasM2 > 0, \"Luas lahan harus lebih dari 0\") */\n      tag_104\n      jumpi\n      mload(0x40)\n      0x08c379a000000000000000000000000000000000000000000000000000000000\n      dup2\n      mstore\n      0x04\n      add\n      tag_105\n      swap1\n      tag_106\n      jump\t// in\n    tag_105:\n      mload(0x40)\n      dup1\n      swap2\n      sub\n      swap1\n      revert\n    tag_104:\n        /* \"StatusLahan.sol\":3000:3263  DataLahan({\r... */\n      mload(0x40)\n      dup1\n      0xe0\n      add\n      0x40\n      mstore\n      dup1\n        /* \"StatusLahan.sol\":3034:3042  _idLahan */\n      dup7\n        /* \"StatusLahan.sol\":3000:3263  DataLahan({\r... */\n      dup2\n      mstore\n      0x20\n      add\n        /* \"StatusLahan.sol\":3070:3082  _namaPemilik */\n      dup6\n        /* \"StatusLahan.sol\":3000:3263  DataLahan({\r... */\n      dup2\n      mstore\n      0x20\n      add\n        /* \"StatusLahan.sol\":3105:3112  _lokasi */\n      dup5\n        /* \"StatusLahan.sol\":3000:3263  DataLahan({\r... */\n      dup2\n      mstore\n      0x20\n      add\n        /* \"StatusLahan.sol\":3135:3146  _statusAwal */\n      dup3\n        /* \"StatusLahan.sol\":3000:3263  DataLahan({\r... */\n      0x02\n      dup2\n      gt\n      iszero\n      tag_107\n      jumpi\n      mstore(0x00, 0x4e487b7100000000000000000000000000000000000000000000000000000000)\n      mstore(0x04, 0x21)\n      revert(0x00, 0x24)\n    tag_107:\n      dup2\n      mstore\n      0x20\n      add\n        /* \"StatusLahan.sol\":3169:3176  _luasM2 */\n      dup4\n        /* \"StatusLahan.sol\":3000:3263  DataLahan({\r... */\n      dup2\n      mstore\n      0x20\n      add\n        /* \"StatusLahan.sol\":3206:3221  block.timestamp */\n      timestamp\n        /* \"StatusLahan.sol\":3000:3263  DataLahan({\r... */\n      dup2\n      mstore\n      0x20\n      add\n        /* \"StatusLahan.sol\":3247:3251  true */\n      0x01\n        /* \"StatusLahan.sol\":3000:3263  DataLahan({\r... */\n      iszero\n      iszero\n      dup2\n      mstore\n      pop\n        /* \"StatusLahan.sol\":2978:2987  dataLahan */\n      0x01\n        /* \"StatusLahan.sol\":2988:2996  _idLahan */\n      dup7\n        /* \"StatusLahan.sol\":2978:2997  dataLahan[_idLahan] */\n      mload(0x40)\n      tag_108\n      swap2\n      swap1\n      tag_59\n      jump\t// in\n    tag_108:\n      swap1\n      dup2\n      mstore\n      0x20\n      add\n      mload(0x40)\n      dup1\n      swap2\n      sub\n      swap1\n      keccak256\n        /* \"StatusLahan.sol\":2978:3263  dataLahan[_idLahan] = DataLahan({\r... */\n      0x00\n      dup3\n      add\n      mload\n      dup2\n      0x00\n      add\n      swap1\n      dup1\n      mload\n      swap1\n      0x20\n      add\n      swap1\n      tag_109\n      swap3\n      swap2\n      swap1\n      tag_110\n      jump\t// in\n    tag_109:\n      pop\n      0x20\n      dup3\n      add\n      mload\n      dup2\n      0x01\n      add\n      swap1\n      dup1\n      mload\n      swap1\n      0x20\n      add\n      swap1\n      tag_111\n      swap3\n      swap2\n      swap1\n      tag_110\n      jump\t// in\n    tag_111:\n      pop\n      0x40\n      dup3\n      add\n      mload\n      dup2\n      0x02\n      add\n      swap1\n      dup1\n      mload\n      swap1\n      0x20\n      add\n      swap1\n      tag_112\n      swap3\n      swap2\n      swap1\n      tag_110\n      jump\t// in\n    tag_112:\n      pop\n      0x60\n      dup3\n      add\n      mload\n      dup2\n      0x03\n      add\n      exp(0x0100, 0x00)\n      dup2\n      sload\n      dup2\n      0xff\n      mul\n      not\n      and\n      swap1\n      dup4\n      0x02\n      dup2\n      gt\n      iszero\n      tag_113\n      jumpi\n      mstore(0x00, 0x4e487b7100000000000000000000000000000000000000000000000000000000)\n      mstore(0x04, 0x21)\n      revert(0x00, 0x24)\n    tag_113:\n      mul\n      or\n      swap1\n      sstore\n      pop\n      0x80\n      dup3\n      add\n      mload\n      dup2\n      0x04\n      add\n      sstore\n      0xa0\n      dup3\n      add\n      mload\n      dup2\n      0x05\n      add\n      sstore\n      0xc0\n      dup3\n      add\n      mload\n      dup2\n      0x06\n      add\n      exp(0x0100, 0x00)\n      dup2\n      sload\n      dup2\n      0xff\n      mul\n      not\n      and\n      swap1\n      dup4\n      iszero\n      iszero\n      mul\n      or\n      swap1\n      sstore\n      pop\n      swap1\n      pop\n      pop\n        /* \"StatusLahan.sol\":3276:3289  daftarIdLahan */\n      0x03\n        /* \"StatusLahan.sol\":3295:3303  _idLahan */\n      dup6\n        /* \"StatusLahan.sol\":3276:3304  daftarIdLahan.push(_idLahan) */\n      swap1\n      dup1\n      0x01\n      dup2\n      sload\n      add\n      dup1\n      dup3\n      sstore\n      dup1\n      swap2\n      pop\n      pop\n      0x01\n      swap1\n      sub\n      swap1\n      0x00\n      mstore\n      keccak256(0x00, 0x20)\n      add\n      0x00\n      swap1\n      swap2\n      swap1\n      swap2\n      swap1\n      swap2\n      pop\n      swap1\n      dup1\n      mload\n      swap1\n      0x20\n      add\n      swap1\n      tag_115\n      swap3\n      swap2\n      swap1\n      tag_110\n      jump\t// in\n    tag_115:\n      pop\n        /* \"StatusLahan.sol\":3337:3345  _idLahan */\n      dup5\n        /* \"StatusLahan.sol\":3322:3386  LahanTerdaftar(_idLahan, _namaPemilik, _lokasi, block.timestamp) */\n      mload(0x40)\n      tag_116\n      swap2\n      swap1\n      tag_59\n      jump\t// in\n    tag_116:\n      mload(0x40)\n      dup1\n      swap2\n      sub\n      swap1\n      keccak256\n      0x248be265075ca4023a11cdc505f645cec5959239041c8f6b00b536d35d1cf786\n        /* \"StatusLahan.sol\":3347:3359  _namaPemilik */\n      dup6\n        /* \"StatusLahan.sol\":3361:3368  _lokasi */\n      dup6\n        /* \"StatusLahan.sol\":3370:3385  block.timestamp */\n      timestamp\n        /* \"StatusLahan.sol\":3322:3386  LahanTerdaftar(_idLahan, _namaPemilik, _lokasi, block.timestamp) */\n      mload(0x40)\n      tag_117\n      swap4\n      swap3\n      swap2\n      swap1\n      tag_118\n      jump\t// in\n    tag_117:\n      mload(0x40)\n      dup1\n      swap2\n      sub\n      swap1\n      log2\n        /* \"StatusLahan.sol\":2531:3394  function daftarkanLahan(\r... */\n      pop\n      pop\n      pop\n      pop\n      pop\n      jump\t// out\n        /* \"StatusLahan.sol\":2316:2484  function tambahPetugas(address _petugas) public hanyaOwner {\r... */\n    tag_34:\n        /* \"StatusLahan.sol\":1623:1628  owner */\n      0x00\n      dup1\n      sload\n      swap1\n      0x0100\n      exp\n      swap1\n      div\n      0xffffffffffffffffffffffffffffffffffffffff\n      and\n        /* \"StatusLahan.sol\":1609:1628  msg.sender == owner */\n      0xffffffffffffffffffffffffffffffffffffffff\n      and\n        /* \"StatusLahan.sol\":1609:1619  msg.sender */\n      caller\n        /* \"StatusLahan.sol\":1609:1628  msg.sender == owner */\n      0xffffffffffffffffffffffffffffffffffffffff\n      and\n      eq\n        /* \"StatusLahan.sol\":1601:1668  require(msg.sender == owner, \"Hanya owner yang bisa melakukan ini\") */\n      tag_120\n      jumpi\n      mload(0x40)\n      0x08c379a000000000000000000000000000000000000000000000000000000000\n      dup2\n      mstore\n      0x04\n      add\n      tag_121\n      swap1\n      tag_122\n      jump\t// in\n    tag_121:\n      mload(0x40)\n      dup1\n      swap2\n      sub\n      swap1\n      revert\n    tag_120:\n        /* \"StatusLahan.sol\":2411:2415  true */\n      0x01\n        /* \"StatusLahan.sol\":2386:2398  petugasResmi */\n      0x02\n        /* \"StatusLahan.sol\":2386:2408  petugasResmi[_petugas] */\n      0x00\n        /* \"StatusLahan.sol\":2399:2407  _petugas */\n      dup4\n        /* \"StatusLahan.sol\":2386:2408  petugasResmi[_petugas] */\n      0xffffffffffffffffffffffffffffffffffffffff\n      and\n      0xffffffffffffffffffffffffffffffffffffffff\n      and\n      dup2\n      mstore\n      0x20\n      add\n      swap1\n      dup2\n      mstore\n      0x20\n      add\n      0x00\n      keccak256\n      0x00\n        /* \"StatusLahan.sol\":2386:2415  petugasResmi[_petugas] = true */\n      0x0100\n      exp\n      dup2\n      sload\n      dup2\n      0xff\n      mul\n      not\n      and\n      swap1\n      dup4\n      iszero\n      iszero\n      mul\n      or\n      swap1\n      sstore\n      pop\n        /* \"StatusLahan.sol\":2450:2458  _petugas */\n      dup1\n        /* \"StatusLahan.sol\":2431:2476  PetugasDitambahkan(_petugas, block.timestamp) */\n      0xffffffffffffffffffffffffffffffffffffffff\n      and\n      0x923dc47aed21628c576a993ba0632698e3a201055d5a1ca2b5cfea1362468fca\n        /* \"StatusLahan.sol\":2460:2475  block.timestamp */\n      timestamp\n        /* \"StatusLahan.sol\":2431:2476  PetugasDitambahkan(_petugas, block.timestamp) */\n      mload(0x40)\n      tag_124\n      swap2\n      swap1\n      tag_16\n      jump\t// in\n    tag_124:\n      mload(0x40)\n      dup1\n      swap2\n      sub\n      swap1\n      log2\n        /* \"StatusLahan.sol\":2316:2484  function tambahPetugas(address _petugas) public hanyaOwner {\r... */\n      pop\n      jump\t// out\n        /* \"StatusLahan.sol\":940:984  mapping(address => bool) public petugasResmi */\n    tag_37:\n      mstore(0x20, 0x02)\n      dup1\n      0x00\n      mstore\n      keccak256(0x00, 0x40)\n      0x00\n      swap2\n      pop\n      sload\n      swap1\n      0x0100\n      exp\n      swap1\n      div\n      0xff\n      and\n      dup2\n      jump\t// out\n        /* \"StatusLahan.sol\":3442:3959  function perbaruiStatus(\r... */\n    tag_43:\n        /* \"StatusLahan.sol\":1802:1814  petugasResmi */\n      0x02\n        /* \"StatusLahan.sol\":1802:1826  petugasResmi[msg.sender] */\n      0x00\n        /* \"StatusLahan.sol\":1815:1825  msg.sender */\n      caller\n        /* \"StatusLahan.sol\":1802:1826  petugasResmi[msg.sender] */\n      0xffffffffffffffffffffffffffffffffffffffff\n      and\n      0xffffffffffffffffffffffffffffffffffffffff\n      and\n      dup2\n      mstore\n      0x20\n      add\n      swap1\n      dup2\n      mstore\n      0x20\n      add\n      0x00\n      keccak256\n      0x00\n      swap1\n      sload\n      swap1\n      0x0100\n      exp\n      swap1\n      div\n      0xff\n      and\n        /* \"StatusLahan.sol\":1802:1849  petugasResmi[msg.sender] || msg.sender == owner */\n      dup1\n      tag_126\n      jumpi\n      pop\n        /* \"StatusLahan.sol\":1844:1849  owner */\n      0x00\n      dup1\n      sload\n      swap1\n      0x0100\n      exp\n      swap1\n      div\n      0xffffffffffffffffffffffffffffffffffffffff\n      and\n        /* \"StatusLahan.sol\":1830:1849  msg.sender == owner */\n      0xffffffffffffffffffffffffffffffffffffffff\n      and\n        /* \"StatusLahan.sol\":1830:1840  msg.sender */\n      caller\n        /* \"StatusLahan.sol\":1830:1849  msg.sender == owner */\n      0xffffffffffffffffffffffffffffffffffffffff\n      and\n      eq\n        /* \"StatusLahan.sol\":1802:1849  petugasResmi[msg.sender] || msg.sender == owner */\n    tag_126:\n        /* \"StatusLahan.sol\":1780:1925  require(\r... */\n      tag_127\n      jumpi\n      mload(0x40)\n      0x08c379a000000000000000000000000000000000000000000000000000000000\n      dup2\n      mstore\n      0x04\n      add\n      tag_128\n      swap1\n      tag_95\n      jump\t// in\n    tag_128:\n      mload(0x40)\n      dup1\n      swap2\n      sub\n      swap1\n      revert\n    tag_127:\n        /* \"StatusLahan.sol\":3585:3593  _idLahan */\n      dup2\n        /* \"StatusLahan.sol\":2071:2080  dataLahan */\n      0x01\n        /* \"StatusLahan.sol\":2081:2089  _idLahan */\n      dup2\n        /* \"StatusLahan.sol\":2071:2090  dataLahan[_idLahan] */\n      mload(0x40)\n      tag_130\n      swap2\n      swap1\n      tag_59\n      jump\t// in\n    tag_130:\n      swap1\n      dup2\n      mstore\n      0x20\n      add\n      mload(0x40)\n      dup1\n      swap2\n      sub\n      swap1\n      keccak256\n        /* \"StatusLahan.sol\":2071:2100  dataLahan[_idLahan].terdaftar */\n      0x06\n      add\n      0x00\n      swap1\n      sload\n      swap1\n      0x0100\n      exp\n      swap1\n      div\n      0xff\n      and\n        /* \"StatusLahan.sol\":2063:2126  require(dataLahan[_idLahan].terdaftar, \"Lahan belum terdaftar\") */\n      tag_131\n      jumpi\n      mload(0x40)\n      0x08c379a000000000000000000000000000000000000000000000000000000000\n      dup2\n      mstore\n      0x04\n      add\n      tag_132\n      swap1\n      tag_62\n      jump\t// in\n    tag_132:\n      mload(0x40)\n      dup1\n      swap2\n      sub\n      swap1\n      revert\n    tag_131:\n        /* \"StatusLahan.sol\":3608:3635  StatusPenggunaan statusLama */\n      0x00\n        /* \"StatusLahan.sol\":3638:3647  dataLahan */\n      0x01\n        /* \"StatusLahan.sol\":3648:3656  _idLahan */\n      dup5\n        /* \"StatusLahan.sol\":3638:3657  dataLahan[_idLahan] */\n      mload(0x40)\n      tag_134\n      swap2\n      swap1\n      tag_59\n      jump\t// in\n    tag_134:\n      swap1\n      dup2\n      mstore\n      0x20\n      add\n      mload(0x40)\n      dup1\n      swap2\n      sub\n      swap1\n      keccak256\n        /* \"StatusLahan.sol\":3638:3664  dataLahan[_idLahan].status */\n      0x03\n      add\n      0x00\n      swap1\n      sload\n      swap1\n      0x0100\n      exp\n      swap1\n      div\n      0xff\n      and\n        /* \"StatusLahan.sol\":3608:3664  StatusPenggunaan statusLama = dataLahan[_idLahan].status */\n      swap1\n      pop\n        /* \"StatusLahan.sol\":3704:3715  _statusBaru */\n      dup3\n        /* \"StatusLahan.sol\":3675:3684  dataLahan */\n      0x01\n        /* \"StatusLahan.sol\":3685:3693  _idLahan */\n      dup6\n        /* \"StatusLahan.sol\":3675:3694  dataLahan[_idLahan] */\n      mload(0x40)\n      tag_135\n      swap2\n      swap1\n      tag_59\n      jump\t// in\n    tag_135:\n      swap1\n      dup2\n      mstore\n      0x20\n      add\n      mload(0x40)\n      dup1\n      swap2\n      sub\n      swap1\n      keccak256\n        /* \"StatusLahan.sol\":3675:3701  dataLahan[_idLahan].status */\n      0x03\n      add\n      0x00\n        /* \"StatusLahan.sol\":3675:3715  dataLahan[_idLahan].status = _statusBaru */\n      0x0100\n      exp\n      dup2\n      sload\n      dup2\n      0xff\n      mul\n      not\n      and\n      swap1\n      dup4\n      0x02\n      dup2\n      gt\n      iszero\n      tag_136\n      jumpi\n      mstore(0x00, 0x4e487b7100000000000000000000000000000000000000000000000000000000)\n      mstore(0x04, 0x21)\n      revert(0x00, 0x24)\n    tag_136:\n      mul\n      or\n      swap1\n      sstore\n      pop\n        /* \"StatusLahan.sol\":3762:3777  block.timestamp */\n      timestamp\n        /* \"StatusLahan.sol\":3726:3735  dataLahan */\n      0x01\n        /* \"StatusLahan.sol\":3736:3744  _idLahan */\n      dup6\n        /* \"StatusLahan.sol\":3726:3745  dataLahan[_idLahan] */\n      mload(0x40)\n      tag_137\n      swap2\n      swap1\n      tag_59\n      jump\t// in\n    tag_137:\n      swap1\n      dup2\n      mstore\n      0x20\n      add\n      mload(0x40)\n      dup1\n      swap2\n      sub\n      swap1\n      keccak256\n        /* \"StatusLahan.sol\":3726:3759  dataLahan[_idLahan].tanggalUpdate */\n      0x05\n      add\n        /* \"StatusLahan.sol\":3726:3777  dataLahan[_idLahan].tanggalUpdate = block.timestamp */\n      dup2\n      swap1\n      sstore\n      pop\n        /* \"StatusLahan.sol\":3826:3834  _idLahan */\n      dup4\n        /* \"StatusLahan.sol\":3795:3951  StatusDiperbarui(\r... */\n      mload(0x40)\n      tag_138\n      swap2\n      swap1\n      tag_59\n      jump\t// in\n    tag_138:\n      mload(0x40)\n      dup1\n      swap2\n      sub\n      swap1\n      keccak256\n      0xf0e7bf213bb74a286b0fb9e029b060b211d4c6dde06cd6b8074e694aa867b3b5\n        /* \"StatusLahan.sol\":3849:3859  statusLama */\n      dup3\n        /* \"StatusLahan.sol\":3874:3885  _statusBaru */\n      dup6\n        /* \"StatusLahan.sol\":3900:3910  msg.sender */\n      caller\n        /* \"StatusLahan.sol\":3925:3940  block.timestamp */\n      timestamp\n        /* \"StatusLahan.sol\":3795:3951  StatusDiperbarui(\r... */\n      mload(0x40)\n      tag_139\n      swap5\n      swap4\n      swap3\n      swap2\n      swap1\n      tag_140\n      jump\t// in\n    tag_139:\n      mload(0x40)\n      dup1\n      swap2\n      sub\n      swap1\n      log2\n        /* \"StatusLahan.sol\":2137:2138  _ */\n      pop\n        /* \"StatusLahan.sol\":1936:1937  _ */\n      pop\n        /* \"StatusLahan.sol\":3442:3959  function perbaruiStatus(\r... */\n      pop\n      pop\n      jump\t// out\n        /* \"StatusLahan.sol\":4994:5408  function totalLahanPerStatus(StatusPenggunaan _status)\r... */\n    tag_47:\n        /* \"StatusLahan.sol\":5097:5117  uint256 jumlahBidang */\n      0x00\n        /* \"StatusLahan.sol\":5119:5138  uint256 totalLuasM2 */\n      dup1\n        /* \"StatusLahan.sol\":5161:5170  uint256 i */\n      0x00\n        /* \"StatusLahan.sol\":5156:5401  for (uint256 i = 0; i < daftarIdLahan.length; i++) {\r... */\n    tag_142:\n        /* \"StatusLahan.sol\":5180:5193  daftarIdLahan */\n      0x03\n        /* \"StatusLahan.sol\":5180:5200  daftarIdLahan.length */\n      dup1\n      sload\n      swap1\n      pop\n        /* \"StatusLahan.sol\":5176:5177  i */\n      dup2\n        /* \"StatusLahan.sol\":5176:5200  i < daftarIdLahan.length */\n      lt\n        /* \"StatusLahan.sol\":5156:5401  for (uint256 i = 0; i < daftarIdLahan.length; i++) {\r... */\n      iszero\n      tag_143\n      jumpi\n        /* \"StatusLahan.sol\":5264:5271  _status */\n      dup4\n        /* \"StatusLahan.sol\":5226:5271  dataLahan[daftarIdLahan[i]].status == _status */\n      0x02\n      dup2\n      gt\n      iszero\n      tag_145\n      jumpi\n      mstore(0x00, 0x4e487b7100000000000000000000000000000000000000000000000000000000)\n      mstore(0x04, 0x21)\n      revert(0x00, 0x24)\n    tag_145:\n        /* \"StatusLahan.sol\":5226:5235  dataLahan */\n      0x01\n        /* \"StatusLahan.sol\":5236:5249  daftarIdLahan */\n      0x03\n        /* \"StatusLahan.sol\":5250:5251  i */\n      dup4\n        /* \"StatusLahan.sol\":5236:5252  daftarIdLahan[i] */\n      dup2\n      sload\n      dup2\n      lt\n      tag_146\n      jumpi\n      mstore(0x00, 0x4e487b7100000000000000000000000000000000000000000000000000000000)\n      mstore(0x04, 0x32)\n      revert(0x00, 0x24)\n    tag_146:\n      swap1\n      0x00\n      mstore\n      keccak256(0x00, 0x20)\n      add\n        /* \"StatusLahan.sol\":5226:5253  dataLahan[daftarIdLahan[i]] */\n      mload(0x40)\n      tag_148\n      swap2\n      swap1\n      tag_149\n      jump\t// in\n    tag_148:\n      swap1\n      dup2\n      mstore\n      0x20\n      add\n      mload(0x40)\n      dup1\n      swap2\n      sub\n      swap1\n      keccak256\n        /* \"StatusLahan.sol\":5226:5260  dataLahan[daftarIdLahan[i]].status */\n      0x03\n      add\n      0x00\n      swap1\n      sload\n      swap1\n      0x0100\n      exp\n      swap1\n      div\n      0xff\n      and\n        /* \"StatusLahan.sol\":5226:5271  dataLahan[daftarIdLahan[i]].status == _status */\n      0x02\n      dup2\n      gt\n      iszero\n      tag_150\n      jumpi\n      mstore(0x00, 0x4e487b7100000000000000000000000000000000000000000000000000000000)\n      mstore(0x04, 0x21)\n      revert(0x00, 0x24)\n    tag_150:\n      eq\n        /* \"StatusLahan.sol\":5222:5390  if (dataLahan[daftarIdLahan[i]].status == _status) {\r... */\n      iszero\n      tag_151\n      jumpi\n        /* \"StatusLahan.sol\":5292:5306  jumlahBidang++ */\n      dup3\n      dup1\n      tag_152\n      swap1\n      tag_153\n      jump\t// in\n    tag_152:\n      swap4\n      pop\n      pop\n        /* \"StatusLahan.sol\":5340:5349  dataLahan */\n      0x01\n        /* \"StatusLahan.sol\":5350:5363  daftarIdLahan */\n      0x03\n        /* \"StatusLahan.sol\":5364:5365  i */\n      dup3\n        /* \"StatusLahan.sol\":5350:5366  daftarIdLahan[i] */\n      dup2\n      sload\n      dup2\n      lt\n      tag_154\n      jumpi\n      mstore(0x00, 0x4e487b7100000000000000000000000000000000000000000000000000000000)\n      mstore(0x04, 0x32)\n      revert(0x00, 0x24)\n    tag_154:\n      swap1\n      0x00\n      mstore\n      keccak256(0x00, 0x20)\n      add\n        /* \"StatusLahan.sol\":5340:5367  dataLahan[daftarIdLahan[i]] */\n      mload(0x40)\n      tag_156\n      swap2\n      swap1\n      tag_149\n      jump\t// in\n    tag_156:\n      swap1\n      dup2\n      mstore\n      0x20\n      add\n      mload(0x40)\n      dup1\n      swap2\n      sub\n      swap1\n      keccak256\n        /* \"StatusLahan.sol\":5340:5374  dataLahan[daftarIdLahan[i]].luasM2 */\n      0x04\n      add\n      sload\n        /* \"StatusLahan.sol\":5325:5374  totalLuasM2 += dataLahan[daftarIdLahan[i]].luasM2 */\n      dup3\n      tag_157\n      swap2\n      swap1\n      tag_158\n      jump\t// in\n    tag_157:\n      swap2\n      pop\n        /* \"StatusLahan.sol\":5222:5390  if (dataLahan[daftarIdLahan[i]].status == _status) {\r... */\n    tag_151:\n        /* \"StatusLahan.sol\":5202:5205  i++ */\n      dup1\n      dup1\n      tag_159\n      swap1\n      tag_153\n      jump\t// in\n    tag_159:\n      swap2\n      pop\n      pop\n        /* \"StatusLahan.sol\":5156:5401  for (uint256 i = 0; i < daftarIdLahan.length; i++) {\r... */\n      jump(tag_142)\n    tag_143:\n      pop\n        /* \"StatusLahan.sol\":4994:5408  function totalLahanPerStatus(StatusPenggunaan _status)\r... */\n      swap2\n      pop\n      swap2\n      jump\t// out\n        /* \"StatusLahan.sol\":1038:1067  string[] public daftarIdLahan */\n    tag_53:\n      0x03\n      dup2\n      dup2\n      sload\n      dup2\n      lt\n      tag_160\n      jumpi\n      0x00\n      dup1\n      revert\n    tag_160:\n      swap1\n      0x00\n      mstore\n      keccak256(0x00, 0x20)\n      add\n      0x00\n      swap2\n      pop\n      swap1\n      pop\n      dup1\n      sload\n      tag_162\n      swap1\n      tag_66\n      jump\t// in\n    tag_162:\n      dup1\n      0x1f\n      add\n      0x20\n      dup1\n      swap2\n      div\n      mul\n      0x20\n      add\n      mload(0x40)\n      swap1\n      dup2\n      add\n      0x40\n      mstore\n      dup1\n      swap3\n      swap2\n      swap1\n      dup2\n      dup2\n      mstore\n      0x20\n      add\n      dup3\n      dup1\n      sload\n      tag_163\n      swap1\n      tag_66\n      jump\t// in\n    tag_163:\n      dup1\n      iszero\n      tag_164\n      jumpi\n      dup1\n      0x1f\n      lt\n      tag_165\n      jumpi\n      0x0100\n      dup1\n      dup4\n      sload\n      div\n      mul\n      dup4\n      mstore\n      swap2\n      0x20\n      add\n      swap2\n      jump(tag_164)\n    tag_165:\n      dup3\n      add\n      swap2\n      swap1\n      0x00\n      mstore\n      keccak256(0x00, 0x20)\n      swap1\n    tag_166:\n      dup2\n      sload\n      dup2\n      mstore\n      swap1\n      0x01\n      add\n      swap1\n      0x20\n      add\n      dup1\n      dup4\n      gt\n      tag_166\n      jumpi\n      dup3\n      swap1\n      sub\n      0x1f\n      and\n      dup3\n      add\n      swap2\n    tag_164:\n      pop\n      pop\n      pop\n      pop\n      pop\n      dup2\n      jump\t// out\n    tag_110:\n      dup3\n      dup1\n      sload\n      tag_167\n      swap1\n      tag_66\n      jump\t// in\n    tag_167:\n      swap1\n      0x00\n      mstore\n      keccak256(0x00, 0x20)\n      swap1\n      0x1f\n      add\n      0x20\n      swap1\n      div\n      dup2\n      add\n      swap3\n      dup3\n      tag_169\n      jumpi\n      0x00\n      dup6\n      sstore\n      jump(tag_168)\n    tag_169:\n      dup3\n      0x1f\n      lt\n      tag_170\n      jumpi\n      dup1\n      mload\n      not(0xff)\n      and\n      dup4\n      dup1\n      add\n      or\n      dup6\n      sstore\n      jump(tag_168)\n    tag_170:\n      dup3\n      dup1\n      add\n      0x01\n      add\n      dup6\n      sstore\n      dup3\n      iszero\n      tag_168\n      jumpi\n      swap2\n      dup3\n      add\n    tag_171:\n      dup3\n      dup2\n      gt\n      iszero\n      tag_172\n      jumpi\n      dup3\n      mload\n      dup3\n      sstore\n      swap2\n      0x20\n      add\n      swap2\n      swap1\n      0x01\n      add\n      swap1\n      jump(tag_171)\n    tag_172:\n    tag_168:\n      pop\n      swap1\n      pop\n      tag_173\n      swap2\n      swap1\n      tag_174\n      jump\t// in\n    tag_173:\n      pop\n      swap1\n      jump\t// out\n    tag_174:\n    tag_175:\n      dup1\n      dup3\n      gt\n      iszero\n      tag_176\n      jumpi\n      0x00\n      dup2\n      0x00\n      swap1\n      sstore\n      pop\n      0x01\n      add\n      jump(tag_175)\n    tag_176:\n      pop\n      swap1\n      jump\t// out\n        /* \"#utility.yul\":7:351   */\n    tag_178:\n      0x00\n        /* \"#utility.yul\":110:175   */\n      tag_180\n        /* \"#utility.yul\":125:174   */\n      tag_181\n        /* \"#utility.yul\":167:173   */\n      dup5\n        /* \"#utility.yul\":125:174   */\n      tag_182\n      jump\t// in\n    tag_181:\n        /* \"#utility.yul\":110:175   */\n      tag_183\n      jump\t// in\n    tag_180:\n        /* \"#utility.yul\":101:175   */\n      swap1\n      pop\n        /* \"#utility.yul\":198:204   */\n      dup3\n        /* \"#utility.yul\":191:196   */\n      dup2\n        /* \"#utility.yul\":184:205   */\n      mstore\n        /* \"#utility.yul\":236:240   */\n      0x20\n        /* \"#utility.yul\":229:234   */\n      dup2\n        /* \"#utility.yul\":225:241   */\n      add\n        /* \"#utility.yul\":274:277   */\n      dup5\n        /* \"#utility.yul\":265:271   */\n      dup5\n        /* \"#utility.yul\":260:263   */\n      dup5\n        /* \"#utility.yul\":256:272   */\n      add\n        /* \"#utility.yul\":253:278   */\n      gt\n        /* \"#utility.yul\":250:252   */\n      iszero\n      tag_184\n      jumpi\n        /* \"#utility.yul\":291:292   */\n      0x00\n        /* \"#utility.yul\":288:289   */\n      dup1\n        /* \"#utility.yul\":281:293   */\n      revert\n        /* \"#utility.yul\":250:252   */\n    tag_184:\n        /* \"#utility.yul\":304:345   */\n      tag_185\n        /* \"#utility.yul\":338:344   */\n      dup5\n        /* \"#utility.yul\":333:336   */\n      dup3\n        /* \"#utility.yul\":328:331   */\n      dup6\n        /* \"#utility.yul\":304:345   */\n      tag_186\n      jump\t// in\n    tag_185:\n        /* \"#utility.yul\":91:351   */\n      pop\n      swap4\n      swap3\n      pop\n      pop\n      pop\n      jump\t// out\n        /* \"#utility.yul\":357:496   */\n    tag_187:\n      0x00\n        /* \"#utility.yul\":441:447   */\n      dup2\n        /* \"#utility.yul\":428:448   */\n      calldataload\n        /* \"#utility.yul\":419:448   */\n      swap1\n      pop\n        /* \"#utility.yul\":457:490   */\n      tag_189\n        /* \"#utility.yul\":484:489   */\n      dup2\n        /* \"#utility.yul\":457:490   */\n      tag_190\n      jump\t// in\n    tag_189:\n        /* \"#utility.yul\":409:496   */\n      swap3\n      swap2\n      pop\n      pop\n      jump\t// out\n        /* \"#utility.yul\":502:677   */\n    tag_191:\n      0x00\n        /* \"#utility.yul\":604:610   */\n      dup2\n        /* \"#utility.yul\":591:611   */\n      calldataload\n        /* \"#utility.yul\":582:611   */\n      swap1\n      pop\n        /* \"#utility.yul\":620:671   */\n      tag_193\n        /* \"#utility.yul\":665:670   */\n      dup2\n        /* \"#utility.yul\":620:671   */\n      tag_194\n      jump\t// in\n    tag_193:\n        /* \"#utility.yul\":572:677   */\n      swap3\n      swap2\n      pop\n      pop\n      jump\t// out\n        /* \"#utility.yul\":697:970   */\n    tag_195:\n      0x00\n        /* \"#utility.yul\":802:805   */\n      dup3\n        /* \"#utility.yul\":795:799   */\n      0x1f\n        /* \"#utility.yul\":787:793   */\n      dup4\n        /* \"#utility.yul\":783:800   */\n      add\n        /* \"#utility.yul\":779:806   */\n      slt\n        /* \"#utility.yul\":769:771   */\n      tag_197\n      jumpi\n        /* \"#utility.yul\":820:821   */\n      0x00\n        /* \"#utility.yul\":817:818   */\n      dup1\n        /* \"#utility.yul\":810:822   */\n      revert\n        /* \"#utility.yul\":769:771   */\n    tag_197:\n        /* \"#utility.yul\":860:866   */\n      dup2\n        /* \"#utility.yul\":847:867   */\n      calldataload\n        /* \"#utility.yul\":885:964   */\n      tag_198\n        /* \"#utility.yul\":960:963   */\n      dup5\n        /* \"#utility.yul\":952:958   */\n      dup3\n        /* \"#utility.yul\":945:949   */\n      0x20\n        /* \"#utility.yul\":937:943   */\n      dup7\n        /* \"#utility.yul\":933:950   */\n      add\n        /* \"#utility.yul\":885:964   */\n      tag_178\n      jump\t// in\n    tag_198:\n        /* \"#utility.yul\":876:964   */\n      swap2\n      pop\n        /* \"#utility.yul\":759:970   */\n      pop\n      swap3\n      swap2\n      pop\n      pop\n      jump\t// out\n        /* \"#utility.yul\":976:1115   */\n    tag_199:\n      0x00\n        /* \"#utility.yul\":1060:1066   */\n      dup2\n        /* \"#utility.yul\":1047:1067   */\n      calldataload\n        /* \"#utility.yul\":1038:1067   */\n      swap1\n      pop\n        /* \"#utility.yul\":1076:1109   */\n      tag_201\n        /* \"#utility.yul\":1103:1108   */\n      dup2\n        /* \"#utility.yul\":1076:1109   */\n      tag_202\n      jump\t// in\n    tag_201:\n        /* \"#utility.yul\":1028:1115   */\n      swap3\n      swap2\n      pop\n      pop\n      jump\t// out\n        /* \"#utility.yul\":1121:1383   */\n    tag_33:\n      0x00\n        /* \"#utility.yul\":1229:1231   */\n      0x20\n        /* \"#utility.yul\":1217:1226   */\n      dup3\n        /* \"#utility.yul\":1208:1215   */\n      dup5\n        /* \"#utility.yul\":1204:1227   */\n      sub\n        /* \"#utility.yul\":1200:1232   */\n      slt\n        /* \"#utility.yul\":1197:1199   */\n      iszero\n      tag_204\n      jumpi\n        /* \"#utility.yul\":1245:1246   */\n      0x00\n        /* \"#utility.yul\":1242:1243   */\n      dup1\n        /* \"#utility.yul\":1235:1247   */\n      revert\n        /* \"#utility.yul\":1197:1199   */\n    tag_204:\n        /* \"#utility.yul\":1288:1289   */\n      0x00\n        /* \"#utility.yul\":1313:1366   */\n      tag_205\n        /* \"#utility.yul\":1358:1365   */\n      dup5\n        /* \"#utility.yul\":1349:1355   */\n      dup3\n        /* \"#utility.yul\":1338:1347   */\n      dup6\n        /* \"#utility.yul\":1334:1356   */\n      add\n        /* \"#utility.yul\":1313:1366   */\n      tag_187\n      jump\t// in\n    tag_205:\n        /* \"#utility.yul\":1303:1366   */\n      swap2\n      pop\n        /* \"#utility.yul\":1259:1376   */\n      pop\n        /* \"#utility.yul\":1187:1383   */\n      swap3\n      swap2\n      pop\n      pop\n      jump\t// out\n        /* \"#utility.yul\":1389:1687   */\n    tag_46:\n      0x00\n        /* \"#utility.yul\":1515:1517   */\n      0x20\n        /* \"#utility.yul\":1503:1512   */\n      dup3\n        /* \"#utility.yul\":1494:1501   */\n      dup5\n        /* \"#utility.yul\":1490:1513   */\n      sub\n        /* \"#utility.yul\":1486:1518   */\n      slt\n        /* \"#utility.yul\":1483:1485   */\n      iszero\n      tag_207\n      jumpi\n        /* \"#utility.yul\":1531:1532   */\n      0x00\n        /* \"#utility.yul\":1528:1529   */\n      dup1\n        /* \"#utility.yul\":1521:1533   */\n      revert\n        /* \"#utility.yul\":1483:1485   */\n    tag_207:\n        /* \"#utility.yul\":1574:1575   */\n      0x00\n        /* \"#utility.yul\":1599:1670   */\n      tag_208\n        /* \"#utility.yul\":1662:1669   */\n      dup5\n        /* \"#utility.yul\":1653:1659   */\n      dup3\n        /* \"#utility.yul\":1642:1651   */\n      dup6\n        /* \"#utility.yul\":1638:1660   */\n      add\n        /* \"#utility.yul\":1599:1670   */\n      tag_191\n      jump\t// in\n    tag_208:\n        /* \"#utility.yul\":1589:1670   */\n      swap2\n      pop\n        /* \"#utility.yul\":1545:1680   */\n      pop\n        /* \"#utility.yul\":1473:1687   */\n      swap3\n      swap2\n      pop\n      pop\n      jump\t// out\n        /* \"#utility.yul\":1693:2068   */\n    tag_19:\n      0x00\n        /* \"#utility.yul\":1811:1813   */\n      0x20\n        /* \"#utility.yul\":1799:1808   */\n      dup3\n        /* \"#utility.yul\":1790:1797   */\n      dup5\n        /* \"#utility.yul\":1786:1809   */\n      sub\n        /* \"#utility.yul\":1782:1814   */\n      slt\n        /* \"#utility.yul\":1779:1781   */\n      iszero\n      tag_210\n      jumpi\n        /* \"#utility.yul\":1827:1828   */\n      0x00\n        /* \"#utility.yul\":1824:1825   */\n      dup1\n        /* \"#utility.yul\":1817:1829   */\n      revert\n        /* \"#utility.yul\":1779:1781   */\n    tag_210:\n        /* \"#utility.yul\":1898:1899   */\n      0x00\n        /* \"#utility.yul\":1887:1896   */\n      dup3\n        /* \"#utility.yul\":1883:1900   */\n      add\n        /* \"#utility.yul\":1870:1901   */\n      calldataload\n        /* \"#utility.yul\":1928:1946   */\n      0xffffffffffffffff\n        /* \"#utility.yul\":1920:1926   */\n      dup2\n        /* \"#utility.yul\":1917:1947   */\n      gt\n        /* \"#utility.yul\":1914:1916   */\n      iszero\n      tag_211\n      jumpi\n        /* \"#utility.yul\":1960:1961   */\n      0x00\n        /* \"#utility.yul\":1957:1958   */\n      dup1\n        /* \"#utility.yul\":1950:1962   */\n      revert\n        /* \"#utility.yul\":1914:1916   */\n    tag_211:\n        /* \"#utility.yul\":1988:2051   */\n      tag_212\n        /* \"#utility.yul\":2043:2050   */\n      dup5\n        /* \"#utility.yul\":2034:2040   */\n      dup3\n        /* \"#utility.yul\":2023:2032   */\n      dup6\n        /* \"#utility.yul\":2019:2041   */\n      add\n        /* \"#utility.yul\":1988:2051   */\n      tag_195\n      jump\t// in\n    tag_212:\n        /* \"#utility.yul\":1978:2051   */\n      swap2\n      pop\n        /* \"#utility.yul\":1841:2061   */\n      pop\n        /* \"#utility.yul\":1769:2068   */\n      swap3\n      swap2\n      pop\n      pop\n      jump\t// out\n        /* \"#utility.yul\":2074:2630   */\n    tag_42:\n      0x00\n      dup1\n        /* \"#utility.yul\":2227:2229   */\n      0x40\n        /* \"#utility.yul\":2215:2224   */\n      dup4\n        /* \"#utility.yul\":2206:2213   */\n      dup6\n        /* \"#utility.yul\":2202:2225   */\n      sub\n        /* \"#utility.yul\":2198:2230   */\n      slt\n        /* \"#utility.yul\":2195:2197   */\n      iszero\n      tag_214\n      jumpi\n        /* \"#utility.yul\":2243:2244   */\n      0x00\n        /* \"#utility.yul\":2240:2241   */\n      dup1\n        /* \"#utility.yul\":2233:2245   */\n      revert\n        /* \"#utility.yul\":2195:2197   */\n    tag_214:\n        /* \"#utility.yul\":2314:2315   */\n      0x00\n        /* \"#utility.yul\":2303:2312   */\n      dup4\n        /* \"#utility.yul\":2299:2316   */\n      add\n        /* \"#utility.yul\":2286:2317   */\n      calldataload\n        /* \"#utility.yul\":2344:2362   */\n      0xffffffffffffffff\n        /* \"#utility.yul\":2336:2342   */\n      dup2\n        /* \"#utility.yul\":2333:2363   */\n      gt\n        /* \"#utility.yul\":2330:2332   */\n      iszero\n      tag_215\n      jumpi\n        /* \"#utility.yul\":2376:2377   */\n      0x00\n        /* \"#utility.yul\":2373:2374   */\n      dup1\n        /* \"#utility.yul\":2366:2378   */\n      revert\n        /* \"#utility.yul\":2330:2332   */\n    tag_215:\n        /* \"#utility.yul\":2404:2467   */\n      tag_216\n        /* \"#utility.yul\":2459:2466   */\n      dup6\n        /* \"#utility.yul\":2450:2456   */\n      dup3\n        /* \"#utility.yul\":2439:2448   */\n      dup7\n        /* \"#utility.yul\":2435:2457   */\n      add\n        /* \"#utility.yul\":2404:2467   */\n      tag_195\n      jump\t// in\n    tag_216:\n        /* \"#utility.yul\":2394:2467   */\n      swap3\n      pop\n        /* \"#utility.yul\":2257:2477   */\n      pop\n        /* \"#utility.yul\":2516:2518   */\n      0x20\n        /* \"#utility.yul\":2542:2613   */\n      tag_217\n        /* \"#utility.yul\":2605:2612   */\n      dup6\n        /* \"#utility.yul\":2596:2602   */\n      dup3\n        /* \"#utility.yul\":2585:2594   */\n      dup7\n        /* \"#utility.yul\":2581:2603   */\n      add\n        /* \"#utility.yul\":2542:2613   */\n      tag_191\n      jump\t// in\n    tag_217:\n        /* \"#utility.yul\":2532:2613   */\n      swap2\n      pop\n        /* \"#utility.yul\":2487:2623   */\n      pop\n        /* \"#utility.yul\":2185:2630   */\n      swap3\n      pop\n      swap3\n      swap1\n      pop\n      jump\t// out\n        /* \"#utility.yul\":2636:3855   */\n    tag_29:\n      0x00\n      dup1\n      0x00\n      dup1\n      0x00\n        /* \"#utility.yul\":2860:2863   */\n      0xa0\n        /* \"#utility.yul\":2848:2857   */\n      dup7\n        /* \"#utility.yul\":2839:2846   */\n      dup9\n        /* \"#utility.yul\":2835:2858   */\n      sub\n        /* \"#utility.yul\":2831:2864   */\n      slt\n        /* \"#utility.yul\":2828:2830   */\n      iszero\n      tag_219\n      jumpi\n        /* \"#utility.yul\":2877:2878   */\n      0x00\n        /* \"#utility.yul\":2874:2875   */\n      dup1\n        /* \"#utility.yul\":2867:2879   */\n      revert\n        /* \"#utility.yul\":2828:2830   */\n    tag_219:\n        /* \"#utility.yul\":2948:2949   */\n      0x00\n        /* \"#utility.yul\":2937:2946   */\n      dup7\n        /* \"#utility.yul\":2933:2950   */\n      add\n        /* \"#utility.yul\":2920:2951   */\n      calldataload\n        /* \"#utility.yul\":2978:2996   */\n      0xffffffffffffffff\n        /* \"#utility.yul\":2970:2976   */\n      dup2\n        /* \"#utility.yul\":2967:2997   */\n      gt\n        /* \"#utility.yul\":2964:2966   */\n      iszero\n      tag_220\n      jumpi\n        /* \"#utility.yul\":3010:3011   */\n      0x00\n        /* \"#utility.yul\":3007:3008   */\n      dup1\n        /* \"#utility.yul\":3000:3012   */\n      revert\n        /* \"#utility.yul\":2964:2966   */\n    tag_220:\n        /* \"#utility.yul\":3038:3101   */\n      tag_221\n        /* \"#utility.yul\":3093:3100   */\n      dup9\n        /* \"#utility.yul\":3084:3090   */\n      dup3\n        /* \"#utility.yul\":3073:3082   */\n      dup10\n        /* \"#utility.yul\":3069:3091   */\n      add\n        /* \"#utility.yul\":3038:3101   */\n      tag_195\n      jump\t// in\n    tag_221:\n        /* \"#utility.yul\":3028:3101   */\n      swap6\n      pop\n        /* \"#utility.yul\":2891:3111   */\n      pop\n        /* \"#utility.yul\":3178:3180   */\n      0x20\n        /* \"#utility.yul\":3167:3176   */\n      dup7\n        /* \"#utility.yul\":3163:3181   */\n      add\n        /* \"#utility.yul\":3150:3182   */\n      calldataload\n        /* \"#utility.yul\":3209:3227   */\n      0xffffffffffffffff\n        /* \"#utility.yul\":3201:3207   */\n      dup2\n        /* \"#utility.yul\":3198:3228   */\n      gt\n        /* \"#utility.yul\":3195:3197   */\n      iszero\n      tag_222\n      jumpi\n        /* \"#utility.yul\":3241:3242   */\n      0x00\n        /* \"#utility.yul\":3238:3239   */\n      dup1\n        /* \"#utility.yul\":3231:3243   */\n      revert\n        /* \"#utility.yul\":3195:3197   */\n    tag_222:\n        /* \"#utility.yul\":3269:3332   */\n      tag_223\n        /* \"#utility.yul\":3324:3331   */\n      dup9\n        /* \"#utility.yul\":3315:3321   */\n      dup3\n        /* \"#utility.yul\":3304:3313   */\n      dup10\n        /* \"#utility.yul\":3300:3322   */\n      add\n        /* \"#utility.yul\":3269:3332   */\n      tag_195\n      jump\t// in\n    tag_223:\n        /* \"#utility.yul\":3259:3332   */\n      swap5\n      pop\n        /* \"#utility.yul\":3121:3342   */\n      pop\n        /* \"#utility.yul\":3409:3411   */\n      0x40\n        /* \"#utility.yul\":3398:3407   */\n      dup7\n        /* \"#utility.yul\":3394:3412   */\n      add\n        /* \"#utility.yul\":3381:3413   */\n      calldataload\n        /* \"#utility.yul\":3440:3458   */\n      0xffffffffffffffff\n        /* \"#utility.yul\":3432:3438   */\n      dup2\n        /* \"#utility.yul\":3429:3459   */\n      gt\n        /* \"#utility.yul\":3426:3428   */\n      iszero\n      tag_224\n      jumpi\n        /* \"#utility.yul\":3472:3473   */\n      0x00\n        /* \"#utility.yul\":3469:3470   */\n      dup1\n        /* \"#utility.yul\":3462:3474   */\n      revert\n        /* \"#utility.yul\":3426:3428   */\n    tag_224:\n        /* \"#utility.yul\":3500:3563   */\n      tag_225\n        /* \"#utility.yul\":3555:3562   */\n      dup9\n        /* \"#utility.yul\":3546:3552   */\n      dup3\n        /* \"#utility.yul\":3535:3544   */\n      dup10\n        /* \"#utility.yul\":3531:3553   */\n      add\n        /* \"#utility.yul\":3500:3563   */\n      tag_195\n      jump\t// in\n    tag_225:\n        /* \"#utility.yul\":3490:3563   */\n      swap4\n      pop\n        /* \"#utility.yul\":3352:3573   */\n      pop\n        /* \"#utility.yul\":3612:3614   */\n      0x60\n        /* \"#utility.yul\":3638:3691   */\n      tag_226\n        /* \"#utility.yul\":3683:3690   */\n      dup9\n        /* \"#utility.yul\":3674:3680   */\n      dup3\n        /* \"#utility.yul\":3663:3672   */\n      dup10\n        /* \"#utility.yul\":3659:3681   */\n      add\n        /* \"#utility.yul\":3638:3691   */\n      tag_199\n      jump\t// in\n    tag_226:\n        /* \"#utility.yul\":3628:3691   */\n      swap3\n      pop\n        /* \"#utility.yul\":3583:3701   */\n      pop\n        /* \"#utility.yul\":3740:3743   */\n      0x80\n        /* \"#utility.yul\":3767:3838   */\n      tag_227\n        /* \"#utility.yul\":3830:3837   */\n      dup9\n        /* \"#utility.yul\":3821:3827   */\n      dup3\n        /* \"#utility.yul\":3810:3819   */\n      dup10\n        /* \"#utility.yul\":3806:3828   */\n      add\n        /* \"#utility.yul\":3767:3838   */\n      tag_191\n      jump\t// in\n    tag_227:\n        /* \"#utility.yul\":3757:3838   */\n      swap2\n      pop\n        /* \"#utility.yul\":3711:3848   */\n      pop\n        /* \"#utility.yul\":2818:3855   */\n      swap3\n      swap6\n      pop\n      swap3\n      swap6\n      swap1\n      swap4\n      pop\n      jump\t// out\n        /* \"#utility.yul\":3861:4123   */\n    tag_52:\n      0x00\n        /* \"#utility.yul\":3969:3971   */\n      0x20\n        /* \"#utility.yul\":3957:3966   */\n      dup3\n        /* \"#utility.yul\":3948:3955   */\n      dup5\n        /* \"#utility.yul\":3944:3967   */\n      sub\n        /* \"#utility.yul\":3940:3972   */\n      slt\n        /* \"#utility.yul\":3937:3939   */\n      iszero\n      tag_229\n      jumpi\n        /* \"#utility.yul\":3985:3986   */\n      0x00\n        /* \"#utility.yul\":3982:3983   */\n      dup1\n        /* \"#utility.yul\":3975:3987   */\n      revert\n        /* \"#utility.yul\":3937:3939   */\n    tag_229:\n        /* \"#utility.yul\":4028:4029   */\n      0x00\n        /* \"#utility.yul\":4053:4106   */\n      tag_230\n        /* \"#utility.yul\":4098:4105   */\n      dup5\n        /* \"#utility.yul\":4089:4095   */\n      dup3\n        /* \"#utility.yul\":4078:4087   */\n      dup6\n        /* \"#utility.yul\":4074:4096   */\n      add\n        /* \"#utility.yul\":4053:4106   */\n      tag_199\n      jump\t// in\n    tag_230:\n        /* \"#utility.yul\":4043:4106   */\n      swap2\n      pop\n        /* \"#utility.yul\":3999:4116   */\n      pop\n        /* \"#utility.yul\":3927:4123   */\n      swap3\n      swap2\n      pop\n      pop\n      jump\t// out\n        /* \"#utility.yul\":4129:4247   */\n    tag_231:\n        /* \"#utility.yul\":4216:4240   */\n      tag_233\n        /* \"#utility.yul\":4234:4239   */\n      dup2\n        /* \"#utility.yul\":4216:4240   */\n      tag_234\n      jump\t// in\n    tag_233:\n        /* \"#utility.yul\":4211:4214   */\n      dup3\n        /* \"#utility.yul\":4204:4241   */\n      mstore\n        /* \"#utility.yul\":4194:4247   */\n      pop\n      pop\n      jump\t// out\n        /* \"#utility.yul\":4253:4362   */\n    tag_235:\n        /* \"#utility.yul\":4334:4355   */\n      tag_237\n        /* \"#utility.yul\":4349:4354   */\n      dup2\n        /* \"#utility.yul\":4334:4355   */\n      tag_238\n      jump\t// in\n    tag_237:\n        /* \"#utility.yul\":4329:4332   */\n      dup3\n        /* \"#utility.yul\":4322:4356   */\n      mstore\n        /* \"#utility.yul\":4312:4362   */\n      pop\n      pop\n      jump\t// out\n        /* \"#utility.yul\":4368:4531   */\n    tag_239:\n        /* \"#utility.yul\":4471:4524   */\n      tag_241\n        /* \"#utility.yul\":4518:4523   */\n      dup2\n        /* \"#utility.yul\":4471:4524   */\n      tag_242\n      jump\t// in\n    tag_241:\n        /* \"#utility.yul\":4466:4469   */\n      dup3\n        /* \"#utility.yul\":4459:4525   */\n      mstore\n        /* \"#utility.yul\":4449:4531   */\n      pop\n      pop\n      jump\t// out\n        /* \"#utility.yul\":4537:4901   */\n    tag_243:\n      0x00\n        /* \"#utility.yul\":4653:4692   */\n      tag_245\n        /* \"#utility.yul\":4686:4691   */\n      dup3\n        /* \"#utility.yul\":4653:4692   */\n      tag_246\n      jump\t// in\n    tag_245:\n        /* \"#utility.yul\":4708:4779   */\n      tag_247\n        /* \"#utility.yul\":4772:4778   */\n      dup2\n        /* \"#utility.yul\":4767:4770   */\n      dup6\n        /* \"#utility.yul\":4708:4779   */\n      tag_248\n      jump\t// in\n    tag_247:\n        /* \"#utility.yul\":4701:4779   */\n      swap4\n      pop\n        /* \"#utility.yul\":4788:4840   */\n      tag_249\n        /* \"#utility.yul\":4833:4839   */\n      dup2\n        /* \"#utility.yul\":4828:4831   */\n      dup6\n        /* \"#utility.yul\":4821:4825   */\n      0x20\n        /* \"#utility.yul\":4814:4819   */\n      dup7\n        /* \"#utility.yul\":4810:4826   */\n      add\n        /* \"#utility.yul\":4788:4840   */\n      tag_250\n      jump\t// in\n    tag_249:\n        /* \"#utility.yul\":4865:4894   */\n      tag_251\n        /* \"#utility.yul\":4887:4893   */\n      dup2\n        /* \"#utility.yul\":4865:4894   */\n      tag_252\n      jump\t// in\n    tag_251:\n        /* \"#utility.yul\":4860:4863   */\n      dup5\n        /* \"#utility.yul\":4856:4895   */\n      add\n        /* \"#utility.yul\":4849:4895   */\n      swap2\n      pop\n        /* \"#utility.yul\":4629:4901   */\n      pop\n      swap3\n      swap2\n      pop\n      pop\n      jump\t// out\n        /* \"#utility.yul\":4907:5284   */\n    tag_253:\n      0x00\n        /* \"#utility.yul\":5041:5080   */\n      tag_255\n        /* \"#utility.yul\":5074:5079   */\n      dup3\n        /* \"#utility.yul\":5041:5080   */\n      tag_246\n      jump\t// in\n    tag_255:\n        /* \"#utility.yul\":5096:5185   */\n      tag_256\n        /* \"#utility.yul\":5178:5184   */\n      dup2\n        /* \"#utility.yul\":5173:5176   */\n      dup6\n        /* \"#utility.yul\":5096:5185   */\n      tag_257\n      jump\t// in\n    tag_256:\n        /* \"#utility.yul\":5089:5185   */\n      swap4\n      pop\n        /* \"#utility.yul\":5194:5246   */\n      tag_258\n        /* \"#utility.yul\":5239:5245   */\n      dup2\n        /* \"#utility.yul\":5234:5237   */\n      dup6\n        /* \"#utility.yul\":5227:5231   */\n      0x20\n        /* \"#utility.yul\":5220:5225   */\n      dup7\n        /* \"#utility.yul\":5216:5232   */\n      add\n        /* \"#utility.yul\":5194:5246   */\n      tag_250\n      jump\t// in\n    tag_258:\n        /* \"#utility.yul\":5271:5277   */\n      dup1\n        /* \"#utility.yul\":5266:5269   */\n      dup5\n        /* \"#utility.yul\":5262:5278   */\n      add\n        /* \"#utility.yul\":5255:5278   */\n      swap2\n      pop\n        /* \"#utility.yul\":5017:5284   */\n      pop\n      swap3\n      swap2\n      pop\n      pop\n      jump\t// out\n        /* \"#utility.yul\":5314:6159   */\n    tag_259:\n      0x00\n        /* \"#utility.yul\":5454:5459   */\n      dup2\n        /* \"#utility.yul\":5448:5460   */\n      sload\n        /* \"#utility.yul\":5483:5519   */\n      tag_261\n        /* \"#utility.yul\":5509:5518   */\n      dup2\n        /* \"#utility.yul\":5483:5519   */\n      tag_66\n      jump\t// in\n    tag_261:\n        /* \"#utility.yul\":5535:5624   */\n      tag_262\n        /* \"#utility.yul\":5617:5623   */\n      dup2\n        /* \"#utility.yul\":5612:5615   */\n      dup7\n        /* \"#utility.yul\":5535:5624   */\n      tag_257\n      jump\t// in\n    tag_262:\n        /* \"#utility.yul\":5528:5624   */\n      swap5\n      pop\n        /* \"#utility.yul\":5655:5656   */\n      0x01\n        /* \"#utility.yul\":5644:5653   */\n      dup3\n        /* \"#utility.yul\":5640:5657   */\n      and\n        /* \"#utility.yul\":5671:5672   */\n      0x00\n        /* \"#utility.yul\":5666:5803   */\n      dup2\n      eq\n      tag_264\n      jumpi\n        /* \"#utility.yul\":5817:5818   */\n      0x01\n        /* \"#utility.yul\":5812:6153   */\n      dup2\n      eq\n      tag_265\n      jumpi\n        /* \"#utility.yul\":5633:6153   */\n      jump(tag_263)\n        /* \"#utility.yul\":5666:5803   */\n    tag_264:\n        /* \"#utility.yul\":5750:5754   */\n      0xff\n        /* \"#utility.yul\":5746:5755   */\n      not\n        /* \"#utility.yul\":5735:5744   */\n      dup4\n        /* \"#utility.yul\":5731:5756   */\n      and\n        /* \"#utility.yul\":5726:5729   */\n      dup7\n        /* \"#utility.yul\":5719:5757   */\n      mstore\n        /* \"#utility.yul\":5786:5792   */\n      dup2\n        /* \"#utility.yul\":5781:5784   */\n      dup7\n        /* \"#utility.yul\":5777:5793   */\n      add\n        /* \"#utility.yul\":5770:5793   */\n      swap4\n      pop\n        /* \"#utility.yul\":5666:5803   */\n      jump(tag_263)\n        /* \"#utility.yul\":5812:6153   */\n    tag_265:\n        /* \"#utility.yul\":5879:5917   */\n      tag_266\n        /* \"#utility.yul\":5911:5916   */\n      dup6\n        /* \"#utility.yul\":5879:5917   */\n      tag_267\n      jump\t// in\n    tag_266:\n        /* \"#utility.yul\":5939:5940   */\n      0x00\n        /* \"#utility.yul\":5953:6107   */\n    tag_268:\n        /* \"#utility.yul\":5967:5973   */\n      dup4\n        /* \"#utility.yul\":5964:5965   */\n      dup2\n        /* \"#utility.yul\":5961:5974   */\n      lt\n        /* \"#utility.yul\":5953:6107   */\n      iszero\n      tag_270\n      jumpi\n        /* \"#utility.yul\":6041:6048   */\n      dup2\n        /* \"#utility.yul\":6035:6049   */\n      sload\n        /* \"#utility.yul\":6031:6032   */\n      dup2\n        /* \"#utility.yul\":6026:6029   */\n      dup10\n        /* \"#utility.yul\":6022:6033   */\n      add\n        /* \"#utility.yul\":6015:6050   */\n      mstore\n        /* \"#utility.yul\":6091:6092   */\n      0x01\n        /* \"#utility.yul\":6082:6089   */\n      dup3\n        /* \"#utility.yul\":6078:6093   */\n      add\n        /* \"#utility.yul\":6067:6093   */\n      swap2\n      pop\n        /* \"#utility.yul\":5989:5993   */\n      0x20\n        /* \"#utility.yul\":5986:5987   */\n      dup2\n        /* \"#utility.yul\":5982:5994   */\n      add\n        /* \"#utility.yul\":5977:5994   */\n      swap1\n      pop\n        /* \"#utility.yul\":5953:6107   */\n      jump(tag_268)\n    tag_270:\n        /* \"#utility.yul\":6136:6142   */\n      dup4\n        /* \"#utility.yul\":6131:6134   */\n      dup9\n        /* \"#utility.yul\":6127:6143   */\n      add\n        /* \"#utility.yul\":6120:6143   */\n      swap6\n      pop\n        /* \"#utility.yul\":5819:6153   */\n      pop\n      pop\n        /* \"#utility.yul\":5633:6153   */\n    tag_263:\n      pop\n        /* \"#utility.yul\":5421:6159   */\n      pop\n      pop\n      swap3\n      swap2\n      pop\n      pop\n      jump\t// out\n        /* \"#utility.yul\":6165:6532   */\n    tag_271:\n      0x00\n        /* \"#utility.yul\":6328:6395   */\n      tag_273\n        /* \"#utility.yul\":6392:6394   */\n      0x23\n        /* \"#utility.yul\":6387:6390   */\n      dup4\n        /* \"#utility.yul\":6328:6395   */\n      tag_248\n      jump\t// in\n    tag_273:\n        /* \"#utility.yul\":6321:6395   */\n      swap2\n      pop\n        /* \"#utility.yul\":6425:6459   */\n      0x48616e7961206f776e65722079616e672062697361206d656c616b756b616e20\n        /* \"#utility.yul\":6421:6422   */\n      0x00\n        /* \"#utility.yul\":6416:6419   */\n      dup4\n        /* \"#utility.yul\":6412:6423   */\n      add\n        /* \"#utility.yul\":6405:6460   */\n      mstore\n        /* \"#utility.yul\":6491:6496   */\n      0x696e690000000000000000000000000000000000000000000000000000000000\n        /* \"#utility.yul\":6486:6488   */\n      0x20\n        /* \"#utility.yul\":6481:6484   */\n      dup4\n        /* \"#utility.yul\":6477:6489   */\n      add\n        /* \"#utility.yul\":6470:6497   */\n      mstore\n        /* \"#utility.yul\":6523:6525   */\n      0x40\n        /* \"#utility.yul\":6518:6521   */\n      dup3\n        /* \"#utility.yul\":6514:6526   */\n      add\n        /* \"#utility.yul\":6507:6526   */\n      swap1\n      pop\n        /* \"#utility.yul\":6311:6532   */\n      swap2\n      swap1\n      pop\n      jump\t// out\n        /* \"#utility.yul\":6538:6857   */\n    tag_274:\n      0x00\n        /* \"#utility.yul\":6701:6768   */\n      tag_276\n        /* \"#utility.yul\":6765:6767   */\n      0x15\n        /* \"#utility.yul\":6760:6763   */\n      dup4\n        /* \"#utility.yul\":6701:6768   */\n      tag_248\n      jump\t// in\n    tag_276:\n        /* \"#utility.yul\":6694:6768   */\n      swap2\n      pop\n        /* \"#utility.yul\":6798:6821   */\n      0x4c6168616e207375646168207465726461667461720000000000000000000000\n        /* \"#utility.yul\":6794:6795   */\n      0x00\n        /* \"#utility.yul\":6789:6792   */\n      dup4\n        /* \"#utility.yul\":6785:6796   */\n      add\n        /* \"#utility.yul\":6778:6822   */\n      mstore\n        /* \"#utility.yul\":6848:6850   */\n      0x20\n        /* \"#utility.yul\":6843:6846   */\n      dup3\n        /* \"#utility.yul\":6839:6851   */\n      add\n        /* \"#utility.yul\":6832:6851   */\n      swap1\n      pop\n        /* \"#utility.yul\":6684:6857   */\n      swap2\n      swap1\n      pop\n      jump\t// out\n        /* \"#utility.yul\":6863:7243   */\n    tag_277:\n      0x00\n        /* \"#utility.yul\":7026:7093   */\n      tag_279\n        /* \"#utility.yul\":7090:7092   */\n      0x30\n        /* \"#utility.yul\":7085:7088   */\n      dup4\n        /* \"#utility.yul\":7026:7093   */\n      tag_248\n      jump\t// in\n    tag_279:\n        /* \"#utility.yul\":7019:7093   */\n      swap2\n      pop\n        /* \"#utility.yul\":7123:7157   */\n      0x48616e79612070657475676173207265736d692079616e672062697361206d65\n        /* \"#utility.yul\":7119:7120   */\n      0x00\n        /* \"#utility.yul\":7114:7117   */\n      dup4\n        /* \"#utility.yul\":7110:7121   */\n      add\n        /* \"#utility.yul\":7103:7158   */\n      mstore\n        /* \"#utility.yul\":7189:7207   */\n      0x6d70657262617275692073746174757300000000000000000000000000000000\n        /* \"#utility.yul\":7184:7186   */\n      0x20\n        /* \"#utility.yul\":7179:7182   */\n      dup4\n        /* \"#utility.yul\":7175:7187   */\n      add\n        /* \"#utility.yul\":7168:7208   */\n      mstore\n        /* \"#utility.yul\":7234:7236   */\n      0x40\n        /* \"#utility.yul\":7229:7232   */\n      dup3\n        /* \"#utility.yul\":7225:7237   */\n      add\n        /* \"#utility.yul\":7218:7237   */\n      swap1\n      pop\n        /* \"#utility.yul\":7009:7243   */\n      swap2\n      swap1\n      pop\n      jump\t// out\n        /* \"#utility.yul\":7249:7568   */\n    tag_280:\n      0x00\n        /* \"#utility.yul\":7412:7479   */\n      tag_282\n        /* \"#utility.yul\":7476:7478   */\n      0x15\n        /* \"#utility.yul\":7471:7474   */\n      dup4\n        /* \"#utility.yul\":7412:7479   */\n      tag_248\n      jump\t// in\n    tag_282:\n        /* \"#utility.yul\":7405:7479   */\n      swap2\n      pop\n        /* \"#utility.yul\":7509:7532   */\n      0x4c6168616e2062656c756d207465726461667461720000000000000000000000\n        /* \"#utility.yul\":7505:7506   */\n      0x00\n        /* \"#utility.yul\":7500:7503   */\n      dup4\n        /* \"#utility.yul\":7496:7507   */\n      add\n        /* \"#utility.yul\":7489:7533   */\n      mstore\n        /* \"#utility.yul\":7559:7561   */\n      0x20\n        /* \"#utility.yul\":7554:7557   */\n      dup3\n        /* \"#utility.yul\":7550:7562   */\n      add\n        /* \"#utility.yul\":7543:7562   */\n      swap1\n      pop\n        /* \"#utility.yul\":7395:7568   */\n      swap2\n      swap1\n      pop\n      jump\t// out\n        /* \"#utility.yul\":7574:7901   */\n    tag_283:\n      0x00\n        /* \"#utility.yul\":7737:7804   */\n      tag_285\n        /* \"#utility.yul\":7801:7803   */\n      0x1d\n        /* \"#utility.yul\":7796:7799   */\n      dup4\n        /* \"#utility.yul\":7737:7804   */\n      tag_248\n      jump\t// in\n    tag_285:\n        /* \"#utility.yul\":7730:7804   */\n      swap2\n      pop\n        /* \"#utility.yul\":7834:7865   */\n      0x4c756173206c6168616e206861727573206c6562696820646172692030000000\n        /* \"#utility.yul\":7830:7831   */\n      0x00\n        /* \"#utility.yul\":7825:7828   */\n      dup4\n        /* \"#utility.yul\":7821:7832   */\n      add\n        /* \"#utility.yul\":7814:7866   */\n      mstore\n        /* \"#utility.yul\":7892:7894   */\n      0x20\n        /* \"#utility.yul\":7887:7890   */\n      dup3\n        /* \"#utility.yul\":7883:7895   */\n      add\n        /* \"#utility.yul\":7876:7895   */\n      swap1\n      pop\n        /* \"#utility.yul\":7720:7901   */\n      swap2\n      swap1\n      pop\n      jump\t// out\n        /* \"#utility.yul\":7907:8232   */\n    tag_286:\n      0x00\n        /* \"#utility.yul\":8070:8137   */\n      tag_288\n        /* \"#utility.yul\":8134:8136   */\n      0x1b\n        /* \"#utility.yul\":8129:8132   */\n      dup4\n        /* \"#utility.yul\":8070:8137   */\n      tag_248\n      jump\t// in\n    tag_288:\n        /* \"#utility.yul\":8063:8137   */\n      swap2\n      pop\n        /* \"#utility.yul\":8167:8196   */\n      0x4944206c6168616e20746964616b20626f6c6568206b6f736f6e670000000000\n        /* \"#utility.yul\":8163:8164   */\n      0x00\n        /* \"#utility.yul\":8158:8161   */\n      dup4\n        /* \"#utility.yul\":8154:8165   */\n      add\n        /* \"#utility.yul\":8147:8197   */\n      mstore\n        /* \"#utility.yul\":8223:8225   */\n      0x20\n        /* \"#utility.yul\":8218:8221   */\n      dup3\n        /* \"#utility.yul\":8214:8226   */\n      add\n        /* \"#utility.yul\":8207:8226   */\n      swap1\n      pop\n        /* \"#utility.yul\":8053:8232   */\n      swap2\n      swap1\n      pop\n      jump\t// out\n        /* \"#utility.yul\":8238:8356   */\n    tag_289:\n        /* \"#utility.yul\":8325:8349   */\n      tag_291\n        /* \"#utility.yul\":8343:8348   */\n      dup2\n        /* \"#utility.yul\":8325:8349   */\n      tag_292\n      jump\t// in\n    tag_291:\n        /* \"#utility.yul\":8320:8323   */\n      dup3\n        /* \"#utility.yul\":8313:8350   */\n      mstore\n        /* \"#utility.yul\":8303:8356   */\n      pop\n      pop\n      jump\t// out\n        /* \"#utility.yul\":8362:8637   */\n    tag_59:\n      0x00\n        /* \"#utility.yul\":8516:8611   */\n      tag_294\n        /* \"#utility.yul\":8607:8610   */\n      dup3\n        /* \"#utility.yul\":8598:8604   */\n      dup5\n        /* \"#utility.yul\":8516:8611   */\n      tag_253\n      jump\t// in\n    tag_294:\n        /* \"#utility.yul\":8509:8611   */\n      swap2\n      pop\n        /* \"#utility.yul\":8628:8631   */\n      dup2\n        /* \"#utility.yul\":8621:8631   */\n      swap1\n      pop\n        /* \"#utility.yul\":8498:8637   */\n      swap3\n      swap2\n      pop\n      pop\n      jump\t// out\n        /* \"#utility.yul\":8643:8912   */\n    tag_149:\n      0x00\n        /* \"#utility.yul\":8794:8886   */\n      tag_296\n        /* \"#utility.yul\":8882:8885   */\n      dup3\n        /* \"#utility.yul\":8873:8879   */\n      dup5\n        /* \"#utility.yul\":8794:8886   */\n      tag_259\n      jump\t// in\n    tag_296:\n        /* \"#utility.yul\":8787:8886   */\n      swap2\n      pop\n        /* \"#utility.yul\":8903:8906   */\n      dup2\n        /* \"#utility.yul\":8896:8906   */\n      swap1\n      pop\n        /* \"#utility.yul\":8776:8912   */\n      swap3\n      swap2\n      pop\n      pop\n      jump\t// out\n        /* \"#utility.yul\":8918:9140   */\n    tag_26:\n      0x00\n        /* \"#utility.yul\":9049:9051   */\n      0x20\n        /* \"#utility.yul\":9038:9047   */\n      dup3\n        /* \"#utility.yul\":9034:9052   */\n      add\n        /* \"#utility.yul\":9026:9052   */\n      swap1\n      pop\n        /* \"#utility.yul\":9062:9133   */\n      tag_298\n        /* \"#utility.yul\":9130:9131   */\n      0x00\n        /* \"#utility.yul\":9119:9128   */\n      dup4\n        /* \"#utility.yul\":9115:9132   */\n      add\n        /* \"#utility.yul\":9106:9112   */\n      dup5\n        /* \"#utility.yul\":9062:9133   */\n      tag_231\n      jump\t// in\n    tag_298:\n        /* \"#utility.yul\":9016:9140   */\n      swap3\n      swap2\n      pop\n      pop\n      jump\t// out\n        /* \"#utility.yul\":9146:9356   */\n    tag_39:\n      0x00\n        /* \"#utility.yul\":9271:9273   */\n      0x20\n        /* \"#utility.yul\":9260:9269   */\n      dup3\n        /* \"#utility.yul\":9256:9274   */\n      add\n        /* \"#utility.yul\":9248:9274   */\n      swap1\n      pop\n        /* \"#utility.yul\":9284:9349   */\n      tag_300\n        /* \"#utility.yul\":9346:9347   */\n      0x00\n        /* \"#utility.yul\":9335:9344   */\n      dup4\n        /* \"#utility.yul\":9331:9348   */\n      add\n        /* \"#utility.yul\":9322:9328   */\n      dup5\n        /* \"#utility.yul\":9284:9349   */\n      tag_235\n      jump\t// in\n    tag_300:\n        /* \"#utility.yul\":9238:9356   */\n      swap3\n      swap2\n      pop\n      pop\n      jump\t// out\n        /* \"#utility.yul\":9362:9979   */\n    tag_140:\n      0x00\n        /* \"#utility.yul\":9609:9612   */\n      0x80\n        /* \"#utility.yul\":9598:9607   */\n      dup3\n        /* \"#utility.yul\":9594:9613   */\n      add\n        /* \"#utility.yul\":9586:9613   */\n      swap1\n      pop\n        /* \"#utility.yul\":9623:9710   */\n      tag_302\n        /* \"#utility.yul\":9707:9708   */\n      0x00\n        /* \"#utility.yul\":9696:9705   */\n      dup4\n        /* \"#utility.yul\":9692:9709   */\n      add\n        /* \"#utility.yul\":9683:9689   */\n      dup8\n        /* \"#utility.yul\":9623:9710   */\n      tag_239\n      jump\t// in\n    tag_302:\n        /* \"#utility.yul\":9720:9808   */\n      tag_303\n        /* \"#utility.yul\":9804:9806   */\n      0x20\n        /* \"#utility.yul\":9793:9802   */\n      dup4\n        /* \"#utility.yul\":9789:9807   */\n      add\n        /* \"#utility.yul\":9780:9786   */\n      dup7\n        /* \"#utility.yul\":9720:9808   */\n      tag_239\n      jump\t// in\n    tag_303:\n        /* \"#utility.yul\":9818:9890   */\n      tag_304\n        /* \"#utility.yul\":9886:9888   */\n      0x40\n        /* \"#utility.yul\":9875:9884   */\n      dup4\n        /* \"#utility.yul\":9871:9889   */\n      add\n        /* \"#utility.yul\":9862:9868   */\n      dup6\n        /* \"#utility.yul\":9818:9890   */\n      tag_231\n      jump\t// in\n    tag_304:\n        /* \"#utility.yul\":9900:9972   */\n      tag_305\n        /* \"#utility.yul\":9968:9970   */\n      0x60\n        /* \"#utility.yul\":9957:9966   */\n      dup4\n        /* \"#utility.yul\":9953:9971   */\n      add\n        /* \"#utility.yul\":9944:9950   */\n      dup5\n        /* \"#utility.yul\":9900:9972   */\n      tag_289\n      jump\t// in\n    tag_305:\n        /* \"#utility.yul\":9576:9979   */\n      swap6\n      swap5\n      pop\n      pop\n      pop\n      pop\n      pop\n      jump\t// out\n        /* \"#utility.yul\":9985:10298   */\n    tag_55:\n      0x00\n        /* \"#utility.yul\":10136:10138   */\n      0x20\n        /* \"#utility.yul\":10125:10134   */\n      dup3\n        /* \"#utility.yul\":10121:10139   */\n      add\n        /* \"#utility.yul\":10113:10139   */\n      swap1\n      pop\n        /* \"#utility.yul\":10185:10194   */\n      dup2\n        /* \"#utility.yul\":10179:10183   */\n      dup2\n        /* \"#utility.yul\":10175:10195   */\n      sub\n        /* \"#utility.yul\":10171:10172   */\n      0x00\n        /* \"#utility.yul\":10160:10169   */\n      dup4\n        /* \"#utility.yul\":10156:10173   */\n      add\n        /* \"#utility.yul\":10149:10196   */\n      mstore\n        /* \"#utility.yul\":10213:10291   */\n      tag_307\n        /* \"#utility.yul\":10286:10290   */\n      dup2\n        /* \"#utility.yul\":10277:10283   */\n      dup5\n        /* \"#utility.yul\":10213:10291   */\n      tag_243\n      jump\t// in\n    tag_307:\n        /* \"#utility.yul\":10205:10291   */\n      swap1\n      pop\n        /* \"#utility.yul\":10103:10298   */\n      swap3\n      swap2\n      pop\n      pop\n      jump\t// out\n        /* \"#utility.yul\":10304:11241   */\n    tag_22:\n      0x00\n        /* \"#utility.yul\":10607:10610   */\n      0xa0\n        /* \"#utility.yul\":10596:10605   */\n      dup3\n        /* \"#utility.yul\":10592:10611   */\n      add\n        /* \"#utility.yul\":10584:10611   */\n      swap1\n      pop\n        /* \"#utility.yul\":10657:10666   */\n      dup2\n        /* \"#utility.yul\":10651:10655   */\n      dup2\n        /* \"#utility.yul\":10647:10667   */\n      sub\n        /* \"#utility.yul\":10643:10644   */\n      0x00\n        /* \"#utility.yul\":10632:10641   */\n      dup4\n        /* \"#utility.yul\":10628:10645   */\n      add\n        /* \"#utility.yul\":10621:10668   */\n      mstore\n        /* \"#utility.yul\":10685:10763   */\n      tag_309\n        /* \"#utility.yul\":10758:10762   */\n      dup2\n        /* \"#utility.yul\":10749:10755   */\n      dup9\n        /* \"#utility.yul\":10685:10763   */\n      tag_243\n      jump\t// in\n    tag_309:\n        /* \"#utility.yul\":10677:10763   */\n      swap1\n      pop\n        /* \"#utility.yul\":10810:10819   */\n      dup2\n        /* \"#utility.yul\":10804:10808   */\n      dup2\n        /* \"#utility.yul\":10800:10820   */\n      sub\n        /* \"#utility.yul\":10795:10797   */\n      0x20\n        /* \"#utility.yul\":10784:10793   */\n      dup4\n        /* \"#utility.yul\":10780:10798   */\n      add\n        /* \"#utility.yul\":10773:10821   */\n      mstore\n        /* \"#utility.yul\":10838:10916   */\n      tag_310\n        /* \"#utility.yul\":10911:10915   */\n      dup2\n        /* \"#utility.yul\":10902:10908   */\n      dup8\n        /* \"#utility.yul\":10838:10916   */\n      tag_243\n      jump\t// in\n    tag_310:\n        /* \"#utility.yul\":10830:10916   */\n      swap1\n      pop\n        /* \"#utility.yul\":10963:10972   */\n      dup2\n        /* \"#utility.yul\":10957:10961   */\n      dup2\n        /* \"#utility.yul\":10953:10973   */\n      sub\n        /* \"#utility.yul\":10948:10950   */\n      0x40\n        /* \"#utility.yul\":10937:10946   */\n      dup4\n        /* \"#utility.yul\":10933:10951   */\n      add\n        /* \"#utility.yul\":10926:10974   */\n      mstore\n        /* \"#utility.yul\":10991:11069   */\n      tag_311\n        /* \"#utility.yul\":11064:11068   */\n      dup2\n        /* \"#utility.yul\":11055:11061   */\n      dup7\n        /* \"#utility.yul\":10991:11069   */\n      tag_243\n      jump\t// in\n    tag_311:\n        /* \"#utility.yul\":10983:11069   */\n      swap1\n      pop\n        /* \"#utility.yul\":11079:11151   */\n      tag_312\n        /* \"#utility.yul\":11147:11149   */\n      0x60\n        /* \"#utility.yul\":11136:11145   */\n      dup4\n        /* \"#utility.yul\":11132:11150   */\n      add\n        /* \"#utility.yul\":11123:11129   */\n      dup6\n        /* \"#utility.yul\":11079:11151   */\n      tag_289\n      jump\t// in\n    tag_312:\n        /* \"#utility.yul\":11161:11234   */\n      tag_313\n        /* \"#utility.yul\":11229:11232   */\n      0x80\n        /* \"#utility.yul\":11218:11227   */\n      dup4\n        /* \"#utility.yul\":11214:11233   */\n      add\n        /* \"#utility.yul\":11205:11211   */\n      dup5\n        /* \"#utility.yul\":11161:11234   */\n      tag_289\n      jump\t// in\n    tag_313:\n        /* \"#utility.yul\":10574:11241   */\n      swap7\n      swap6\n      pop\n      pop\n      pop\n      pop\n      pop\n      pop\n      jump\t// out\n        /* \"#utility.yul\":11247:11871   */\n    tag_118:\n      0x00\n        /* \"#utility.yul\":11474:11476   */\n      0x60\n        /* \"#utility.yul\":11463:11472   */\n      dup3\n        /* \"#utility.yul\":11459:11477   */\n      add\n        /* \"#utility.yul\":11451:11477   */\n      swap1\n      pop\n        /* \"#utility.yul\":11523:11532   */\n      dup2\n        /* \"#utility.yul\":11517:11521   */\n      dup2\n        /* \"#utility.yul\":11513:11533   */\n      sub\n        /* \"#utility.yul\":11509:11510   */\n      0x00\n        /* \"#utility.yul\":11498:11507   */\n      dup4\n        /* \"#utility.yul\":11494:11511   */\n      add\n        /* \"#utility.yul\":11487:11534   */\n      mstore\n        /* \"#utility.yul\":11551:11629   */\n      tag_315\n        /* \"#utility.yul\":11624:11628   */\n      dup2\n        /* \"#utility.yul\":11615:11621   */\n      dup7\n        /* \"#utility.yul\":11551:11629   */\n      tag_243\n      jump\t// in\n    tag_315:\n        /* \"#utility.yul\":11543:11629   */\n      swap1\n      pop\n        /* \"#utility.yul\":11676:11685   */\n      dup2\n        /* \"#utility.yul\":11670:11674   */\n      dup2\n        /* \"#utility.yul\":11666:11686   */\n      sub\n        /* \"#utility.yul\":11661:11663   */\n      0x20\n        /* \"#utility.yul\":11650:11659   */\n      dup4\n        /* \"#utility.yul\":11646:11664   */\n      add\n        /* \"#utility.yul\":11639:11687   */\n      mstore\n        /* \"#utility.yul\":11704:11782   */\n      tag_316\n        /* \"#utility.yul\":11777:11781   */\n      dup2\n        /* \"#utility.yul\":11768:11774   */\n      dup6\n        /* \"#utility.yul\":11704:11782   */\n      tag_243\n      jump\t// in\n    tag_316:\n        /* \"#utility.yul\":11696:11782   */\n      swap1\n      pop\n        /* \"#utility.yul\":11792:11864   */\n      tag_317\n        /* \"#utility.yul\":11860:11862   */\n      0x40\n        /* \"#utility.yul\":11849:11858   */\n      dup4\n        /* \"#utility.yul\":11845:11863   */\n      add\n        /* \"#utility.yul\":11836:11842   */\n      dup5\n        /* \"#utility.yul\":11792:11864   */\n      tag_289\n      jump\t// in\n    tag_317:\n        /* \"#utility.yul\":11441:11871   */\n      swap5\n      swap4\n      pop\n      pop\n      pop\n      pop\n      jump\t// out\n        /* \"#utility.yul\":11877:12296   */\n    tag_122:\n      0x00\n        /* \"#utility.yul\":12081:12083   */\n      0x20\n        /* \"#utility.yul\":12070:12079   */\n      dup3\n        /* \"#utility.yul\":12066:12084   */\n      add\n        /* \"#utility.yul\":12058:12084   */\n      swap1\n      pop\n        /* \"#utility.yul\":12130:12139   */\n      dup2\n        /* \"#utility.yul\":12124:12128   */\n      dup2\n        /* \"#utility.yul\":12120:12140   */\n      sub\n        /* \"#utility.yul\":12116:12117   */\n      0x00\n        /* \"#utility.yul\":12105:12114   */\n      dup4\n        /* \"#utility.yul\":12101:12118   */\n      add\n        /* \"#utility.yul\":12094:12141   */\n      mstore\n        /* \"#utility.yul\":12158:12289   */\n      tag_319\n        /* \"#utility.yul\":12284:12288   */\n      dup2\n        /* \"#utility.yul\":12158:12289   */\n      tag_271\n      jump\t// in\n    tag_319:\n        /* \"#utility.yul\":12150:12289   */\n      swap1\n      pop\n        /* \"#utility.yul\":12048:12296   */\n      swap2\n      swap1\n      pop\n      jump\t// out\n        /* \"#utility.yul\":12302:12721   */\n    tag_100:\n      0x00\n        /* \"#utility.yul\":12506:12508   */\n      0x20\n        /* \"#utility.yul\":12495:12504   */\n      dup3\n        /* \"#utility.yul\":12491:12509   */\n      add\n        /* \"#utility.yul\":12483:12509   */\n      swap1\n      pop\n        /* \"#utility.yul\":12555:12564   */\n      dup2\n        /* \"#utility.yul\":12549:12553   */\n      dup2\n        /* \"#utility.yul\":12545:12565   */\n      sub\n        /* \"#utility.yul\":12541:12542   */\n      0x00\n        /* \"#utility.yul\":12530:12539   */\n      dup4\n        /* \"#utility.yul\":12526:12543   */\n      add\n        /* \"#utility.yul\":12519:12566   */\n      mstore\n        /* \"#utility.yul\":12583:12714   */\n      tag_321\n        /* \"#utility.yul\":12709:12713   */\n      dup2\n        /* \"#utility.yul\":12583:12714   */\n      tag_274\n      jump\t// in\n    tag_321:\n        /* \"#utility.yul\":12575:12714   */\n      swap1\n      pop\n        /* \"#utility.yul\":12473:12721   */\n      swap2\n      swap1\n      pop\n      jump\t// out\n        /* \"#utility.yul\":12727:13146   */\n    tag_95:\n      0x00\n        /* \"#utility.yul\":12931:12933   */\n      0x20\n        /* \"#utility.yul\":12920:12929   */\n      dup3\n        /* \"#utility.yul\":12916:12934   */\n      add\n        /* \"#utility.yul\":12908:12934   */\n      swap1\n      pop\n        /* \"#utility.yul\":12980:12989   */\n      dup2\n        /* \"#utility.yul\":12974:12978   */\n      dup2\n        /* \"#utility.yul\":12970:12990   */\n      sub\n        /* \"#utility.yul\":12966:12967   */\n      0x00\n        /* \"#utility.yul\":12955:12964   */\n      dup4\n        /* \"#utility.yul\":12951:12968   */\n      add\n        /* \"#utility.yul\":12944:12991   */\n      mstore\n        /* \"#utility.yul\":13008:13139   */\n      tag_323\n        /* \"#utility.yul\":13134:13138   */\n      dup2\n        /* \"#utility.yul\":13008:13139   */\n      tag_277\n      jump\t// in\n    tag_323:\n        /* \"#utility.yul\":13000:13139   */\n      swap1\n      pop\n        /* \"#utility.yul\":12898:13146   */\n      swap2\n      swap1\n      pop\n      jump\t// out\n        /* \"#utility.yul\":13152:13571   */\n    tag_62:\n      0x00\n        /* \"#utility.yul\":13356:13358   */\n      0x20\n        /* \"#utility.yul\":13345:13354   */\n      dup3\n        /* \"#utility.yul\":13341:13359   */\n      add\n        /* \"#utility.yul\":13333:13359   */\n      swap1\n      pop\n        /* \"#utility.yul\":13405:13414   */\n      dup2\n        /* \"#utility.yul\":13399:13403   */\n      dup2\n        /* \"#utility.yul\":13395:13415   */\n      sub\n        /* \"#utility.yul\":13391:13392   */\n      0x00\n        /* \"#utility.yul\":13380:13389   */\n      dup4\n        /* \"#utility.yul\":13376:13393   */\n      add\n        /* \"#utility.yul\":13369:13416   */\n      mstore\n        /* \"#utility.yul\":13433:13564   */\n      tag_325\n        /* \"#utility.yul\":13559:13563   */\n      dup2\n        /* \"#utility.yul\":13433:13564   */\n      tag_280\n      jump\t// in\n    tag_325:\n        /* \"#utility.yul\":13425:13564   */\n      swap1\n      pop\n        /* \"#utility.yul\":13323:13571   */\n      swap2\n      swap1\n      pop\n      jump\t// out\n        /* \"#utility.yul\":13577:13996   */\n    tag_106:\n      0x00\n        /* \"#utility.yul\":13781:13783   */\n      0x20\n        /* \"#utility.yul\":13770:13779   */\n      dup3\n        /* \"#utility.yul\":13766:13784   */\n      add\n        /* \"#utility.yul\":13758:13784   */\n      swap1\n      pop\n        /* \"#utility.yul\":13830:13839   */\n      dup2\n        /* \"#utility.yul\":13824:13828   */\n      dup2\n        /* \"#utility.yul\":13820:13840   */\n      sub\n        /* \"#utility.yul\":13816:13817   */\n      0x00\n        /* \"#utility.yul\":13805:13814   */\n      dup4\n        /* \"#utility.yul\":13801:13818   */\n      add\n        /* \"#utility.yul\":13794:13841   */\n      mstore\n        /* \"#utility.yul\":13858:13989   */\n      tag_327\n        /* \"#utility.yul\":13984:13988   */\n      dup2\n        /* \"#utility.yul\":13858:13989   */\n      tag_283\n      jump\t// in\n    tag_327:\n        /* \"#utility.yul\":13850:13989   */\n      swap1\n      pop\n        /* \"#utility.yul\":13748:13996   */\n      swap2\n      swap1\n      pop\n      jump\t// out\n        /* \"#utility.yul\":14002:14421   */\n    tag_103:\n      0x00\n        /* \"#utility.yul\":14206:14208   */\n      0x20\n        /* \"#utility.yul\":14195:14204   */\n      dup3\n        /* \"#utility.yul\":14191:14209   */\n      add\n        /* \"#utility.yul\":14183:14209   */\n      swap1\n      pop\n        /* \"#utility.yul\":14255:14264   */\n      dup2\n        /* \"#utility.yul\":14249:14253   */\n      dup2\n        /* \"#utility.yul\":14245:14265   */\n      sub\n        /* \"#utility.yul\":14241:14242   */\n      0x00\n        /* \"#utility.yul\":14230:14239   */\n      dup4\n        /* \"#utility.yul\":14226:14243   */\n      add\n        /* \"#utility.yul\":14219:14266   */\n      mstore\n        /* \"#utility.yul\":14283:14414   */\n      tag_329\n        /* \"#utility.yul\":14409:14413   */\n      dup2\n        /* \"#utility.yul\":14283:14414   */\n      tag_286\n      jump\t// in\n    tag_329:\n        /* \"#utility.yul\":14275:14414   */\n      swap1\n      pop\n        /* \"#utility.yul\":14173:14421   */\n      swap2\n      swap1\n      pop\n      jump\t// out\n        /* \"#utility.yul\":14427:14649   */\n    tag_16:\n      0x00\n        /* \"#utility.yul\":14558:14560   */\n      0x20\n        /* \"#utility.yul\":14547:14556   */\n      dup3\n        /* \"#utility.yul\":14543:14561   */\n      add\n        /* \"#utility.yul\":14535:14561   */\n      swap1\n      pop\n        /* \"#utility.yul\":14571:14642   */\n      tag_331\n        /* \"#utility.yul\":14639:14640   */\n      0x00\n        /* \"#utility.yul\":14628:14637   */\n      dup4\n        /* \"#utility.yul\":14624:14641   */\n      add\n        /* \"#utility.yul\":14615:14621   */\n      dup5\n        /* \"#utility.yul\":14571:14642   */\n      tag_289\n      jump\t// in\n    tag_331:\n        /* \"#utility.yul\":14525:14649   */\n      swap3\n      swap2\n      pop\n      pop\n      jump\t// out\n        /* \"#utility.yul\":14655:14987   */\n    tag_49:\n      0x00\n        /* \"#utility.yul\":14814:14816   */\n      0x40\n        /* \"#utility.yul\":14803:14812   */\n      dup3\n        /* \"#utility.yul\":14799:14817   */\n      add\n        /* \"#utility.yul\":14791:14817   */\n      swap1\n      pop\n        /* \"#utility.yul\":14827:14898   */\n      tag_333\n        /* \"#utility.yul\":14895:14896   */\n      0x00\n        /* \"#utility.yul\":14884:14893   */\n      dup4\n        /* \"#utility.yul\":14880:14897   */\n      add\n        /* \"#utility.yul\":14871:14877   */\n      dup6\n        /* \"#utility.yul\":14827:14898   */\n      tag_289\n      jump\t// in\n    tag_333:\n        /* \"#utility.yul\":14908:14980   */\n      tag_334\n        /* \"#utility.yul\":14976:14978   */\n      0x20\n        /* \"#utility.yul\":14965:14974   */\n      dup4\n        /* \"#utility.yul\":14961:14979   */\n      add\n        /* \"#utility.yul\":14952:14958   */\n      dup5\n        /* \"#utility.yul\":14908:14980   */\n      tag_289\n      jump\t// in\n    tag_334:\n        /* \"#utility.yul\":14781:14987   */\n      swap4\n      swap3\n      pop\n      pop\n      pop\n      jump\t// out\n        /* \"#utility.yul\":14993:15276   */\n    tag_183:\n      0x00\n        /* \"#utility.yul\":15059:15061   */\n      0x40\n        /* \"#utility.yul\":15053:15062   */\n      mload\n        /* \"#utility.yul\":15043:15062   */\n      swap1\n      pop\n        /* \"#utility.yul\":15101:15105   */\n      dup2\n        /* \"#utility.yul\":15093:15099   */\n      dup2\n        /* \"#utility.yul\":15089:15106   */\n      add\n        /* \"#utility.yul\":15208:15214   */\n      dup2\n        /* \"#utility.yul\":15196:15206   */\n      dup2\n        /* \"#utility.yul\":15193:15215   */\n      lt\n        /* \"#utility.yul\":15172:15190   */\n      0xffffffffffffffff\n        /* \"#utility.yul\":15160:15170   */\n      dup3\n        /* \"#utility.yul\":15157:15191   */\n      gt\n        /* \"#utility.yul\":15154:15216   */\n      or\n        /* \"#utility.yul\":15151:15153   */\n      iszero\n      tag_336\n      jumpi\n        /* \"#utility.yul\":15219:15237   */\n      tag_337\n      tag_338\n      jump\t// in\n    tag_337:\n        /* \"#utility.yul\":15151:15153   */\n    tag_336:\n        /* \"#utility.yul\":15259:15269   */\n      dup1\n        /* \"#utility.yul\":15255:15257   */\n      0x40\n        /* \"#utility.yul\":15248:15270   */\n      mstore\n        /* \"#utility.yul\":15033:15276   */\n      pop\n      swap2\n      swap1\n      pop\n      jump\t// out\n        /* \"#utility.yul\":15282:15614   */\n    tag_182:\n      0x00\n        /* \"#utility.yul\":15434:15452   */\n      0xffffffffffffffff\n        /* \"#utility.yul\":15426:15432   */\n      dup3\n        /* \"#utility.yul\":15423:15453   */\n      gt\n        /* \"#utility.yul\":15420:15422   */\n      iszero\n      tag_340\n      jumpi\n        /* \"#utility.yul\":15456:15474   */\n      tag_341\n      tag_338\n      jump\t// in\n    tag_341:\n        /* \"#utility.yul\":15420:15422   */\n    tag_340:\n        /* \"#utility.yul\":15541:15545   */\n      0x1f\n        /* \"#utility.yul\":15537:15546   */\n      not\n        /* \"#utility.yul\":15530:15534   */\n      0x1f\n        /* \"#utility.yul\":15522:15528   */\n      dup4\n        /* \"#utility.yul\":15518:15535   */\n      add\n        /* \"#utility.yul\":15514:15547   */\n      and\n        /* \"#utility.yul\":15506:15547   */\n      swap1\n      pop\n        /* \"#utility.yul\":15602:15606   */\n      0x20\n        /* \"#utility.yul\":15596:15600   */\n      dup2\n        /* \"#utility.yul\":15592:15607   */\n      add\n        /* \"#utility.yul\":15584:15607   */\n      swap1\n      pop\n        /* \"#utility.yul\":15349:15614   */\n      swap2\n      swap1\n      pop\n      jump\t// out\n        /* \"#utility.yul\":15620:15761   */\n    tag_267:\n      0x00\n        /* \"#utility.yul\":15692:15695   */\n      dup2\n        /* \"#utility.yul\":15684:15695   */\n      swap1\n      pop\n        /* \"#utility.yul\":15715:15718   */\n      dup2\n        /* \"#utility.yul\":15712:15713   */\n      0x00\n        /* \"#utility.yul\":15705:15719   */\n      mstore\n        /* \"#utility.yul\":15749:15753   */\n      0x20\n        /* \"#utility.yul\":15746:15747   */\n      0x00\n        /* \"#utility.yul\":15736:15754   */\n      keccak256\n        /* \"#utility.yul\":15728:15754   */\n      swap1\n      pop\n        /* \"#utility.yul\":15674:15761   */\n      swap2\n      swap1\n      pop\n      jump\t// out\n        /* \"#utility.yul\":15767:15866   */\n    tag_246:\n      0x00\n        /* \"#utility.yul\":15853:15858   */\n      dup2\n        /* \"#utility.yul\":15847:15859   */\n      mload\n        /* \"#utility.yul\":15837:15859   */\n      swap1\n      pop\n        /* \"#utility.yul\":15826:15866   */\n      swap2\n      swap1\n      pop\n      jump\t// out\n        /* \"#utility.yul\":15872:16041   */\n    tag_248:\n      0x00\n        /* \"#utility.yul\":15990:15996   */\n      dup3\n        /* \"#utility.yul\":15985:15988   */\n      dup3\n        /* \"#utility.yul\":15978:15997   */\n      mstore\n        /* \"#utility.yul\":16030:16034   */\n      0x20\n        /* \"#utility.yul\":16025:16028   */\n      dup3\n        /* \"#utility.yul\":16021:16035   */\n      add\n        /* \"#utility.yul\":16006:16035   */\n      swap1\n      pop\n        /* \"#utility.yul\":15968:16041   */\n      swap3\n      swap2\n      pop\n      pop\n      jump\t// out\n        /* \"#utility.yul\":16047:16195   */\n    tag_257:\n      0x00\n        /* \"#utility.yul\":16186:16189   */\n      dup2\n        /* \"#utility.yul\":16171:16189   */\n      swap1\n      pop\n        /* \"#utility.yul\":16161:16195   */\n      swap3\n      swap2\n      pop\n      pop\n      jump\t// out\n        /* \"#utility.yul\":16201:16506   */\n    tag_158:\n      0x00\n        /* \"#utility.yul\":16260:16280   */\n      tag_347\n        /* \"#utility.yul\":16278:16279   */\n      dup3\n        /* \"#utility.yul\":16260:16280   */\n      tag_292\n      jump\t// in\n    tag_347:\n        /* \"#utility.yul\":16255:16280   */\n      swap2\n      pop\n        /* \"#utility.yul\":16294:16314   */\n      tag_348\n        /* \"#utility.yul\":16312:16313   */\n      dup4\n        /* \"#utility.yul\":16294:16314   */\n      tag_292\n      jump\t// in\n    tag_348:\n        /* \"#utility.yul\":16289:16314   */\n      swap3\n      pop\n        /* \"#utility.yul\":16448:16449   */\n      dup3\n        /* \"#utility.yul\":16380:16446   */\n      0xffffffffffffffffffffffffffffffffffffffffffffffffffffffffffffffff\n        /* \"#utility.yul\":16376:16450   */\n      sub\n        /* \"#utility.yul\":16373:16374   */\n      dup3\n        /* \"#utility.yul\":16370:16451   */\n      gt\n        /* \"#utility.yul\":16367:16369   */\n      iszero\n      tag_349\n      jumpi\n        /* \"#utility.yul\":16454:16472   */\n      tag_350\n      tag_351\n      jump\t// in\n    tag_350:\n        /* \"#utility.yul\":16367:16369   */\n    tag_349:\n        /* \"#utility.yul\":16498:16499   */\n      dup3\n        /* \"#utility.yul\":16495:16496   */\n      dup3\n        /* \"#utility.yul\":16491:16500   */\n      add\n        /* \"#utility.yul\":16484:16500   */\n      swap1\n      pop\n        /* \"#utility.yul\":16245:16506   */\n      swap3\n      swap2\n      pop\n      pop\n      jump\t// out\n        /* \"#utility.yul\":16512:16608   */\n    tag_234:\n      0x00\n        /* \"#utility.yul\":16578:16602   */\n      tag_353\n        /* \"#utility.yul\":16596:16601   */\n      dup3\n        /* \"#utility.yul\":16578:16602   */\n      tag_354\n      jump\t// in\n    tag_353:\n        /* \"#utility.yul\":16567:16602   */\n      swap1\n      pop\n        /* \"#utility.yul\":16557:16608   */\n      swap2\n      swap1\n      pop\n      jump\t// out\n        /* \"#utility.yul\":16614:16704   */\n    tag_238:\n      0x00\n        /* \"#utility.yul\":16691:16696   */\n      dup2\n        /* \"#utility.yul\":16684:16697   */\n      iszero\n        /* \"#utility.yul\":16677:16698   */\n      iszero\n        /* \"#utility.yul\":16666:16698   */\n      swap1\n      pop\n        /* \"#utility.yul\":16656:16704   */\n      swap2\n      swap1\n      pop\n      jump\t// out\n        /* \"#utility.yul\":16710:16857   */\n    tag_356:\n      0x00\n        /* \"#utility.yul\":16794:16799   */\n      dup2\n        /* \"#utility.yul\":16783:16799   */\n      swap1\n      pop\n        /* \"#utility.yul\":16800:16851   */\n      tag_358\n        /* \"#utility.yul\":16845:16850   */\n      dup3\n        /* \"#utility.yul\":16800:16851   */\n      tag_359\n      jump\t// in\n    tag_358:\n        /* \"#utility.yul\":16773:16857   */\n      swap2\n      swap1\n      pop\n      jump\t// out\n        /* \"#utility.yul\":16863:16989   */\n    tag_354:\n      0x00\n        /* \"#utility.yul\":16940:16982   */\n      0xffffffffffffffffffffffffffffffffffffffff\n        /* \"#utility.yul\":16933:16938   */\n      dup3\n        /* \"#utility.yul\":16929:16983   */\n      and\n        /* \"#utility.yul\":16918:16983   */\n      swap1\n      pop\n        /* \"#utility.yul\":16908:16989   */\n      swap2\n      swap1\n      pop\n      jump\t// out\n        /* \"#utility.yul\":16995:17072   */\n    tag_292:\n      0x00\n        /* \"#utility.yul\":17061:17066   */\n      dup2\n        /* \"#utility.yul\":17050:17066   */\n      swap1\n      pop\n        /* \"#utility.yul\":17040:17072   */\n      swap2\n      swap1\n      pop\n      jump\t// out\n        /* \"#utility.yul\":17078:17225   */\n    tag_242:\n      0x00\n        /* \"#utility.yul\":17177:17219   */\n      tag_363\n        /* \"#utility.yul\":17213:17218   */\n      dup3\n        /* \"#utility.yul\":17177:17219   */\n      tag_356\n      jump\t// in\n    tag_363:\n        /* \"#utility.yul\":17164:17219   */\n      swap1\n      pop\n        /* \"#utility.yul\":17154:17225   */\n      swap2\n      swap1\n      pop\n      jump\t// out\n        /* \"#utility.yul\":17231:17385   */\n    tag_186:\n        /* \"#utility.yul\":17315:17321   */\n      dup3\n        /* \"#utility.yul\":17310:17313   */\n      dup2\n        /* \"#utility.yul\":17305:17308   */\n      dup4\n        /* \"#utility.yul\":17292:17322   */\n      calldatacopy\n        /* \"#utility.yul\":17377:17378   */\n      0x00\n        /* \"#utility.yul\":17368:17374   */\n      dup4\n        /* \"#utility.yul\":17363:17366   */\n      dup4\n        /* \"#utility.yul\":17359:17375   */\n      add\n        /* \"#utility.yul\":17352:17379   */\n      mstore\n        /* \"#utility.yul\":17282:17385   */\n      pop\n      pop\n      pop\n      jump\t// out\n        /* \"#utility.yul\":17391:17698   */\n    tag_250:\n        /* \"#utility.yul\":17459:17460   */\n      0x00\n        /* \"#utility.yul\":17469:17582   */\n    tag_366:\n        /* \"#utility.yul\":17483:17489   */\n      dup4\n        /* \"#utility.yul\":17480:17481   */\n      dup2\n        /* \"#utility.yul\":17477:17490   */\n      lt\n        /* \"#utility.yul\":17469:17582   */\n      iszero\n      tag_368\n      jumpi\n        /* \"#utility.yul\":17568:17569   */\n      dup1\n        /* \"#utility.yul\":17563:17566   */\n      dup3\n        /* \"#utility.yul\":17559:17570   */\n      add\n        /* \"#utility.yul\":17553:17571   */\n      mload\n        /* \"#utility.yul\":17549:17550   */\n      dup2\n        /* \"#utility.yul\":17544:17547   */\n      dup5\n        /* \"#utility.yul\":17540:17551   */\n      add\n        /* \"#utility.yul\":17533:17572   */\n      mstore\n        /* \"#utility.yul\":17505:17507   */\n      0x20\n        /* \"#utility.yul\":17502:17503   */\n      dup2\n        /* \"#utility.yul\":17498:17508   */\n      add\n        /* \"#utility.yul\":17493:17508   */\n      swap1\n      pop\n        /* \"#utility.yul\":17469:17582   */\n      jump(tag_366)\n    tag_368:\n        /* \"#utility.yul\":17600:17606   */\n      dup4\n        /* \"#utility.yul\":17597:17598   */\n      dup2\n        /* \"#utility.yul\":17594:17607   */\n      gt\n        /* \"#utility.yul\":17591:17593   */\n      iszero\n      tag_369\n      jumpi\n        /* \"#utility.yul\":17680:17681   */\n      0x00\n        /* \"#utility.yul\":17671:17677   */\n      dup5\n        /* \"#utility.yul\":17666:17669   */\n      dup5\n        /* \"#utility.yul\":17662:17678   */\n      add\n        /* \"#utility.yul\":17655:17682   */\n      mstore\n        /* \"#utility.yul\":17591:17593   */\n    tag_369:\n        /* \"#utility.yul\":17440:17698   */\n      pop\n      pop\n      pop\n      pop\n      jump\t// out\n        /* \"#utility.yul\":17704:18024   */\n    tag_66:\n      0x00\n        /* \"#utility.yul\":17785:17786   */\n      0x02\n        /* \"#utility.yul\":17779:17783   */\n      dup3\n        /* \"#utility.yul\":17775:17787   */\n      div\n        /* \"#utility.yul\":17765:17787   */\n      swap1\n      pop\n        /* \"#utility.yul\":17832:17833   */\n      0x01\n        /* \"#utility.yul\":17826:17830   */\n      dup3\n        /* \"#utility.yul\":17822:17834   */\n      and\n        /* \"#utility.yul\":17853:17871   */\n      dup1\n        /* \"#utility.yul\":17843:17845   */\n      tag_371\n      jumpi\n        /* \"#utility.yul\":17909:17913   */\n      0x7f\n        /* \"#utility.yul\":17901:17907   */\n      dup3\n        /* \"#utility.yul\":17897:17914   */\n      and\n        /* \"#utility.yul\":17887:17914   */\n      swap2\n      pop\n        /* \"#utility.yul\":17843:17845   */\n    tag_371:\n        /* \"#utility.yul\":17971:17973   */\n      0x20\n        /* \"#utility.yul\":17963:17969   */\n      dup3\n        /* \"#utility.yul\":17960:17974   */\n      lt\n        /* \"#utility.yul\":17940:17958   */\n      dup2\n        /* \"#utility.yul\":17937:17975   */\n      eq\n        /* \"#utility.yul\":17934:17936   */\n      iszero\n      tag_372\n      jumpi\n        /* \"#utility.yul\":17990:18008   */\n      tag_373\n      tag_374\n      jump\t// in\n    tag_373:\n        /* \"#utility.yul\":17934:17936   */\n    tag_372:\n        /* \"#utility.yul\":17755:18024   */\n      pop\n      swap2\n      swap1\n      pop\n      jump\t// out\n        /* \"#utility.yul\":18030:18263   */\n    tag_153:\n      0x00\n        /* \"#utility.yul\":18092:18116   */\n      tag_376\n        /* \"#utility.yul\":18110:18115   */\n      dup3\n        /* \"#utility.yul\":18092:18116   */\n      tag_292\n      jump\t// in\n    tag_376:\n        /* \"#utility.yul\":18083:18116   */\n      swap2\n      pop\n        /* \"#utility.yul\":18138:18204   */\n      0xffffffffffffffffffffffffffffffffffffffffffffffffffffffffffffffff\n        /* \"#utility.yul\":18131:18136   */\n      dup3\n        /* \"#utility.yul\":18128:18205   */\n      eq\n        /* \"#utility.yul\":18125:18127   */\n      iszero\n      tag_377\n      jumpi\n        /* \"#utility.yul\":18208:18226   */\n      tag_378\n      tag_351\n      jump\t// in\n    tag_378:\n        /* \"#utility.yul\":18125:18127   */\n    tag_377:\n        /* \"#utility.yul\":18255:18256   */\n      0x01\n        /* \"#utility.yul\":18248:18253   */\n      dup3\n        /* \"#utility.yul\":18244:18257   */\n      add\n        /* \"#utility.yul\":18237:18257   */\n      swap1\n      pop\n        /* \"#utility.yul\":18073:18263   */\n      swap2\n      swap1\n      pop\n      jump\t// out\n        /* \"#utility.yul\":18269:18449   */\n    tag_351:\n        /* \"#utility.yul\":18317:18394   */\n      0x4e487b7100000000000000000000000000000000000000000000000000000000\n        /* \"#utility.yul\":18314:18315   */\n      0x00\n        /* \"#utility.yul\":18307:18395   */\n      mstore\n        /* \"#utility.yul\":18414:18418   */\n      0x11\n        /* \"#utility.yul\":18411:18412   */\n      0x04\n        /* \"#utility.yul\":18404:18419   */\n      mstore\n        /* \"#utility.yul\":18438:18442   */\n      0x24\n        /* \"#utility.yul\":18435:18436   */\n      0x00\n        /* \"#utility.yul\":18428:18443   */\n      revert\n        /* \"#utility.yul\":18455:18635   */\n    tag_380:\n        /* \"#utility.yul\":18503:18580   */\n      0x4e487b7100000000000000000000000000000000000000000000000000000000\n        /* \"#utility.yul\":18500:18501   */\n      0x00\n        /* \"#utility.yul\":18493:18581   */\n      mstore\n        /* \"#utility.yul\":18600:18604   */\n      0x21\n        /* \"#utility.yul\":18597:18598   */\n      0x04\n        /* \"#utility.yul\":18590:18605   */\n      mstore\n        /* \"#utility.yul\":18624:18628   */\n      0x24\n        /* \"#utility.yul\":18621:18622   */\n      0x00\n        /* \"#utility.yul\":18614:18629   */\n      revert\n        /* \"#utility.yul\":18641:18821   */\n    tag_374:\n        /* \"#utility.yul\":18689:18766   */\n      0x4e487b7100000000000000000000000000000000000000000000000000000000\n        /* \"#utility.yul\":18686:18687   */\n      0x00\n        /* \"#utility.yul\":18679:18767   */\n      mstore\n        /* \"#utility.yul\":18786:18790   */\n      0x22\n        /* \"#utility.yul\":18783:18784   */\n      0x04\n        /* \"#utility.yul\":18776:18791   */\n      mstore\n        /* \"#utility.yul\":18810:18814   */\n      0x24\n        /* \"#utility.yul\":18807:18808   */\n      0x00\n        /* \"#utility.yul\":18800:18815   */\n      revert\n        /* \"#utility.yul\":18827:19007   */\n    tag_338:\n        /* \"#utility.yul\":18875:18952   */\n      0x4e487b7100000000000000000000000000000000000000000000000000000000\n        /* \"#utility.yul\":18872:18873   */\n      0x00\n        /* \"#utility.yul\":18865:18953   */\n      mstore\n        /* \"#utility.yul\":18972:18976   */\n      0x41\n        /* \"#utility.yul\":18969:18970   */\n      0x04\n        /* \"#utility.yul\":18962:18977   */\n      mstore\n        /* \"#utility.yul\":18996:19000   */\n      0x24\n        /* \"#utility.yul\":18993:18994   */\n      0x00\n        /* \"#utility.yul\":18986:19001   */\n      revert\n        /* \"#utility.yul\":19013:19115   */\n    tag_252:\n      0x00\n        /* \"#utility.yul\":19105:19107   */\n      0x1f\n        /* \"#utility.yul\":19101:19108   */\n      not\n        /* \"#utility.yul\":19096:19098   */\n      0x1f\n        /* \"#utility.yul\":19089:19094   */\n      dup4\n        /* \"#utility.yul\":19085:19099   */\n      add\n        /* \"#utility.yul\":19081:19109   */\n      and\n        /* \"#utility.yul\":19071:19109   */\n      swap1\n      pop\n        /* \"#utility.yul\":19061:19115   */\n      swap2\n      swap1\n      pop\n      jump\t// out\n        /* \"#utility.yul\":19121:19244   */\n    tag_359:\n        /* \"#utility.yul\":19212:19213   */\n      0x03\n        /* \"#utility.yul\":19205:19210   */\n      dup2\n        /* \"#utility.yul\":19202:19214   */\n      lt\n        /* \"#utility.yul\":19192:19194   */\n      tag_386\n      jumpi\n        /* \"#utility.yul\":19218:19236   */\n      tag_387\n      tag_380\n      jump\t// in\n    tag_387:\n        /* \"#utility.yul\":19192:19194   */\n    tag_386:\n        /* \"#utility.yul\":19182:19244   */\n      pop\n      jump\t// out\n        /* \"#utility.yul\":19250:19372   */\n    tag_190:\n        /* \"#utility.yul\":19323:19347   */\n      tag_389\n        /* \"#utility.yul\":19341:19346   */\n      dup2\n        /* \"#utility.yul\":19323:19347   */\n      tag_234\n      jump\t// in\n    tag_389:\n        /* \"#utility.yul\":19316:19321   */\n      dup2\n        /* \"#utility.yul\":19313:19348   */\n      eq\n        /* \"#utility.yul\":19303:19305   */\n      tag_390\n      jumpi\n        /* \"#utility.yul\":19362:19363   */\n      0x00\n        /* \"#utility.yul\":19359:19360   */\n      dup1\n        /* \"#utility.yul\":19352:19364   */\n      revert\n        /* \"#utility.yul\":19303:19305   */\n    tag_390:\n        /* \"#utility.yul\":19293:19372   */\n      pop\n      jump\t// out\n        /* \"#utility.yul\":19378:19495   */\n    tag_194:\n        /* \"#utility.yul\":19469:19470   */\n      0x03\n        /* \"#utility.yul\":19462:19467   */\n      dup2\n        /* \"#utility.yul\":19459:19471   */\n      lt\n        /* \"#utility.yul\":19449:19451   */\n      tag_392\n      jumpi\n        /* \"#utility.yul\":19485:19486   */\n      0x00\n        /* \"#utility.yul\":19482:19483   */\n      dup1\n        /* \"#utility.yul\":19475:19487   */\n      revert\n        /* \"#utility.yul\":19449:19451   */\n    tag_392:\n        /* \"#utility.yul\":19439:19495   */\n      pop\n      jump\t// out\n        /* \"#utility.yul\":19501:19623   */\n    tag_202:\n        /* \"#utility.yul\":19574:19598   */\n      tag_394\n        /* \"#utility.yul\":19592:19597   */\n      dup2\n        /* \"#utility.yul\":19574:19598   */\n      tag_292\n      jump\t// in\n    tag_394:\n        /* \"#utility.yul\":19567:19572   */\n      dup2\n        /* \"#utility.yul\":19564:19599   */\n      eq\n        /* \"#utility.yul\":19554:19556   */\n      tag_395\n      jumpi\n        /* \"#utility.yul\":19613:19614   */\n      0x00\n        /* \"#utility.yul\":19610:19611   */\n      dup1\n        /* \"#utility.yul\":19603:19615   */\n      revert\n        /* \"#utility.yul\":19554:19556   */\n    tag_395:\n        /* \"#utility.yul\":19544:19623   */\n      pop\n      jump\t// out\n\n    auxdata: 0xa2646970667358221220bf69f5f901a63e40baa0f219187922273dccde1a8488492b49eb12ad5a9fcdad64736f6c63430008000033\n}\n",
				"bytecode": {
					"linkReferences": {},
					"object": "608060405234801561001057600080fd5b50336000806101000a81548173ffffffffffffffffffffffffffffffffffffffff021916908373ffffffffffffffffffffffffffffffffffffffff160217905550611ce8806100606000396000f3fe608060405234801561001057600080fd5b50600436106100935760003560e01c8063da36344b11610066578063da36344b14610124578063daaef10114610140578063eeae005914610170578063f8dafb051461018c578063f9284ba0146101bd57610093565b80635d15da811461009857806364d1798b146100b65780638da5cb5b146100ea578063d52cbf2314610108575b600080fd5b6100a06101ed565b6040516100ad9190611932565b60405180910390f35b6100d060048036038101906100cb919061128c565b6101fa565b6040516100e19594939291906117c5565b60405180910390f35b6100f26106e5565b6040516100ff9190611728565b60405180910390f35b610122600480360381019061011d9190611321565b610709565b005b61013e6004803603810190610139919061123a565b610ae5565b005b61015a6004803603810190610155919061123a565b610c1c565b6040516101679190611743565b60405180910390f35b61018a600480360381019061018591906112cd565b610c3c565b005b6101a660048036038101906101a19190611263565b610eae565b6040516101b492919061194d565b60405180910390f35b6101d760048036038101906101d291906113e0565b611044565b6040516101e491906117a3565b60405180910390f35b6000600380549050905090565b60608060606000808560018160405161021391906116fa565b908152602001604051809103902060060160009054906101000a900460ff16610271576040517f08c379a0000000000000000000000000000000000000000000000000000000008152600401610268906118d2565b60405180910390fd5b600060018860405161028391906116fa565b90815260200160405180910390206040518060e00160405290816000820180546102ac90611b18565b80601f01602080910402602001604051908101604052809291908181526020018280546102d890611b18565b80156103255780601f106102fa57610100808354040283529160200191610325565b820191906000526020600020905b81548152906001019060200180831161030857829003601f168201915b5050505050815260200160018201805461033e90611b18565b80601f016020809104026020016040519081016040528092919081815260200182805461036a90611b18565b80156103b75780601f1061038c576101008083540402835291602001916103b7565b820191906000526020600020905b81548152906001019060200180831161039a57829003601f168201915b505050505081526020016002820180546103d090611b18565b80601f01602080910402602001604051908101604052809291908181526020018280546103fc90611b18565b80156104495780601f1061041e57610100808354040283529160200191610449565b820191906000526020600020905b81548152906001019060200180831161042c57829003601f168201915b505050505081526020016003820160009054906101000a900460ff16600281111561049d577f4e487b7100000000000000000000000000000000000000000000000000000000600052602160045260246000fd5b60028111156104d5577f4e487b7100000000000000000000000000000000000000000000000000000000600052602160045260246000fd5b815260200160048201548152602001600582015481526020016006820160009054906101000a900460ff1615151515815250509050606060006002811115610546577f4e487b7100000000000000000000000000000000000000000000000000000000600052602160045260246000fd5b82606001516002811115610583577f4e487b7100000000000000000000000000000000000000000000000000000000600052602160045260246000fd5b14156105c6576040518060400160405280600881526020017f446974616e616d6900000000000000000000000000000000000000000000000081525090506106ba565b60016002811115610600577f4e487b7100000000000000000000000000000000000000000000000000000000600052602160045260246000fd5b8260600151600281111561063d577f4e487b7100000000000000000000000000000000000000000000000000000000600052602160045260246000fd5b1415610680576040518060400160405280600e81526020017f4d6173612049737469726168617400000000000000000000000000000000000081525090506106b9565b6040518060400160405280600581526020017f50616e656e00000000000000000000000000000000000000000000000000000081525090505b5b816020015182604001518284608001518560a001519750975097509750975050505091939590929450565b60008054906101000a900473ffffffffffffffffffffffffffffffffffffffff1681565b600260003373ffffffffffffffffffffffffffffffffffffffff1673ffffffffffffffffffffffffffffffffffffffff16815260200190815260200160002060009054906101000a900460ff16806107ac575060008054906101000a900473ffffffffffffffffffffffffffffffffffffffff1673ffffffffffffffffffffffffffffffffffffffff163373ffffffffffffffffffffffffffffffffffffffff16145b6107eb576040517f08c379a00000000000000000000000000000000000000000000000000000000081526004016107e2906118b2565b60405180910390fd5b6001856040516107fb91906116fa565b908152602001604051809103902060060160009054906101000a900460ff161561085a576040517f08c379a000000000000000000000000000000000000000000000000000000000815260040161085190611892565b60405180910390fd5b600085511161089e576040517f08c379a000000000000000000000000000000000000000000000000000000000815260040161089590611912565b60405180910390fd5b600082116108e1576040517f08c379a00000000000000000000000000000000000000000000000000000000081526004016108d8906118f2565b60405180910390fd5b6040518060e00160405280868152602001858152602001848152602001826002811115610937577f4e487b7100000000000000000000000000000000000000000000000000000000600052602160045260246000fd5b81526020018381526020014281526020016001151581525060018660405161095f91906116fa565b908152602001604051809103902060008201518160000190805190602001906109899291906110f0565b5060208201518160010190805190602001906109a69291906110f0565b5060408201518160020190805190602001906109c39291906110f0565b5060608201518160030160006101000a81548160ff02191690836002811115610a15577f4e487b7100000000000000000000000000000000000000000000000000000000600052602160045260246000fd5b02179055506080820151816004015560a0820151816005015560c08201518160060160006101000a81548160ff021916908315150217905550905050600385908060018154018082558091505060019003906000526020600020016000909190919091509080519060200190610a8c9291906110f0565b5084604051610a9b91906116fa565b60405180910390207f248be265075ca4023a11cdc505f645cec5959239041c8f6b00b536d35d1cf786858542604051610ad69392919061182d565b60405180910390a25050505050565b60008054906101000a900473ffffffffffffffffffffffffffffffffffffffff1673ffffffffffffffffffffffffffffffffffffffff163373ffffffffffffffffffffffffffffffffffffffff1614610b73576040517f08c379a0000000000000000000000000000000000000000000000000000000008152600401610b6a90611872565b60405180910390fd5b6001600260008373ffffffffffffffffffffffffffffffffffffffff1673ffffffffffffffffffffffffffffffffffffffff16815260200190815260200160002060006101000a81548160ff0219169083151502179055508073ffffffffffffffffffffffffffffffffffffffff167f923dc47aed21628c576a993ba0632698e3a201055d5a1ca2b5cfea1362468fca42604051610c119190611932565b60405180910390a250565b60026020528060005260406000206000915054906101000a900460ff1681565b600260003373ffffffffffffffffffffffffffffffffffffffff1673ffffffffffffffffffffffffffffffffffffffff16815260200190815260200160002060009054906101000a900460ff1680610cdf575060008054906101000a900473ffffffffffffffffffffffffffffffffffffffff1673ffffffffffffffffffffffffffffffffffffffff163373ffffffffffffffffffffffffffffffffffffffff16145b610d1e576040517f08c379a0000000000000000000000000000000000000000000000000000000008152600401610d15906118b2565b60405180910390fd5b81600181604051610d2f91906116fa565b908152602001604051809103902060060160009054906101000a900460ff16610d8d576040517f08c379a0000000000000000000000000000000000000000000000000000000008152600401610d84906118d2565b60405180910390fd5b6000600184604051610d9f91906116fa565b908152602001604051809103902060030160009054906101000a900460ff16905082600185604051610dd191906116fa565b908152602001604051809103902060030160006101000a81548160ff02191690836002811115610e2a577f4e487b7100000000000000000000000000000000000000000000000000000000600052602160045260246000fd5b021790555042600185604051610e4091906116fa565b90815260200160405180910390206005018190555083604051610e6391906116fa565b60405180910390207ff0e7bf213bb74a286b0fb9e029b060b211d4c6dde06cd6b8074e694aa867b3b582853342604051610ea0949392919061175e565b60405180910390a250505050565b60008060005b60038054905081101561103e57836002811115610efa577f4e487b7100000000000000000000000000000000000000000000000000000000600052602160045260246000fd5b600160038381548110610f36577f4e487b7100000000000000000000000000000000000000000000000000000000600052603260045260246000fd5b90600052602060002001604051610f4d9190611711565b908152602001604051809103902060030160009054906101000a900460ff166002811115610fa4577f4e487b7100000000000000000000000000000000000000000000000000000000600052602160045260246000fd5b141561102b578280610fb590611b4a565b935050600160038281548110610ff4577f4e487b7100000000000000000000000000000000000000000000000000000000600052603260045260246000fd5b9060005260206000200160405161100b9190611711565b908152602001604051809103902060040154826110289190611a13565b91505b808061103690611b4a565b915050610eb4565b50915091565b6003818154811061105457600080fd5b90600052602060002001600091509050805461106f90611b18565b80601f016020809104026020016040519081016040528092919081815260200182805461109b90611b18565b80156110e85780601f106110bd576101008083540402835291602001916110e8565b820191906000526020600020905b8154815290600101906020018083116110cb57829003601f168201915b505050505081565b8280546110fc90611b18565b90600052602060002090601f01602090048101928261111e5760008555611165565b82601f1061113757805160ff1916838001178555611165565b82800160010185558215611165579182015b82811115611164578251825591602001919060010190611149565b5b5090506111729190611176565b5090565b5b8082111561118f576000816000905550600101611177565b5090565b60006111a66111a1846119a7565b611976565b9050828152602081018484840111156111be57600080fd5b6111c9848285611ad6565b509392505050565b6000813590506111e081611c74565b92915050565b6000813590506111f581611c8b565b92915050565b600082601f83011261120c57600080fd5b813561121c848260208601611193565b91505092915050565b60008135905061123481611c9b565b92915050565b60006020828403121561124c57600080fd5b600061125a848285016111d1565b91505092915050565b60006020828403121561127557600080fd5b6000611283848285016111e6565b91505092915050565b60006020828403121561129e57600080fd5b600082013567ffffffffffffffff8111156112b857600080fd5b6112c4848285016111fb565b91505092915050565b600080604083850312156112e057600080fd5b600083013567ffffffffffffffff8111156112fa57600080fd5b611306858286016111fb565b9250506020611317858286016111e6565b9150509250929050565b600080600080600060a0868803121561133957600080fd5b600086013567ffffffffffffffff81111561135357600080fd5b61135f888289016111fb565b955050602086013567ffffffffffffffff81111561137c57600080fd5b611388888289016111fb565b945050604086013567ffffffffffffffff8111156113a557600080fd5b6113b1888289016111fb565b93505060606113c288828901611225565b92505060806113d3888289016111e6565b9150509295509295909350565b6000602082840312156113f257600080fd5b600061140084828501611225565b91505092915050565b61141281611a69565b82525050565b61142181611a7b565b82525050565b61143081611ac4565b82525050565b6000611441826119ec565b61144b81856119f7565b935061145b818560208601611ae5565b61146481611c4f565b840191505092915050565b600061147a826119ec565b6114848185611a08565b9350611494818560208601611ae5565b80840191505092915050565b600081546114ad81611b18565b6114b78186611a08565b945060018216600081146114d257600181146114e357611516565b60ff19831686528186019350611516565b6114ec856119d7565b60005b8381101561150e578154818901526001820191506020810190506114ef565b838801955050505b50505092915050565b600061152c6023836119f7565b91507f48616e7961206f776e65722079616e672062697361206d656c616b756b616e2060008301527f696e6900000000000000000000000000000000000000000000000000000000006020830152604082019050919050565b60006115926015836119f7565b91507f4c6168616e2073756461682074657264616674617200000000000000000000006000830152602082019050919050565b60006115d26030836119f7565b91507f48616e79612070657475676173207265736d692079616e672062697361206d6560008301527f6d706572626172756920737461747573000000000000000000000000000000006020830152604082019050919050565b60006116386015836119f7565b91507f4c6168616e2062656c756d2074657264616674617200000000000000000000006000830152602082019050919050565b6000611678601d836119f7565b91507f4c756173206c6168616e206861727573206c65626968206461726920300000006000830152602082019050919050565b60006116b8601b836119f7565b91507f4944206c6168616e20746964616b20626f6c6568206b6f736f6e6700000000006000830152602082019050919050565b6116f481611aba565b82525050565b6000611706828461146f565b915081905092915050565b600061171d82846114a0565b915081905092915050565b600060208201905061173d6000830184611409565b92915050565b60006020820190506117586000830184611418565b92915050565b60006080820190506117736000830187611427565b6117806020830186611427565b61178d6040830185611409565b61179a60608301846116eb565b95945050505050565b600060208201905081810360008301526117bd8184611436565b905092915050565b600060a08201905081810360008301526117df8188611436565b905081810360208301526117f38187611436565b905081810360408301526118078186611436565b905061181660608301856116eb565b61182360808301846116eb565b9695505050505050565b600060608201905081810360008301526118478186611436565b9050818103602083015261185b8185611436565b905061186a60408301846116eb565b949350505050565b6000602082019050818103600083015261188b8161151f565b9050919050565b600060208201905081810360008301526118ab81611585565b9050919050565b600060208201905081810360008301526118cb816115c5565b9050919050565b600060208201905081810360008301526118eb8161162b565b9050919050565b6000602082019050818103600083015261190b8161166b565b9050919050565b6000602082019050818103600083015261192b816116ab565b9050919050565b600060208201905061194760008301846116eb565b92915050565b600060408201905061196260008301856116eb565b61196f60208301846116eb565b9392505050565b6000604051905081810181811067ffffffffffffffff8211171561199d5761199c611c20565b5b8060405250919050565b600067ffffffffffffffff8211156119c2576119c1611c20565b5b601f19601f8301169050602081019050919050565b60008190508160005260206000209050919050565b600081519050919050565b600082825260208201905092915050565b600081905092915050565b6000611a1e82611aba565b9150611a2983611aba565b9250827fffffffffffffffffffffffffffffffffffffffffffffffffffffffffffffffff03821115611a5e57611a5d611b93565b5b828201905092915050565b6000611a7482611a9a565b9050919050565b60008115159050919050565b6000819050611a9582611c60565b919050565b600073ffffffffffffffffffffffffffffffffffffffff82169050919050565b6000819050919050565b6000611acf82611a87565b9050919050565b82818337600083830152505050565b60005b83811015611b03578082015181840152602081019050611ae8565b83811115611b12576000848401525b50505050565b60006002820490506001821680611b3057607f821691505b60208210811415611b4457611b43611bf1565b5b50919050565b6000611b5582611aba565b91507fffffffffffffffffffffffffffffffffffffffffffffffffffffffffffffffff821415611b8857611b87611b93565b5b600182019050919050565b7f4e487b7100000000000000000000000000000000000000000000000000000000600052601160045260246000fd5b7f4e487b7100000000000000000000000000000000000000000000000000000000600052602160045260246000fd5b7f4e487b7100000000000000000000000000000000000000000000000000000000600052602260045260246000fd5b7f4e487b7100000000000000000000000000000000000000000000000000000000600052604160045260246000fd5b6000601f19601f8301169050919050565b60038110611c7157611c70611bc2565b5b50565b611c7d81611a69565b8114611c8857600080fd5b50565b60038110611c9857600080fd5b50565b611ca481611aba565b8114611caf57600080fd5b5056fea2646970667358221220bf69f5f901a63e40baa0f219187922273dccde1a8488492b49eb12ad5a9fcdad64736f6c63430008000033",
					"opcodes": "PUSH1 0x80 PUSH1 0x40 MSTORE CALLVALUE DUP1 ISZERO PUSH2 0x10 JUMPI PUSH1 0x0 DUP1 REVERT JUMPDEST POP CALLER PUSH1 0x0 DUP1 PUSH2 0x100 EXP DUP2 SLOAD DUP2 PUSH20 0xFFFFFFFFFFFFFFFFFFFFFFFFFFFFFFFFFFFFFFFF MUL NOT AND SWAP1 DUP4 PUSH20 0xFFFFFFFFFFFFFFFFFFFFFFFFFFFFFFFFFFFFFFFF AND MUL OR SWAP1 SSTORE POP PUSH2 0x1CE8 DUP1 PUSH2 0x60 PUSH1 0x0 CODECOPY PUSH1 0x0 RETURN INVALID PUSH1 0x80 PUSH1 0x40 MSTORE CALLVALUE DUP1 ISZERO PUSH2 0x10 JUMPI PUSH1 0x0 DUP1 REVERT JUMPDEST POP PUSH1 0x4 CALLDATASIZE LT PUSH2 0x93 JUMPI PUSH1 0x0 CALLDATALOAD PUSH1 0xE0 SHR DUP1 PUSH4 0xDA36344B GT PUSH2 0x66 JUMPI DUP1 PUSH4 0xDA36344B EQ PUSH2 0x124 JUMPI DUP1 PUSH4 0xDAAEF101 EQ PUSH2 0x140 JUMPI DUP1 PUSH4 0xEEAE0059 EQ PUSH2 0x170 JUMPI DUP1 PUSH4 0xF8DAFB05 EQ PUSH2 0x18C JUMPI DUP1 PUSH4 0xF9284BA0 EQ PUSH2 0x1BD JUMPI PUSH2 0x93 JUMP JUMPDEST DUP1 PUSH4 0x5D15DA81 EQ PUSH2 0x98 JUMPI DUP1 PUSH4 0x64D1798B EQ PUSH2 0xB6 JUMPI DUP1 PUSH4 0x8DA5CB5B EQ PUSH2 0xEA JUMPI DUP1 PUSH4 0xD52CBF23 EQ PUSH2 0x108 JUMPI JUMPDEST PUSH1 0x0 DUP1 REVERT JUMPDEST PUSH2 0xA0 PUSH2 0x1ED JUMP JUMPDEST PUSH1 0x40 MLOAD PUSH2 0xAD SWAP2 SWAP1 PUSH2 0x1932 JUMP JUMPDEST PUSH1 0x40 MLOAD DUP1 SWAP2 SUB SWAP1 RETURN JUMPDEST PUSH2 0xD0 PUSH1 0x4 DUP1 CALLDATASIZE SUB DUP2 ADD SWAP1 PUSH2 0xCB SWAP2 SWAP1 PUSH2 0x128C JUMP JUMPDEST PUSH2 0x1FA JUMP JUMPDEST PUSH1 0x40 MLOAD PUSH2 0xE1 SWAP6 SWAP5 SWAP4 SWAP3 SWAP2 SWAP1 PUSH2 0x17C5 JUMP JUMPDEST PUSH1 0x40 MLOAD DUP1 SWAP2 SUB SWAP1 RETURN JUMPDEST PUSH2 0xF2 PUSH2 0x6E5 JUMP JUMPDEST PUSH1 0x40 MLOAD PUSH2 0xFF SWAP2 SWAP1 PUSH2 0x1728 JUMP JUMPDEST PUSH1 0x40 MLOAD DUP1 SWAP2 SUB SWAP1 RETURN JUMPDEST PUSH2 0x122 PUSH1 0x4 DUP1 CALLDATASIZE SUB DUP2 ADD SWAP1 PUSH2 0x11D SWAP2 SWAP1 PUSH2 0x1321 JUMP JUMPDEST PUSH2 0x709 JUMP JUMPDEST STOP JUMPDEST PUSH2 0x13E PUSH1 0x4 DUP1 CALLDATASIZE SUB DUP2 ADD SWAP1 PUSH2 0x139 SWAP2 SWAP1 PUSH2 0x123A JUMP JUMPDEST PUSH2 0xAE5 JUMP JUMPDEST STOP JUMPDEST PUSH2 0x15A PUSH1 0x4 DUP1 CALLDATASIZE SUB DUP2 ADD SWAP1 PUSH2 0x155 SWAP2 SWAP1 PUSH2 0x123A JUMP JUMPDEST PUSH2 0xC1C JUMP JUMPDEST PUSH1 0x40 MLOAD PUSH2 0x167 SWAP2 SWAP1 PUSH2 0x1743 JUMP JUMPDEST PUSH1 0x40 MLOAD DUP1 SWAP2 SUB SWAP1 RETURN JUMPDEST PUSH2 0x18A PUSH1 0x4 DUP1 CALLDATASIZE SUB DUP2 ADD SWAP1 PUSH2 0x185 SWAP2 SWAP1 PUSH2 0x12CD JUMP JUMPDEST PUSH2 0xC3C JUMP JUMPDEST STOP JUMPDEST PUSH2 0x1A6 PUSH1 0x4 DUP1 CALLDATASIZE SUB DUP2 ADD SWAP1 PUSH2 0x1A1 SWAP2 SWAP1 PUSH2 0x1263 JUMP JUMPDEST PUSH2 0xEAE JUMP JUMPDEST PUSH1 0x40 MLOAD PUSH2 0x1B4 SWAP3 SWAP2 SWAP1 PUSH2 0x194D JUMP JUMPDEST PUSH1 0x40 MLOAD DUP1 SWAP2 SUB SWAP1 RETURN JUMPDEST PUSH2 0x1D7 PUSH1 0x4 DUP1 CALLDATASIZE SUB DUP2 ADD SWAP1 PUSH2 0x1D2 SWAP2 SWAP1 PUSH2 0x13E0 JUMP JUMPDEST PUSH2 0x1044 JUMP JUMPDEST PUSH1 0x40 MLOAD PUSH2 0x1E4 SWAP2 SWAP1 PUSH2 0x17A3 JUMP JUMPDEST PUSH1 0x40 MLOAD DUP1 SWAP2 SUB SWAP1 RETURN JUMPDEST PUSH1 0x0 PUSH1 0x3 DUP1 SLOAD SWAP1 POP SWAP1 POP SWAP1 JUMP JUMPDEST PUSH1 0x60 DUP1 PUSH1 0x60 PUSH1 0x0 DUP1 DUP6 PUSH1 0x1 DUP2 PUSH1 0x40 MLOAD PUSH2 0x213 SWAP2 SWAP1 PUSH2 0x16FA JUMP JUMPDEST SWAP1 DUP2 MSTORE PUSH1 0x20 ADD PUSH1 0x40 MLOAD DUP1 SWAP2 SUB SWAP1 KECCAK256 PUSH1 0x6 ADD PUSH1 0x0 SWAP1 SLOAD SWAP1 PUSH2 0x100 EXP SWAP1 DIV PUSH1 0xFF AND PUSH2 0x271 JUMPI PUSH1 0x40 MLOAD PUSH32 0x8C379A000000000000000000000000000000000000000000000000000000000 DUP2 MSTORE PUSH1 0x4 ADD PUSH2 0x268 SWAP1 PUSH2 0x18D2 JUMP JUMPDEST PUSH1 0x40 MLOAD DUP1 SWAP2 SUB SWAP1 REVERT JUMPDEST PUSH1 0x0 PUSH1 0x1 DUP9 PUSH1 0x40 MLOAD PUSH2 0x283 SWAP2 SWAP1 PUSH2 0x16FA JUMP JUMPDEST SWAP1 DUP2 MSTORE PUSH1 0x20 ADD PUSH1 0x40 MLOAD DUP1 SWAP2 SUB SWAP1 KECCAK256 PUSH1 0x40 MLOAD DUP1 PUSH1 0xE0 ADD PUSH1 0x40 MSTORE SWAP1 DUP2 PUSH1 0x0 DUP3 ADD DUP1 SLOAD PUSH2 0x2AC SWAP1 PUSH2 0x1B18 JUMP JUMPDEST DUP1 PUSH1 0x1F ADD PUSH1 0x20 DUP1 SWAP2 DIV MUL PUSH1 0x20 ADD PUSH1 0x40 MLOAD SWAP1 DUP2 ADD PUSH1 0x40 MSTORE DUP1 SWAP3 SWAP2 SWAP1 DUP2 DUP2 MSTORE PUSH1 0x20 ADD DUP3 DUP1 SLOAD PUSH2 0x2D8 SWAP1 PUSH2 0x1B18 JUMP JUMPDEST DUP1 ISZERO PUSH2 0x325 JUMPI DUP1 PUSH1 0x1F LT PUSH2 0x2FA JUMPI PUSH2 0x100 DUP1 DUP4 SLOAD DIV MUL DUP4 MSTORE SWAP2 PUSH1 0x20 ADD SWAP2 PUSH2 0x325 JUMP JUMPDEST DUP3 ADD SWAP2 SWAP1 PUSH1 0x0 MSTORE PUSH1 0x20 PUSH1 0x0 KECCAK256 SWAP1 JUMPDEST DUP2 SLOAD DUP2 MSTORE SWAP1 PUSH1 0x1 ADD SWAP1 PUSH1 0x20 ADD DUP1 DUP4 GT PUSH2 0x308 JUMPI DUP3 SWAP1 SUB PUSH1 0x1F AND DUP3 ADD SWAP2 JUMPDEST POP POP POP POP POP DUP2 MSTORE PUSH1 0x20 ADD PUSH1 0x1 DUP3 ADD DUP1 SLOAD PUSH2 0x33E SWAP1 PUSH2 0x1B18 JUMP JUMPDEST DUP1 PUSH1 0x1F ADD PUSH1 0x20 DUP1 SWAP2 DIV MUL PUSH1 0x20 ADD PUSH1 0x40 MLOAD SWAP1 DUP2 ADD PUSH1 0x40 MSTORE DUP1 SWAP3 SWAP2 SWAP1 DUP2 DUP2 MSTORE PUSH1 0x20 ADD DUP3 DUP1 SLOAD PUSH2 0x36A SWAP1 PUSH2 0x1B18 JUMP JUMPDEST DUP1 ISZERO PUSH2 0x3B7 JUMPI DUP1 PUSH1 0x1F LT PUSH2 0x38C JUMPI PUSH2 0x100 DUP1 DUP4 SLOAD DIV MUL DUP4 MSTORE SWAP2 PUSH1 0x20 ADD SWAP2 PUSH2 0x3B7 JUMP JUMPDEST DUP3 ADD SWAP2 SWAP1 PUSH1 0x0 MSTORE PUSH1 0x20 PUSH1 0x0 KECCAK256 SWAP1 JUMPDEST DUP2 SLOAD DUP2 MSTORE SWAP1 PUSH1 0x1 ADD SWAP1 PUSH1 0x20 ADD DUP1 DUP4 GT PUSH2 0x39A JUMPI DUP3 SWAP1 SUB PUSH1 0x1F AND DUP3 ADD SWAP2 JUMPDEST POP POP POP POP POP DUP2 MSTORE PUSH1 0x20 ADD PUSH1 0x2 DUP3 ADD DUP1 SLOAD PUSH2 0x3D0 SWAP1 PUSH2 0x1B18 JUMP JUMPDEST DUP1 PUSH1 0x1F ADD PUSH1 0x20 DUP1 SWAP2 DIV MUL PUSH1 0x20 ADD PUSH1 0x40 MLOAD SWAP1 DUP2 ADD PUSH1 0x40 MSTORE DUP1 SWAP3 SWAP2 SWAP1 DUP2 DUP2 MSTORE PUSH1 0x20 ADD DUP3 DUP1 SLOAD PUSH2 0x3FC SWAP1 PUSH2 0x1B18 JUMP JUMPDEST DUP1 ISZERO PUSH2 0x449 JUMPI DUP1 PUSH1 0x1F LT PUSH2 0x41E JUMPI PUSH2 0x100 DUP1 DUP4 SLOAD DIV MUL DUP4 MSTORE SWAP2 PUSH1 0x20 ADD SWAP2 PUSH2 0x449 JUMP JUMPDEST DUP3 ADD SWAP2 SWAP1 PUSH1 0x0 MSTORE PUSH1 0x20 PUSH1 0x0 KECCAK256 SWAP1 JUMPDEST DUP2 SLOAD DUP2 MSTORE SWAP1 PUSH1 0x1 ADD SWAP1 PUSH1 0x20 ADD DUP1 DUP4 GT PUSH2 0x42C JUMPI DUP3 SWAP1 SUB PUSH1 0x1F AND DUP3 ADD SWAP2 JUMPDEST POP POP POP POP POP DUP2 MSTORE PUSH1 0x20 ADD PUSH1 0x3 DUP3 ADD PUSH1 0x0 SWAP1 SLOAD SWAP1 PUSH2 0x100 EXP SWAP1 DIV PUSH1 0xFF AND PUSH1 0x2 DUP2 GT ISZERO PUSH2 0x49D JUMPI PUSH32 0x4E487B7100000000000000000000000000000000000000000000000000000000 PUSH1 0x0 MSTORE PUSH1 0x21 PUSH1 0x4 MSTORE PUSH1 0x24 PUSH1 0x0 REVERT JUMPDEST PUSH1 0x2 DUP2 GT ISZERO PUSH2 0x4D5 JUMPI PUSH32 0x4E487B7100000000000000000000000000000000000000000000000000000000 PUSH1 0x0 MSTORE PUSH1 0x21 PUSH1 0x4 MSTORE PUSH1 0x24 PUSH1 0x0 REVERT JUMPDEST DUP2 MSTORE PUSH1 0x20 ADD PUSH1 0x4 DUP3 ADD SLOAD DUP2 MSTORE PUSH1 0x20 ADD PUSH1 0x5 DUP3 ADD SLOAD DUP2 MSTORE PUSH1 0x20 ADD PUSH1 0x6 DUP3 ADD PUSH1 0x0 SWAP1 SLOAD SWAP1 PUSH2 0x100 EXP SWAP1 DIV PUSH1 0xFF AND ISZERO ISZERO ISZERO ISZERO DUP2 MSTORE POP POP SWAP1 POP PUSH1 0x60 PUSH1 0x0 PUSH1 0x2 DUP2 GT ISZERO PUSH2 0x546 JUMPI PUSH32 0x4E487B7100000000000000000000000000000000000000000000000000000000 PUSH1 0x0 MSTORE PUSH1 0x21 PUSH1 0x4 MSTORE PUSH1 0x24 PUSH1 0x0 REVERT JUMPDEST DUP3 PUSH1 0x60 ADD MLOAD PUSH1 0x2 DUP2 GT ISZERO PUSH2 0x583 JUMPI PUSH32 0x4E487B7100000000000000000000000000000000000000000000000000000000 PUSH1 0x0 MSTORE PUSH1 0x21 PUSH1 0x4 MSTORE PUSH1 0x24 PUSH1 0x0 REVERT JUMPDEST EQ ISZERO PUSH2 0x5C6 JUMPI PUSH1 0x40 MLOAD DUP1 PUSH1 0x40 ADD PUSH1 0x40 MSTORE DUP1 PUSH1 0x8 DUP2 MSTORE PUSH1 0x20 ADD PUSH32 0x446974616E616D69000000000000000000000000000000000000000000000000 DUP2 MSTORE POP SWAP1 POP PUSH2 0x6BA JUMP JUMPDEST PUSH1 0x1 PUSH1 0x2 DUP2 GT ISZERO PUSH2 0x600 JUMPI PUSH32 0x4E487B7100000000000000000000000000000000000000000000000000000000 PUSH1 0x0 MSTORE PUSH1 0x21 PUSH1 0x4 MSTORE PUSH1 0x24 PUSH1 0x0 REVERT JUMPDEST DUP3 PUSH1 0x60 ADD MLOAD PUSH1 0x2 DUP2 GT ISZERO PUSH2 0x63D JUMPI PUSH32 0x4E487B7100000000000000000000000000000000000000000000000000000000 PUSH1 0x0 MSTORE PUSH1 0x21 PUSH1 0x4 MSTORE PUSH1 0x24 PUSH1 0x0 REVERT JUMPDEST EQ ISZERO PUSH2 0x680 JUMPI PUSH1 0x40 MLOAD DUP1 PUSH1 0x40 ADD PUSH1 0x40 MSTORE DUP1 PUSH1 0xE DUP2 MSTORE PUSH1 0x20 ADD PUSH32 0x4D61736120497374697261686174000000000000000000000000000000000000 DUP2 MSTORE POP SWAP1 POP PUSH2 0x6B9 JUMP JUMPDEST PUSH1 0x40 MLOAD DUP1 PUSH1 0x40 ADD PUSH1 0x40 MSTORE DUP1 PUSH1 0x5 DUP2 MSTORE PUSH1 0x20 ADD PUSH32 0x50616E656E000000000000000000000000000000000000000000000000000000 DUP2 MSTORE POP SWAP1 POP JUMPDEST JUMPDEST DUP2 PUSH1 0x20 ADD MLOAD DUP3 PUSH1 0x40 ADD MLOAD DUP3 DUP5 PUSH1 0x80 ADD MLOAD DUP6 PUSH1 0xA0 ADD MLOAD SWAP8 POP SWAP8 POP SWAP8 POP SWAP8 POP SWAP8 POP POP POP POP SWAP2 SWAP4 SWAP6 SWAP1 SWAP3 SWAP5 POP JUMP JUMPDEST PUSH1 0x0 DUP1 SLOAD SWAP1 PUSH2 0x100 EXP SWAP1 DIV PUSH20 0xFFFFFFFFFFFFFFFFFFFFFFFFFFFFFFFFFFFFFFFF AND DUP2 JUMP JUMPDEST PUSH1 0x2 PUSH1 0x0 CALLER PUSH20 0xFFFFFFFFFFFFFFFFFFFFFFFFFFFFFFFFFFFFFFFF AND PUSH20 0xFFFFFFFFFFFFFFFFFFFFFFFFFFFFFFFFFFFFFFFF AND DUP2 MSTORE PUSH1 0x20 ADD SWAP1 DUP2 MSTORE PUSH1 0x20 ADD PUSH1 0x0 KECCAK256 PUSH1 0x0 SWAP1 SLOAD SWAP1 PUSH2 0x100 EXP SWAP1 DIV PUSH1 0xFF AND DUP1 PUSH2 0x7AC JUMPI POP PUSH1 0x0 DUP1 SLOAD SWAP1 PUSH2 0x100 EXP SWAP1 DIV PUSH20 0xFFFFFFFFFFFFFFFFFFFFFFFFFFFFFFFFFFFFFFFF AND PUSH20 0xFFFFFFFFFFFFFFFFFFFFFFFFFFFFFFFFFFFFFFFF AND CALLER PUSH20 0xFFFFFFFFFFFFFFFFFFFFFFFFFFFFFFFFFFFFFFFF AND EQ JUMPDEST PUSH2 0x7EB JUMPI PUSH1 0x40 MLOAD PUSH32 0x8C379A000000000000000000000000000000000000000000000000000000000 DUP2 MSTORE PUSH1 0x4 ADD PUSH2 0x7E2 SWAP1 PUSH2 0x18B2 JUMP JUMPDEST PUSH1 0x40 MLOAD DUP1 SWAP2 SUB SWAP1 REVERT JUMPDEST PUSH1 0x1 DUP6 PUSH1 0x40 MLOAD PUSH2 0x7FB SWAP2 SWAP1 PUSH2 0x16FA JUMP JUMPDEST SWAP1 DUP2 MSTORE PUSH1 0x20 ADD PUSH1 0x40 MLOAD DUP1 SWAP2 SUB SWAP1 KECCAK256 PUSH1 0x6 ADD PUSH1 0x0 SWAP1 SLOAD SWAP1 PUSH2 0x100 EXP SWAP1 DIV PUSH1 0xFF AND ISZERO PUSH2 0x85A JUMPI PUSH1 0x40 MLOAD PUSH32 0x8C379A000000000000000000000000000000000000000000000000000000000 DUP2 MSTORE PUSH1 0x4 ADD PUSH2 0x851 SWAP1 PUSH2 0x1892 JUMP JUMPDEST PUSH1 0x40 MLOAD DUP1 SWAP2 SUB SWAP1 REVERT JUMPDEST PUSH1 0x0 DUP6 MLOAD GT PUSH2 0x89E JUMPI PUSH1 0x40 MLOAD PUSH32 0x8C379A000000000000000000000000000000000000000000000000000000000 DUP2 MSTORE PUSH1 0x4 ADD PUSH2 0x895 SWAP1 PUSH2 0x1912 JUMP JUMPDEST PUSH1 0x40 MLOAD DUP1 SWAP2 SUB SWAP1 REVERT JUMPDEST PUSH1 0x0 DUP3 GT PUSH2 0x8E1 JUMPI PUSH1 0x40 MLOAD PUSH32 0x8C379A000000000000000000000000000000000000000000000000000000000 DUP2 MSTORE PUSH1 0x4 ADD PUSH2 0x8D8 SWAP1 PUSH2 0x18F2 JUMP JUMPDEST PUSH1 0x40 MLOAD DUP1 SWAP2 SUB SWAP1 REVERT JUMPDEST PUSH1 0x40 MLOAD DUP1 PUSH1 0xE0 ADD PUSH1 0x40 MSTORE DUP1 DUP7 DUP2 MSTORE PUSH1 0x20 ADD DUP6 DUP2 MSTORE PUSH1 0x20 ADD DUP5 DUP2 MSTORE PUSH1 0x20 ADD DUP3 PUSH1 0x2 DUP2 GT ISZERO PUSH2 0x937 JUMPI PUSH32 0x4E487B7100000000000000000000000000000000000000000000000000000000 PUSH1 0x0 MSTORE PUSH1 0x21 PUSH1 0x4 MSTORE PUSH1 0x24 PUSH1 0x0 REVERT JUMPDEST DUP2 MSTORE PUSH1 0x20 ADD DUP4 DUP2 MSTORE PUSH1 0x20 ADD TIMESTAMP DUP2 MSTORE PUSH1 0x20 ADD PUSH1 0x1 ISZERO ISZERO DUP2 MSTORE POP PUSH1 0x1 DUP7 PUSH1 0x40 MLOAD PUSH2 0x95F SWAP2 SWAP1 PUSH2 0x16FA JUMP JUMPDEST SWAP1 DUP2 MSTORE PUSH1 0x20 ADD PUSH1 0x40 MLOAD DUP1 SWAP2 SUB SWAP1 KECCAK256 PUSH1 0x0 DUP3 ADD MLOAD DUP2 PUSH1 0x0 ADD SWAP1 DUP1 MLOAD SWAP1 PUSH1 0x20 ADD SWAP1 PUSH2 0x989 SWAP3 SWAP2 SWAP1 PUSH2 0x10F0 JUMP JUMPDEST POP PUSH1 0x20 DUP3 ADD MLOAD DUP2 PUSH1 0x1 ADD SWAP1 DUP1 MLOAD SWAP1 PUSH1 0x20 ADD SWAP1 PUSH2 0x9A6 SWAP3 SWAP2 SWAP1 PUSH2 0x10F0 JUMP JUMPDEST POP PUSH1 0x40 DUP3 ADD MLOAD DUP2 PUSH1 0x2 ADD SWAP1 DUP1 MLOAD SWAP1 PUSH1 0x20 ADD SWAP1 PUSH2 0x9C3 SWAP3 SWAP2 SWAP1 PUSH2 0x10F0 JUMP JUMPDEST POP PUSH1 0x60 DUP3 ADD MLOAD DUP2 PUSH1 0x3 ADD PUSH1 0x0 PUSH2 0x100 EXP DUP2 SLOAD DUP2 PUSH1 0xFF MUL NOT AND SWAP1 DUP4 PUSH1 0x2 DUP2 GT ISZERO PUSH2 0xA15 JUMPI PUSH32 0x4E487B7100000000000000000000000000000000000000000000000000000000 PUSH1 0x0 MSTORE PUSH1 0x21 PUSH1 0x4 MSTORE PUSH1 0x24 PUSH1 0x0 REVERT JUMPDEST MUL OR SWAP1 SSTORE POP PUSH1 0x80 DUP3 ADD MLOAD DUP2 PUSH1 0x4 ADD SSTORE PUSH1 0xA0 DUP3 ADD MLOAD DUP2 PUSH1 0x5 ADD SSTORE PUSH1 0xC0 DUP3 ADD MLOAD DUP2 PUSH1 0x6 ADD PUSH1 0x0 PUSH2 0x100 EXP DUP2 SLOAD DUP2 PUSH1 0xFF MUL NOT AND SWAP1 DUP4 ISZERO ISZERO MUL OR SWAP1 SSTORE POP SWAP1 POP POP PUSH1 0x3 DUP6 SWAP1 DUP1 PUSH1 0x1 DUP2 SLOAD ADD DUP1 DUP3 SSTORE DUP1 SWAP2 POP POP PUSH1 0x1 SWAP1 SUB SWAP1 PUSH1 0x0 MSTORE PUSH1 0x20 PUSH1 0x0 KECCAK256 ADD PUSH1 0x0 SWAP1 SWAP2 SWAP1 SWAP2 SWAP1 SWAP2 POP SWAP1 DUP1 MLOAD SWAP1 PUSH1 0x20 ADD SWAP1 PUSH2 0xA8C SWAP3 SWAP2 SWAP1 PUSH2 0x10F0 JUMP JUMPDEST POP DUP5 PUSH1 0x40 MLOAD PUSH2 0xA9B SWAP2 SWAP1 PUSH2 0x16FA JUMP JUMPDEST PUSH1 0x40 MLOAD DUP1 SWAP2 SUB SWAP1 KECCAK256 PUSH32 0x248BE265075CA4023A11CDC505F645CEC5959239041C8F6B00B536D35D1CF786 DUP6 DUP6 TIMESTAMP PUSH1 0x40 MLOAD PUSH2 0xAD6 SWAP4 SWAP3 SWAP2 SWAP1 PUSH2 0x182D JUMP JUMPDEST PUSH1 0x40 MLOAD DUP1 SWAP2 SUB SWAP1 LOG2 POP POP POP POP POP JUMP JUMPDEST PUSH1 0x0 DUP1 SLOAD SWAP1 PUSH2 0x100 EXP SWAP1 DIV PUSH20 0xFFFFFFFFFFFFFFFFFFFFFFFFFFFFFFFFFFFFFFFF AND PUSH20 0xFFFFFFFFFFFFFFFFFFFFFFFFFFFFFFFFFFFFFFFF AND CALLER PUSH20 0xFFFFFFFFFFFFFFFFFFFFFFFFFFFFFFFFFFFFFFFF AND EQ PUSH2 0xB73 JUMPI PUSH1 0x40 MLOAD PUSH32 0x8C379A000000000000000000000000000000000000000000000000000000000 DUP2 MSTORE PUSH1 0x4 ADD PUSH2 0xB6A SWAP1 PUSH2 0x1872 JUMP JUMPDEST PUSH1 0x40 MLOAD DUP1 SWAP2 SUB SWAP1 REVERT JUMPDEST PUSH1 0x1 PUSH1 0x2 PUSH1 0x0 DUP4 PUSH20 0xFFFFFFFFFFFFFFFFFFFFFFFFFFFFFFFFFFFFFFFF AND PUSH20 0xFFFFFFFFFFFFFFFFFFFFFFFFFFFFFFFFFFFFFFFF AND DUP2 MSTORE PUSH1 0x20 ADD SWAP1 DUP2 MSTORE PUSH1 0x20 ADD PUSH1 0x0 KECCAK256 PUSH1 0x0 PUSH2 0x100 EXP DUP2 SLOAD DUP2 PUSH1 0xFF MUL NOT AND SWAP1 DUP4 ISZERO ISZERO MUL OR SWAP1 SSTORE POP DUP1 PUSH20 0xFFFFFFFFFFFFFFFFFFFFFFFFFFFFFFFFFFFFFFFF AND PUSH32 0x923DC47AED21628C576A993BA0632698E3A201055D5A1CA2B5CFEA1362468FCA TIMESTAMP PUSH1 0x40 MLOAD PUSH2 0xC11 SWAP2 SWAP1 PUSH2 0x1932 JUMP JUMPDEST PUSH1 0x40 MLOAD DUP1 SWAP2 SUB SWAP1 LOG2 POP JUMP JUMPDEST PUSH1 0x2 PUSH1 0x20 MSTORE DUP1 PUSH1 0x0 MSTORE PUSH1 0x40 PUSH1 0x0 KECCAK256 PUSH1 0x0 SWAP2 POP SLOAD SWAP1 PUSH2 0x100 EXP SWAP1 DIV PUSH1 0xFF AND DUP2 JUMP JUMPDEST PUSH1 0x2 PUSH1 0x0 CALLER PUSH20 0xFFFFFFFFFFFFFFFFFFFFFFFFFFFFFFFFFFFFFFFF AND PUSH20 0xFFFFFFFFFFFFFFFFFFFFFFFFFFFFFFFFFFFFFFFF AND DUP2 MSTORE PUSH1 0x20 ADD SWAP1 DUP2 MSTORE PUSH1 0x20 ADD PUSH1 0x0 KECCAK256 PUSH1 0x0 SWAP1 SLOAD SWAP1 PUSH2 0x100 EXP SWAP1 DIV PUSH1 0xFF AND DUP1 PUSH2 0xCDF JUMPI POP PUSH1 0x0 DUP1 SLOAD SWAP1 PUSH2 0x100 EXP SWAP1 DIV PUSH20 0xFFFFFFFFFFFFFFFFFFFFFFFFFFFFFFFFFFFFFFFF AND PUSH20 0xFFFFFFFFFFFFFFFFFFFFFFFFFFFFFFFFFFFFFFFF AND CALLER PUSH20 0xFFFFFFFFFFFFFFFFFFFFFFFFFFFFFFFFFFFFFFFF AND EQ JUMPDEST PUSH2 0xD1E JUMPI PUSH1 0x40 MLOAD PUSH32 0x8C379A000000000000000000000000000000000000000000000000000000000 DUP2 MSTORE PUSH1 0x4 ADD PUSH2 0xD15 SWAP1 PUSH2 0x18B2 JUMP JUMPDEST PUSH1 0x40 MLOAD DUP1 SWAP2 SUB SWAP1 REVERT JUMPDEST DUP2 PUSH1 0x1 DUP2 PUSH1 0x40 MLOAD PUSH2 0xD2F SWAP2 SWAP1 PUSH2 0x16FA JUMP JUMPDEST SWAP1 DUP2 MSTORE PUSH1 0x20 ADD PUSH1 0x40 MLOAD DUP1 SWAP2 SUB SWAP1 KECCAK256 PUSH1 0x6 ADD PUSH1 0x0 SWAP1 SLOAD SWAP1 PUSH2 0x100 EXP SWAP1 DIV PUSH1 0xFF AND PUSH2 0xD8D JUMPI PUSH1 0x40 MLOAD PUSH32 0x8C379A000000000000000000000000000000000000000000000000000000000 DUP2 MSTORE PUSH1 0x4 ADD PUSH2 0xD84 SWAP1 PUSH2 0x18D2 JUMP JUMPDEST PUSH1 0x40 MLOAD DUP1 SWAP2 SUB SWAP1 REVERT JUMPDEST PUSH1 0x0 PUSH1 0x1 DUP5 PUSH1 0x40 MLOAD PUSH2 0xD9F SWAP2 SWAP1 PUSH2 0x16FA JUMP JUMPDEST SWAP1 DUP2 MSTORE PUSH1 0x20 ADD PUSH1 0x40 MLOAD DUP1 SWAP2 SUB SWAP1 KECCAK256 PUSH1 0x3 ADD PUSH1 0x0 SWAP1 SLOAD SWAP1 PUSH2 0x100 EXP SWAP1 DIV PUSH1 0xFF AND SWAP1 POP DUP3 PUSH1 0x1 DUP6 PUSH1 0x40 MLOAD PUSH2 0xDD1 SWAP2 SWAP1 PUSH2 0x16FA JUMP JUMPDEST SWAP1 DUP2 MSTORE PUSH1 0x20 ADD PUSH1 0x40 MLOAD DUP1 SWAP2 SUB SWAP1 KECCAK256 PUSH1 0x3 ADD PUSH1 0x0 PUSH2 0x100 EXP DUP2 SLOAD DUP2 PUSH1 0xFF MUL NOT AND SWAP1 DUP4 PUSH1 0x2 DUP2 GT ISZERO PUSH2 0xE2A JUMPI PUSH32 0x4E487B7100000000000000000000000000000000000000000000000000000000 PUSH1 0x0 MSTORE PUSH1 0x21 PUSH1 0x4 MSTORE PUSH1 0x24 PUSH1 0x0 REVERT JUMPDEST MUL OR SWAP1 SSTORE POP TIMESTAMP PUSH1 0x1 DUP6 PUSH1 0x40 MLOAD PUSH2 0xE40 SWAP2 SWAP1 PUSH2 0x16FA JUMP JUMPDEST SWAP1 DUP2 MSTORE PUSH1 0x20 ADD PUSH1 0x40 MLOAD DUP1 SWAP2 SUB SWAP1 KECCAK256 PUSH1 0x5 ADD DUP2 SWAP1 SSTORE POP DUP4 PUSH1 0x40 MLOAD PUSH2 0xE63 SWAP2 SWAP1 PUSH2 0x16FA JUMP JUMPDEST PUSH1 0x40 MLOAD DUP1 SWAP2 SUB SWAP1 KECCAK256 PUSH32 0xF0E7BF213BB74A286B0FB9E029B060B211D4C6DDE06CD6B8074E694AA867B3B5 DUP3 DUP6 CALLER TIMESTAMP PUSH1 0x40 MLOAD PUSH2 0xEA0 SWAP5 SWAP4 SWAP3 SWAP2 SWAP1 PUSH2 0x175E JUMP JUMPDEST PUSH1 0x40 MLOAD DUP1 SWAP2 SUB SWAP1 LOG2 POP POP POP POP JUMP JUMPDEST PUSH1 0x0 DUP1 PUSH1 0x0 JUMPDEST PUSH1 0x3 DUP1 SLOAD SWAP1 POP DUP2 LT ISZERO PUSH2 0x103E JUMPI DUP4 PUSH1 0x2 DUP2 GT ISZERO PUSH2 0xEFA JUMPI PUSH32 0x4E487B7100000000000000000000000000000000000000000000000000000000 PUSH1 0x0 MSTORE PUSH1 0x21 PUSH1 0x4 MSTORE PUSH1 0x24 PUSH1 0x0 REVERT JUMPDEST PUSH1 0x1 PUSH1 0x3 DUP4 DUP2 SLOAD DUP2 LT PUSH2 0xF36 JUMPI PUSH32 0x4E487B7100000000000000000000000000000000000000000000000000000000 PUSH1 0x0 MSTORE PUSH1 0x32 PUSH1 0x4 MSTORE PUSH1 0x24 PUSH1 0x0 REVERT JUMPDEST SWAP1 PUSH1 0x0 MSTORE PUSH1 0x20 PUSH1 0x0 KECCAK256 ADD PUSH1 0x40 MLOAD PUSH2 0xF4D SWAP2 SWAP1 PUSH2 0x1711 JUMP JUMPDEST SWAP1 DUP2 MSTORE PUSH1 0x20 ADD PUSH1 0x40 MLOAD DUP1 SWAP2 SUB SWAP1 KECCAK256 PUSH1 0x3 ADD PUSH1 0x0 SWAP1 SLOAD SWAP1 PUSH2 0x100 EXP SWAP1 DIV PUSH1 0xFF AND PUSH1 0x2 DUP2 GT ISZERO PUSH2 0xFA4 JUMPI PUSH32 0x4E487B7100000000000000000000000000000000000000000000000000000000 PUSH1 0x0 MSTORE PUSH1 0x21 PUSH1 0x4 MSTORE PUSH1 0x24 PUSH1 0x0 REVERT JUMPDEST EQ ISZERO PUSH2 0x102B JUMPI DUP3 DUP1 PUSH2 0xFB5 SWAP1 PUSH2 0x1B4A JUMP JUMPDEST SWAP4 POP POP PUSH1 0x1 PUSH1 0x3 DUP3 DUP2 SLOAD DUP2 LT PUSH2 0xFF4 JUMPI PUSH32 0x4E487B7100000000000000000000000000000000000000000000000000000000 PUSH1 0x0 MSTORE PUSH1 0x32 PUSH1 0x4 MSTORE PUSH1 0x24 PUSH1 0x0 REVERT JUMPDEST SWAP1 PUSH1 0x0 MSTORE PUSH1 0x20 PUSH1 0x0 KECCAK256 ADD PUSH1 0x40 MLOAD PUSH2 0x100B SWAP2 SWAP1 PUSH2 0x1711 JUMP JUMPDEST SWAP1 DUP2 MSTORE PUSH1 0x20 ADD PUSH1 0x40 MLOAD DUP1 SWAP2 SUB SWAP1 KECCAK256 PUSH1 0x4 ADD SLOAD DUP3 PUSH2 0x1028 SWAP2 SWAP1 PUSH2 0x1A13 JUMP JUMPDEST SWAP2 POP JUMPDEST DUP1 DUP1 PUSH2 0x1036 SWAP1 PUSH2 0x1B4A JUMP JUMPDEST SWAP2 POP POP PUSH2 0xEB4 JUMP JUMPDEST POP SWAP2 POP SWAP2 JUMP JUMPDEST PUSH1 0x3 DUP2 DUP2 SLOAD DUP2 LT PUSH2 0x1054 JUMPI PUSH1 0x0 DUP1 REVERT JUMPDEST SWAP1 PUSH1 0x0 MSTORE PUSH1 0x20 PUSH1 0x0 KECCAK256 ADD PUSH1 0x0 SWAP2 POP SWAP1 POP DUP1 SLOAD PUSH2 0x106F SWAP1 PUSH2 0x1B18 JUMP JUMPDEST DUP1 PUSH1 0x1F ADD PUSH1 0x20 DUP1 SWAP2 DIV MUL PUSH1 0x20 ADD PUSH1 0x40 MLOAD SWAP1 DUP2 ADD PUSH1 0x40 MSTORE DUP1 SWAP3 SWAP2 SWAP1 DUP2 DUP2 MSTORE PUSH1 0x20 ADD DUP3 DUP1 SLOAD PUSH2 0x109B SWAP1 PUSH2 0x1B18 JUMP JUMPDEST DUP1 ISZERO PUSH2 0x10E8 JUMPI DUP1 PUSH1 0x1F LT PUSH2 0x10BD JUMPI PUSH2 0x100 DUP1 DUP4 SLOAD DIV MUL DUP4 MSTORE SWAP2 PUSH1 0x20 ADD SWAP2 PUSH2 0x10E8 JUMP JUMPDEST DUP3 ADD SWAP2 SWAP1 PUSH1 0x0 MSTORE PUSH1 0x20 PUSH1 0x0 KECCAK256 SWAP1 JUMPDEST DUP2 SLOAD DUP2 MSTORE SWAP1 PUSH1 0x1 ADD SWAP1 PUSH1 0x20 ADD DUP1 DUP4 GT PUSH2 0x10CB JUMPI DUP3 SWAP1 SUB PUSH1 0x1F AND DUP3 ADD SWAP2 JUMPDEST POP POP POP POP POP DUP2 JUMP JUMPDEST DUP3 DUP1 SLOAD PUSH2 0x10FC SWAP1 PUSH2 0x1B18 JUMP JUMPDEST SWAP1 PUSH1 0x0 MSTORE PUSH1 0x20 PUSH1 0x0 KECCAK256 SWAP1 PUSH1 0x1F ADD PUSH1 0x20 SWAP1 DIV DUP2 ADD SWAP3 DUP3 PUSH2 0x111E JUMPI PUSH1 0x0 DUP6 SSTORE PUSH2 0x1165 JUMP JUMPDEST DUP3 PUSH1 0x1F LT PUSH2 0x1137 JUMPI DUP1 MLOAD PUSH1 0xFF NOT AND DUP4 DUP1 ADD OR DUP6 SSTORE PUSH2 0x1165 JUMP JUMPDEST DUP3 DUP1 ADD PUSH1 0x1 ADD DUP6 SSTORE DUP3 ISZERO PUSH2 0x1165 JUMPI SWAP2 DUP3 ADD JUMPDEST DUP3 DUP2 GT ISZERO PUSH2 0x1164 JUMPI DUP3 MLOAD DUP3 SSTORE SWAP2 PUSH1 0x20 ADD SWAP2 SWAP1 PUSH1 0x1 ADD SWAP1 PUSH2 0x1149 JUMP JUMPDEST JUMPDEST POP SWAP1 POP PUSH2 0x1172 SWAP2 SWAP1 PUSH2 0x1176 JUMP JUMPDEST POP SWAP1 JUMP JUMPDEST JUMPDEST DUP1 DUP3 GT ISZERO PUSH2 0x118F JUMPI PUSH1 0x0 DUP2 PUSH1 0x0 SWAP1 SSTORE POP PUSH1 0x1 ADD PUSH2 0x1177 JUMP JUMPDEST POP SWAP1 JUMP JUMPDEST PUSH1 0x0 PUSH2 0x11A6 PUSH2 0x11A1 DUP5 PUSH2 0x19A7 JUMP JUMPDEST PUSH2 0x1976 JUMP JUMPDEST SWAP1 POP DUP3 DUP2 MSTORE PUSH1 0x20 DUP2 ADD DUP5 DUP5 DUP5 ADD GT ISZERO PUSH2 0x11BE JUMPI PUSH1 0x0 DUP1 REVERT JUMPDEST PUSH2 0x11C9 DUP5 DUP3 DUP6 PUSH2 0x1AD6 JUMP JUMPDEST POP SWAP4 SWAP3 POP POP POP JUMP JUMPDEST PUSH1 0x0 DUP2 CALLDATALOAD SWAP1 POP PUSH2 0x11E0 DUP2 PUSH2 0x1C74 JUMP JUMPDEST SWAP3 SWAP2 POP POP JUMP JUMPDEST PUSH1 0x0 DUP2 CALLDATALOAD SWAP1 POP PUSH2 0x11F5 DUP2 PUSH2 0x1C8B JUMP JUMPDEST SWAP3 SWAP2 POP POP JUMP JUMPDEST PUSH1 0x0 DUP3 PUSH1 0x1F DUP4 ADD SLT PUSH2 0x120C JUMPI PUSH1 0x0 DUP1 REVERT JUMPDEST DUP2 CALLDATALOAD PUSH2 0x121C DUP5 DUP3 PUSH1 0x20 DUP7 ADD PUSH2 0x1193 JUMP JUMPDEST SWAP2 POP POP SWAP3 SWAP2 POP POP JUMP JUMPDEST PUSH1 0x0 DUP2 CALLDATALOAD SWAP1 POP PUSH2 0x1234 DUP2 PUSH2 0x1C9B JUMP JUMPDEST SWAP3 SWAP2 POP POP JUMP JUMPDEST PUSH1 0x0 PUSH1 0x20 DUP3 DUP5 SUB SLT ISZERO PUSH2 0x124C JUMPI PUSH1 0x0 DUP1 REVERT JUMPDEST PUSH1 0x0 PUSH2 0x125A DUP5 DUP3 DUP6 ADD PUSH2 0x11D1 JUMP JUMPDEST SWAP2 POP POP SWAP3 SWAP2 POP POP JUMP JUMPDEST PUSH1 0x0 PUSH1 0x20 DUP3 DUP5 SUB SLT ISZERO PUSH2 0x1275 JUMPI PUSH1 0x0 DUP1 REVERT JUMPDEST PUSH1 0x0 PUSH2 0x1283 DUP5 DUP3 DUP6 ADD PUSH2 0x11E6 JUMP JUMPDEST SWAP2 POP POP SWAP3 SWAP2 POP POP JUMP JUMPDEST PUSH1 0x0 PUSH1 0x20 DUP3 DUP5 SUB SLT ISZERO PUSH2 0x129E JUMPI PUSH1 0x0 DUP1 REVERT JUMPDEST PUSH1 0x0 DUP3 ADD CALLDATALOAD PUSH8 0xFFFFFFFFFFFFFFFF DUP2 GT ISZERO PUSH2 0x12B8 JUMPI PUSH1 0x0 DUP1 REVERT JUMPDEST PUSH2 0x12C4 DUP5 DUP3 DUP6 ADD PUSH2 0x11FB JUMP JUMPDEST SWAP2 POP POP SWAP3 SWAP2 POP POP JUMP JUMPDEST PUSH1 0x0 DUP1 PUSH1 0x40 DUP4 DUP6 SUB SLT ISZERO PUSH2 0x12E0 JUMPI PUSH1 0x0 DUP1 REVERT JUMPDEST PUSH1 0x0 DUP4 ADD CALLDATALOAD PUSH8 0xFFFFFFFFFFFFFFFF DUP2 GT ISZERO PUSH2 0x12FA JUMPI PUSH1 0x0 DUP1 REVERT JUMPDEST PUSH2 0x1306 DUP6 DUP3 DUP7 ADD PUSH2 0x11FB JUMP JUMPDEST SWAP3 POP POP PUSH1 0x20 PUSH2 0x1317 DUP6 DUP3 DUP7 ADD PUSH2 0x11E6 JUMP JUMPDEST SWAP2 POP POP SWAP3 POP SWAP3 SWAP1 POP JUMP JUMPDEST PUSH1 0x0 DUP1 PUSH1 0x0 DUP1 PUSH1 0x0 PUSH1 0xA0 DUP7 DUP9 SUB SLT ISZERO PUSH2 0x1339 JUMPI PUSH1 0x0 DUP1 REVERT JUMPDEST PUSH1 0x0 DUP7 ADD CALLDATALOAD PUSH8 0xFFFFFFFFFFFFFFFF DUP2 GT ISZERO PUSH2 0x1353 JUMPI PUSH1 0x0 DUP1 REVERT JUMPDEST PUSH2 0x135F DUP9 DUP3 DUP10 ADD PUSH2 0x11FB JUMP JUMPDEST SWAP6 POP POP PUSH1 0x20 DUP7 ADD CALLDATALOAD PUSH8 0xFFFFFFFFFFFFFFFF DUP2 GT ISZERO PUSH2 0x137C JUMPI PUSH1 0x0 DUP1 REVERT JUMPDEST PUSH2 0x1388 DUP9 DUP3 DUP10 ADD PUSH2 0x11FB JUMP JUMPDEST SWAP5 POP POP PUSH1 0x40 DUP7 ADD CALLDATALOAD PUSH8 0xFFFFFFFFFFFFFFFF DUP2 GT ISZERO PUSH2 0x13A5 JUMPI PUSH1 0x0 DUP1 REVERT JUMPDEST PUSH2 0x13B1 DUP9 DUP3 DUP10 ADD PUSH2 0x11FB JUMP JUMPDEST SWAP4 POP POP PUSH1 0x60 PUSH2 0x13C2 DUP9 DUP3 DUP10 ADD PUSH2 0x1225 JUMP JUMPDEST SWAP3 POP POP PUSH1 0x80 PUSH2 0x13D3 DUP9 DUP3 DUP10 ADD PUSH2 0x11E6 JUMP JUMPDEST SWAP2 POP POP SWAP3 SWAP6 POP SWAP3 SWAP6 SWAP1 SWAP4 POP JUMP JUMPDEST PUSH1 0x0 PUSH1 0x20 DUP3 DUP5 SUB SLT ISZERO PUSH2 0x13F2 JUMPI PUSH1 0x0 DUP1 REVERT JUMPDEST PUSH1 0x0 PUSH2 0x1400 DUP5 DUP3 DUP6 ADD PUSH2 0x1225 JUMP JUMPDEST SWAP2 POP POP SWAP3 SWAP2 POP POP JUMP JUMPDEST PUSH2 0x1412 DUP2 PUSH2 0x1A69 JUMP JUMPDEST DUP3 MSTORE POP POP JUMP JUMPDEST PUSH2 0x1421 DUP2 PUSH2 0x1A7B JUMP JUMPDEST DUP3 MSTORE POP POP JUMP JUMPDEST PUSH2 0x1430 DUP2 PUSH2 0x1AC4 JUMP JUMPDEST DUP3 MSTORE POP POP JUMP JUMPDEST PUSH1 0x0 PUSH2 0x1441 DUP3 PUSH2 0x19EC JUMP JUMPDEST PUSH2 0x144B DUP2 DUP6 PUSH2 0x19F7 JUMP JUMPDEST SWAP4 POP PUSH2 0x145B DUP2 DUP6 PUSH1 0x20 DUP7 ADD PUSH2 0x1AE5 JUMP JUMPDEST PUSH2 0x1464 DUP2 PUSH2 0x1C4F JUMP JUMPDEST DUP5 ADD SWAP2 POP POP SWAP3 SWAP2 POP POP JUMP JUMPDEST PUSH1 0x0 PUSH2 0x147A DUP3 PUSH2 0x19EC JUMP JUMPDEST PUSH2 0x1484 DUP2 DUP6 PUSH2 0x1A08 JUMP JUMPDEST SWAP4 POP PUSH2 0x1494 DUP2 DUP6 PUSH1 0x20 DUP7 ADD PUSH2 0x1AE5 JUMP JUMPDEST DUP1 DUP5 ADD SWAP2 POP POP SWAP3 SWAP2 POP POP JUMP JUMPDEST PUSH1 0x0 DUP2 SLOAD PUSH2 0x14AD DUP2 PUSH2 0x1B18 JUMP JUMPDEST PUSH2 0x14B7 DUP2 DUP7 PUSH2 0x1A08 JUMP JUMPDEST SWAP5 POP PUSH1 0x1 DUP3 AND PUSH1 0x0 DUP2 EQ PUSH2 0x14D2 JUMPI PUSH1 0x1 DUP2 EQ PUSH2 0x14E3 JUMPI PUSH2 0x1516 JUMP JUMPDEST PUSH1 0xFF NOT DUP4 AND DUP7 MSTORE DUP2 DUP7 ADD SWAP4 POP PUSH2 0x1516 JUMP JUMPDEST PUSH2 0x14EC DUP6 PUSH2 0x19D7 JUMP JUMPDEST PUSH1 0x0 JUMPDEST DUP4 DUP2 LT ISZERO PUSH2 0x150E JUMPI DUP2 SLOAD DUP2 DUP10 ADD MSTORE PUSH1 0x1 DUP3 ADD SWAP2 POP PUSH1 0x20 DUP2 ADD SWAP1 POP PUSH2 0x14EF JUMP JUMPDEST DUP4 DUP9 ADD SWAP6 POP POP POP JUMPDEST POP POP POP SWAP3 SWAP2 POP POP JUMP JUMPDEST PUSH1 0x0 PUSH2 0x152C PUSH1 0x23 DUP4 PUSH2 0x19F7 JUMP JUMPDEST SWAP2 POP PUSH32 0x48616E7961206F776E65722079616E672062697361206D656C616B756B616E20 PUSH1 0x0 DUP4 ADD MSTORE PUSH32 0x696E690000000000000000000000000000000000000000000000000000000000 PUSH1 0x20 DUP4 ADD MSTORE PUSH1 0x40 DUP3 ADD SWAP1 POP SWAP2 SWAP1 POP JUMP JUMPDEST PUSH1 0x0 PUSH2 0x1592 PUSH1 0x15 DUP4 PUSH2 0x19F7 JUMP JUMPDEST SWAP2 POP PUSH32 0x4C6168616E207375646168207465726461667461720000000000000000000000 PUSH1 0x0 DUP4 ADD MSTORE PUSH1 0x20 DUP3 ADD SWAP1 POP SWAP2 SWAP1 POP JUMP JUMPDEST PUSH1 0x0 PUSH2 0x15D2 PUSH1 0x30 DUP4 PUSH2 0x19F7 JUMP JUMPDEST SWAP2 POP PUSH32 0x48616E79612070657475676173207265736D692079616E672062697361206D65 PUSH1 0x0 DUP4 ADD MSTORE PUSH32 0x6D70657262617275692073746174757300000000000000000000000000000000 PUSH1 0x20 DUP4 ADD MSTORE PUSH1 0x40 DUP3 ADD SWAP1 POP SWAP2 SWAP1 POP JUMP JUMPDEST PUSH1 0x0 PUSH2 0x1638 PUSH1 0x15 DUP4 PUSH2 0x19F7 JUMP JUMPDEST SWAP2 POP PUSH32 0x4C6168616E2062656C756D207465726461667461720000000000000000000000 PUSH1 0x0 DUP4 ADD MSTORE PUSH1 0x20 DUP3 ADD SWAP1 POP SWAP2 SWAP1 POP JUMP JUMPDEST PUSH1 0x0 PUSH2 0x1678 PUSH1 0x1D DUP4 PUSH2 0x19F7 JUMP JUMPDEST SWAP2 POP PUSH32 0x4C756173206C6168616E206861727573206C6562696820646172692030000000 PUSH1 0x0 DUP4 ADD MSTORE PUSH1 0x20 DUP3 ADD SWAP1 POP SWAP2 SWAP1 POP JUMP JUMPDEST PUSH1 0x0 PUSH2 0x16B8 PUSH1 0x1B DUP4 PUSH2 0x19F7 JUMP JUMPDEST SWAP2 POP PUSH32 0x4944206C6168616E20746964616B20626F6C6568206B6F736F6E670000000000 PUSH1 0x0 DUP4 ADD MSTORE PUSH1 0x20 DUP3 ADD SWAP1 POP SWAP2 SWAP1 POP JUMP JUMPDEST PUSH2 0x16F4 DUP2 PUSH2 0x1ABA JUMP JUMPDEST DUP3 MSTORE POP POP JUMP JUMPDEST PUSH1 0x0 PUSH2 0x1706 DUP3 DUP5 PUSH2 0x146F JUMP JUMPDEST SWAP2 POP DUP2 SWAP1 POP SWAP3 SWAP2 POP POP JUMP JUMPDEST PUSH1 0x0 PUSH2 0x171D DUP3 DUP5 PUSH2 0x14A0 JUMP JUMPDEST SWAP2 POP DUP2 SWAP1 POP SWAP3 SWAP2 POP POP JUMP JUMPDEST PUSH1 0x0 PUSH1 0x20 DUP3 ADD SWAP1 POP PUSH2 0x173D PUSH1 0x0 DUP4 ADD DUP5 PUSH2 0x1409 JUMP JUMPDEST SWAP3 SWAP2 POP POP JUMP JUMPDEST PUSH1 0x0 PUSH1 0x20 DUP3 ADD SWAP1 POP PUSH2 0x1758 PUSH1 0x0 DUP4 ADD DUP5 PUSH2 0x1418 JUMP JUMPDEST SWAP3 SWAP2 POP POP JUMP JUMPDEST PUSH1 0x0 PUSH1 0x80 DUP3 ADD SWAP1 POP PUSH2 0x1773 PUSH1 0x0 DUP4 ADD DUP8 PUSH2 0x1427 JUMP JUMPDEST PUSH2 0x1780 PUSH1 0x20 DUP4 ADD DUP7 PUSH2 0x1427 JUMP JUMPDEST PUSH2 0x178D PUSH1 0x40 DUP4 ADD DUP6 PUSH2 0x1409 JUMP JUMPDEST PUSH2 0x179A PUSH1 0x60 DUP4 ADD DUP5 PUSH2 0x16EB JUMP JUMPDEST SWAP6 SWAP5 POP POP POP POP POP JUMP JUMPDEST PUSH1 0x0 PUSH1 0x20 DUP3 ADD SWAP1 POP DUP2 DUP2 SUB PUSH1 0x0 DUP4 ADD MSTORE PUSH2 0x17BD DUP2 DUP5 PUSH2 0x1436 JUMP JUMPDEST SWAP1 POP SWAP3 SWAP2 POP POP JUMP JUMPDEST PUSH1 0x0 PUSH1 0xA0 DUP3 ADD SWAP1 POP DUP2 DUP2 SUB PUSH1 0x0 DUP4 ADD MSTORE PUSH2 0x17DF DUP2 DUP9 PUSH2 0x1436 JUMP JUMPDEST SWAP1 POP DUP2 DUP2 SUB PUSH1 0x20 DUP4 ADD MSTORE PUSH2 0x17F3 DUP2 DUP8 PUSH2 0x1436 JUMP JUMPDEST SWAP1 POP DUP2 DUP2 SUB PUSH1 0x40 DUP4 ADD MSTORE PUSH2 0x1807 DUP2 DUP7 PUSH2 0x1436 JUMP JUMPDEST SWAP1 POP PUSH2 0x1816 PUSH1 0x60 DUP4 ADD DUP6 PUSH2 0x16EB JUMP JUMPDEST PUSH2 0x1823 PUSH1 0x80 DUP4 ADD DUP5 PUSH2 0x16EB JUMP JUMPDEST SWAP7 SWAP6 POP POP POP POP POP POP JUMP JUMPDEST PUSH1 0x0 PUSH1 0x60 DUP3 ADD SWAP1 POP DUP2 DUP2 SUB PUSH1 0x0 DUP4 ADD MSTORE PUSH2 0x1847 DUP2 DUP7 PUSH2 0x1436 JUMP JUMPDEST SWAP1 POP DUP2 DUP2 SUB PUSH1 0x20 DUP4 ADD MSTORE PUSH2 0x185B DUP2 DUP6 PUSH2 0x1436 JUMP JUMPDEST SWAP1 POP PUSH2 0x186A PUSH1 0x40 DUP4 ADD DUP5 PUSH2 0x16EB JUMP JUMPDEST SWAP5 SWAP4 POP POP POP POP JUMP JUMPDEST PUSH1 0x0 PUSH1 0x20 DUP3 ADD SWAP1 POP DUP2 DUP2 SUB PUSH1 0x0 DUP4 ADD MSTORE PUSH2 0x188B DUP2 PUSH2 0x151F JUMP JUMPDEST SWAP1 POP SWAP2 SWAP1 POP JUMP JUMPDEST PUSH1 0x0 PUSH1 0x20 DUP3 ADD SWAP1 POP DUP2 DUP2 SUB PUSH1 0x0 DUP4 ADD MSTORE PUSH2 0x18AB DUP2 PUSH2 0x1585 JUMP JUMPDEST SWAP1 POP SWAP2 SWAP1 POP JUMP JUMPDEST PUSH1 0x0 PUSH1 0x20 DUP3 ADD SWAP1 POP DUP2 DUP2 SUB PUSH1 0x0 DUP4 ADD MSTORE PUSH2 0x18CB DUP2 PUSH2 0x15C5 JUMP JUMPDEST SWAP1 POP SWAP2 SWAP1 POP JUMP JUMPDEST PUSH1 0x0 PUSH1 0x20 DUP3 ADD SWAP1 POP DUP2 DUP2 SUB PUSH1 0x0 DUP4 ADD MSTORE PUSH2 0x18EB DUP2 PUSH2 0x162B JUMP JUMPDEST SWAP1 POP SWAP2 SWAP1 POP JUMP JUMPDEST PUSH1 0x0 PUSH1 0x20 DUP3 ADD SWAP1 POP DUP2 DUP2 SUB PUSH1 0x0 DUP4 ADD MSTORE PUSH2 0x190B DUP2 PUSH2 0x166B JUMP JUMPDEST SWAP1 POP SWAP2 SWAP1 POP JUMP JUMPDEST PUSH1 0x0 PUSH1 0x20 DUP3 ADD SWAP1 POP DUP2 DUP2 SUB PUSH1 0x0 DUP4 ADD MSTORE PUSH2 0x192B DUP2 PUSH2 0x16AB JUMP JUMPDEST SWAP1 POP SWAP2 SWAP1 POP JUMP JUMPDEST PUSH1 0x0 PUSH1 0x20 DUP3 ADD SWAP1 POP PUSH2 0x1947 PUSH1 0x0 DUP4 ADD DUP5 PUSH2 0x16EB JUMP JUMPDEST SWAP3 SWAP2 POP POP JUMP JUMPDEST PUSH1 0x0 PUSH1 0x40 DUP3 ADD SWAP1 POP PUSH2 0x1962 PUSH1 0x0 DUP4 ADD DUP6 PUSH2 0x16EB JUMP JUMPDEST PUSH2 0x196F PUSH1 0x20 DUP4 ADD DUP5 PUSH2 0x16EB JUMP JUMPDEST SWAP4 SWAP3 POP POP POP JUMP JUMPDEST PUSH1 0x0 PUSH1 0x40 MLOAD SWAP1 POP DUP2 DUP2 ADD DUP2 DUP2 LT PUSH8 0xFFFFFFFFFFFFFFFF DUP3 GT OR ISZERO PUSH2 0x199D JUMPI PUSH2 0x199C PUSH2 0x1C20 JUMP JUMPDEST JUMPDEST DUP1 PUSH1 0x40 MSTORE POP SWAP2 SWAP1 POP JUMP JUMPDEST PUSH1 0x0 PUSH8 0xFFFFFFFFFFFFFFFF DUP3 GT ISZERO PUSH2 0x19C2 JUMPI PUSH2 0x19C1 PUSH2 0x1C20 JUMP JUMPDEST JUMPDEST PUSH1 0x1F NOT PUSH1 0x1F DUP4 ADD AND SWAP1 POP PUSH1 0x20 DUP2 ADD SWAP1 POP SWAP2 SWAP1 POP JUMP JUMPDEST PUSH1 0x0 DUP2 SWAP1 POP DUP2 PUSH1 0x0 MSTORE PUSH1 0x20 PUSH1 0x0 KECCAK256 SWAP1 POP SWAP2 SWAP1 POP JUMP JUMPDEST PUSH1 0x0 DUP2 MLOAD SWAP1 POP SWAP2 SWAP1 POP JUMP JUMPDEST PUSH1 0x0 DUP3 DUP3 MSTORE PUSH1 0x20 DUP3 ADD SWAP1 POP SWAP3 SWAP2 POP POP JUMP JUMPDEST PUSH1 0x0 DUP2 SWAP1 POP SWAP3 SWAP2 POP POP JUMP JUMPDEST PUSH1 0x0 PUSH2 0x1A1E DUP3 PUSH2 0x1ABA JUMP JUMPDEST SWAP2 POP PUSH2 0x1A29 DUP4 PUSH2 0x1ABA JUMP JUMPDEST SWAP3 POP DUP3 PUSH32 0xFFFFFFFFFFFFFFFFFFFFFFFFFFFFFFFFFFFFFFFFFFFFFFFFFFFFFFFFFFFFFFFF SUB DUP3 GT ISZERO PUSH2 0x1A5E JUMPI PUSH2 0x1A5D PUSH2 0x1B93 JUMP JUMPDEST JUMPDEST DUP3 DUP3 ADD SWAP1 POP SWAP3 SWAP2 POP POP JUMP JUMPDEST PUSH1 0x0 PUSH2 0x1A74 DUP3 PUSH2 0x1A9A JUMP JUMPDEST SWAP1 POP SWAP2 SWAP1 POP JUMP JUMPDEST PUSH1 0x0 DUP2 ISZERO ISZERO SWAP1 POP SWAP2 SWAP1 POP JUMP JUMPDEST PUSH1 0x0 DUP2 SWAP1 POP PUSH2 0x1A95 DUP3 PUSH2 0x1C60 JUMP JUMPDEST SWAP2 SWAP1 POP JUMP JUMPDEST PUSH1 0x0 PUSH20 0xFFFFFFFFFFFFFFFFFFFFFFFFFFFFFFFFFFFFFFFF DUP3 AND SWAP1 POP SWAP2 SWAP1 POP JUMP JUMPDEST PUSH1 0x0 DUP2 SWAP1 POP SWAP2 SWAP1 POP JUMP JUMPDEST PUSH1 0x0 PUSH2 0x1ACF DUP3 PUSH2 0x1A87 JUMP JUMPDEST SWAP1 POP SWAP2 SWAP1 POP JUMP JUMPDEST DUP3 DUP2 DUP4 CALLDATACOPY PUSH1 0x0 DUP4 DUP4 ADD MSTORE POP POP POP JUMP JUMPDEST PUSH1 0x0 JUMPDEST DUP4 DUP2 LT ISZERO PUSH2 0x1B03 JUMPI DUP1 DUP3 ADD MLOAD DUP2 DUP5 ADD MSTORE PUSH1 0x20 DUP2 ADD SWAP1 POP PUSH2 0x1AE8 JUMP JUMPDEST DUP4 DUP2 GT ISZERO PUSH2 0x1B12 JUMPI PUSH1 0x0 DUP5 DUP5 ADD MSTORE JUMPDEST POP POP POP POP JUMP JUMPDEST PUSH1 0x0 PUSH1 0x2 DUP3 DIV SWAP1 POP PUSH1 0x1 DUP3 AND DUP1 PUSH2 0x1B30 JUMPI PUSH1 0x7F DUP3 AND SWAP2 POP JUMPDEST PUSH1 0x20 DUP3 LT DUP2 EQ ISZERO PUSH2 0x1B44 JUMPI PUSH2 0x1B43 PUSH2 0x1BF1 JUMP JUMPDEST JUMPDEST POP SWAP2 SWAP1 POP JUMP JUMPDEST PUSH1 0x0 PUSH2 0x1B55 DUP3 PUSH2 0x1ABA JUMP JUMPDEST SWAP2 POP PUSH32 0xFFFFFFFFFFFFFFFFFFFFFFFFFFFFFFFFFFFFFFFFFFFFFFFFFFFFFFFFFFFFFFFF DUP3 EQ ISZERO PUSH2 0x1B88 JUMPI PUSH2 0x1B87 PUSH2 0x1B93 JUMP JUMPDEST JUMPDEST PUSH1 0x1 DUP3 ADD SWAP1 POP SWAP2 SWAP1 POP JUMP JUMPDEST PUSH32 0x4E487B7100000000000000000000000000000000000000000000000000000000 PUSH1 0x0 MSTORE PUSH1 0x11 PUSH1 0x4 MSTORE PUSH1 0x24 PUSH1 0x0 REVERT JUMPDEST PUSH32 0x4E487B7100000000000000000000000000000000000000000000000000000000 PUSH1 0x0 MSTORE PUSH1 0x21 PUSH1 0x4 MSTORE PUSH1 0x24 PUSH1 0x0 REVERT JUMPDEST PUSH32 0x4E487B7100000000000000000000000000000000000000000000000000000000 PUSH1 0x0 MSTORE PUSH1 0x22 PUSH1 0x4 MSTORE PUSH1 0x24 PUSH1 0x0 REVERT JUMPDEST PUSH32 0x4E487B7100000000000000000000000000000000000000000000000000000000 PUSH1 0x0 MSTORE PUSH1 0x41 PUSH1 0x4 MSTORE PUSH1 0x24 PUSH1 0x0 REVERT JUMPDEST PUSH1 0x0 PUSH1 0x1F NOT PUSH1 0x1F DUP4 ADD AND SWAP1 POP SWAP2 SWAP1 POP JUMP JUMPDEST PUSH1 0x3 DUP2 LT PUSH2 0x1C71 JUMPI PUSH2 0x1C70 PUSH2 0x1BC2 JUMP JUMPDEST JUMPDEST POP JUMP JUMPDEST PUSH2 0x1C7D DUP2 PUSH2 0x1A69 JUMP JUMPDEST DUP2 EQ PUSH2 0x1C88 JUMPI PUSH1 0x0 DUP1 REVERT JUMPDEST POP JUMP JUMPDEST PUSH1 0x3 DUP2 LT PUSH2 0x1C98 JUMPI PUSH1 0x0 DUP1 REVERT JUMPDEST POP JUMP JUMPDEST PUSH2 0x1CA4 DUP2 PUSH2 0x1ABA JUMP JUMPDEST DUP2 EQ PUSH2 0x1CAF JUMPI PUSH1 0x0 DUP1 REVERT JUMPDEST POP JUMP INVALID LOG2 PUSH5 0x6970667358 0x22 SLT KECCAK256 0xBF PUSH10 0xF5F901A63E40BAA0F219 XOR PUSH26 0x22273DCCDE1A8488492B49EB12AD5A9FCDAD64736F6C63430008 STOP STOP CALLER "
				},
				"gasEstimates": {
					"creation": {
						"codeDepositCost": "1480000",
						"executionCost": "22414",
						"totalCost": "1502414"
					},
					"external": {
						"daftarIdLahan(uint256)": "infinite",
						"daftarkanLahan(string,string,string,uint256,uint8)": "infinite",
						"lihatDataLahan(string)": "infinite",
						"owner()": "1256",
						"perbaruiStatus(string,uint8)": "infinite",
						"petugasResmi(address)": "1567",
						"tambahPetugas(address)": "23853",
						"totalLahanPerStatus(uint8)": "infinite",
						"totalLahanTerdaftar()": "1146"
					}
				},
				"methodIdentifiers": {
					"daftarIdLahan(uint256)": "f9284ba0",
					"daftarkanLahan(string,string,string,uint256,uint8)": "d52cbf23",
					"lihatDataLahan(string)": "64d1798b",
					"owner()": "8da5cb5b",
					"perbaruiStatus(string,uint8)": "eeae0059",
					"petugasResmi(address)": "daaef101",
					"tambahPetugas(address)": "da36344b",
					"totalLahanPerStatus(uint8)": "f8dafb05",
					"totalLahanTerdaftar()": "5d15da81"
				}
			},
			"storageLayout": {
				"storage": [
					{
						"astId": 23,
						"contract": "StatusLahan.sol:StatusLahan",
						"label": "owner",
						"offset": 0,
						"slot": "0",
						"type": "t_address"
					},
					{
						"astId": 28,
						"contract": "StatusLahan.sol:StatusLahan",
						"label": "dataLahan",
						"offset": 0,
						"slot": "1",
						"type": "t_mapping(t_string_memory_ptr,t_struct(DataLahan)21_storage)"
					},
					{
						"astId": 32,
						"contract": "StatusLahan.sol:StatusLahan",
						"label": "petugasResmi",
						"offset": 0,
						"slot": "2",
						"type": "t_mapping(t_address,t_bool)"
					},
					{
						"astId": 35,
						"contract": "StatusLahan.sol:StatusLahan",
						"label": "daftarIdLahan",
						"offset": 0,
						"slot": "3",
						"type": "t_array(t_string_storage)dyn_storage"
					}
				],
				"types": {
					"t_address": {
						"encoding": "inplace",
						"label": "address",
						"numberOfBytes": "20"
					},
					"t_array(t_string_storage)dyn_storage": {
						"base": "t_string_storage",
						"encoding": "dynamic_array",
						"label": "string[]",
						"numberOfBytes": "32"
					},
					"t_bool": {
						"encoding": "inplace",
						"label": "bool",
						"numberOfBytes": "1"
					},
					"t_enum(StatusPenggunaan)5": {
						"encoding": "inplace",
						"label": "enum StatusLahan.StatusPenggunaan",
						"numberOfBytes": "1"
					},
					"t_mapping(t_address,t_bool)": {
						"encoding": "mapping",
						"key": "t_address",
						"label": "mapping(address => bool)",
						"numberOfBytes": "32",
						"value": "t_bool"
					},
					"t_mapping(t_string_memory_ptr,t_struct(DataLahan)21_storage)": {
						"encoding": "mapping",
						"key": "t_string_memory_ptr",
						"label": "mapping(string => struct StatusLahan.DataLahan)",
						"numberOfBytes": "32",
						"value": "t_struct(DataLahan)21_storage"
					},
					"t_string_memory_ptr": {
						"encoding": "bytes",
						"label": "string",
						"numberOfBytes": "32"
					},
					"t_string_storage": {
						"encoding": "bytes",
						"label": "string",
						"numberOfBytes": "32"
					},
					"t_struct(DataLahan)21_storage": {
						"encoding": "inplace",
						"label": "struct StatusLahan.DataLahan",
						"members": [
							{
								"astId": 7,
								"contract": "StatusLahan.sol:StatusLahan",
								"label": "idLahan",
								"offset": 0,
								"slot": "0",
								"type": "t_string_storage"
							},
							{
								"astId": 9,
								"contract": "StatusLahan.sol:StatusLahan",
								"label": "namaPemilik",
								"offset": 0,
								"slot": "1",
								"type": "t_string_storage"
							},
							{
								"astId": 11,
								"contract": "StatusLahan.sol:StatusLahan",
								"label": "lokasi",
								"offset": 0,
								"slot": "2",
								"type": "t_string_storage"
							},
							{
								"astId": 14,
								"contract": "StatusLahan.sol:StatusLahan",
								"label": "status",
								"offset": 0,
								"slot": "3",
								"type": "t_enum(StatusPenggunaan)5"
							},
							{
								"astId": 16,
								"contract": "StatusLahan.sol:StatusLahan",
								"label": "luasM2",
								"offset": 0,
								"slot": "4",
								"type": "t_uint256"
							},
							{
								"astId": 18,
								"contract": "StatusLahan.sol:StatusLahan",
								"label": "tanggalUpdate",
								"offset": 0,
								"slot": "5",
								"type": "t_uint256"
							},
							{
								"astId": 20,
								"contract": "StatusLahan.sol:StatusLahan",
								"label": "terdaftar",
								"offset": 0,
								"slot": "6",
								"type": "t_bool"
							}
						],
						"numberOfBytes": "224"
					},
					"t_uint256": {
						"encoding": "inplace",
						"label": "uint256",
						"numberOfBytes": "32"
					}
				}
			},
			"userdoc": {
				"kind": "user",
				"methods": {},
				"version": 1
			}
		}
	}
}